{
	"contracts/12-tokens-ERC20/ERC20/customERC20.sol": {
		"customERC20": {
			"abi": [
				{
					"inputs": [],
					"stateMutability": "nonpayable",
					"type": "constructor"
				},
				{
					"anonymous": false,
					"inputs": [
						{
							"indexed": true,
							"internalType": "address",
							"name": "owner",
							"type": "address"
						},
						{
							"indexed": true,
							"internalType": "address",
							"name": "spender",
							"type": "address"
						},
						{
							"indexed": false,
							"internalType": "uint256",
							"name": "value",
							"type": "uint256"
						}
					],
					"name": "Approval",
					"type": "event"
				},
				{
					"anonymous": false,
					"inputs": [
						{
							"indexed": true,
							"internalType": "address",
							"name": "from",
							"type": "address"
						},
						{
							"indexed": true,
							"internalType": "address",
							"name": "to",
							"type": "address"
						},
						{
							"indexed": false,
							"internalType": "uint256",
							"name": "value",
							"type": "uint256"
						}
					],
					"name": "Transfer",
					"type": "event"
				},
				{
					"inputs": [
						{
							"internalType": "address",
							"name": "owner",
							"type": "address"
						},
						{
							"internalType": "address",
							"name": "spender",
							"type": "address"
						}
					],
					"name": "allowance",
					"outputs": [
						{
							"internalType": "uint256",
							"name": "",
							"type": "uint256"
						}
					],
					"stateMutability": "view",
					"type": "function"
				},
				{
					"inputs": [
						{
							"internalType": "address",
							"name": "spender",
							"type": "address"
						},
						{
							"internalType": "uint256",
							"name": "amount",
							"type": "uint256"
						}
					],
					"name": "approve",
					"outputs": [
						{
							"internalType": "bool",
							"name": "",
							"type": "bool"
						}
					],
					"stateMutability": "nonpayable",
					"type": "function"
				},
				{
					"inputs": [
						{
							"internalType": "address",
							"name": "account",
							"type": "address"
						}
					],
					"name": "balanceOf",
					"outputs": [
						{
							"internalType": "uint256",
							"name": "",
							"type": "uint256"
						}
					],
					"stateMutability": "view",
					"type": "function"
				},
				{
					"inputs": [],
					"name": "crearTokens",
					"outputs": [],
					"stateMutability": "nonpayable",
					"type": "function"
				},
				{
					"inputs": [],
					"name": "decimals",
					"outputs": [
						{
							"internalType": "uint8",
							"name": "",
							"type": "uint8"
						}
					],
					"stateMutability": "view",
					"type": "function"
				},
				{
					"inputs": [
						{
							"internalType": "address",
							"name": "spender",
							"type": "address"
						},
						{
							"internalType": "uint256",
							"name": "subtractedValue",
							"type": "uint256"
						}
					],
					"name": "decreaseAllowance",
					"outputs": [
						{
							"internalType": "bool",
							"name": "",
							"type": "bool"
						}
					],
					"stateMutability": "nonpayable",
					"type": "function"
				},
				{
					"inputs": [
						{
							"internalType": "address",
							"name": "spender",
							"type": "address"
						},
						{
							"internalType": "uint256",
							"name": "addedValue",
							"type": "uint256"
						}
					],
					"name": "increaseAllowance",
					"outputs": [
						{
							"internalType": "bool",
							"name": "",
							"type": "bool"
						}
					],
					"stateMutability": "nonpayable",
					"type": "function"
				},
				{
					"inputs": [],
					"name": "name",
					"outputs": [
						{
							"internalType": "string",
							"name": "",
							"type": "string"
						}
					],
					"stateMutability": "view",
					"type": "function"
				},
				{
					"inputs": [],
					"name": "symbol",
					"outputs": [
						{
							"internalType": "string",
							"name": "",
							"type": "string"
						}
					],
					"stateMutability": "view",
					"type": "function"
				},
				{
					"inputs": [],
					"name": "totalSupply",
					"outputs": [
						{
							"internalType": "uint256",
							"name": "",
							"type": "uint256"
						}
					],
					"stateMutability": "view",
					"type": "function"
				},
				{
					"inputs": [
						{
							"internalType": "address",
							"name": "to",
							"type": "address"
						},
						{
							"internalType": "uint256",
							"name": "amount",
							"type": "uint256"
						}
					],
					"name": "transfer",
					"outputs": [
						{
							"internalType": "bool",
							"name": "",
							"type": "bool"
						}
					],
					"stateMutability": "nonpayable",
					"type": "function"
				},
				{
					"inputs": [
						{
							"internalType": "address",
							"name": "from",
							"type": "address"
						},
						{
							"internalType": "address",
							"name": "to",
							"type": "address"
						},
						{
							"internalType": "uint256",
							"name": "amount",
							"type": "uint256"
						}
					],
					"name": "transferFrom",
					"outputs": [
						{
							"internalType": "bool",
							"name": "",
							"type": "bool"
						}
					],
					"stateMutability": "nonpayable",
					"type": "function"
				}
			],
			"devdoc": {
				"kind": "dev",
				"methods": {},
				"version": 1
			},
			"evm": {
				"assembly": "    /* \"contracts/12-tokens-ERC20/ERC20/customERC20.sol\":80:302  contract customERC20 is ERC20 {... */\n  mstore(0x40, 0x80)\n    /* \"contracts/12-tokens-ERC20/ERC20/customERC20.sol\":155:191  constructor() ERC20(\"Joan\", \"JA\") {} */\n  callvalue\n  dup1\n  iszero\n  tag_1\n  jumpi\n  0x00\n  dup1\n  revert\ntag_1:\n  pop\n    /* \"contracts/12-tokens-ERC20/ERC20/ERC20.sol\":2650:2763  constructor(string memory name_, string memory symbol_) {... */\n  mload(0x40)\n  dup1\n  0x40\n  add\n  0x40\n  mstore\n  dup1\n  0x04\n  dup2\n  mstore\n  0x20\n  add\n  0x4a6f616e00000000000000000000000000000000000000000000000000000000\n  dup2\n  mstore\n  pop\n  mload(0x40)\n  dup1\n  0x40\n  add\n  0x40\n  mstore\n  dup1\n  0x02\n  dup2\n  mstore\n  0x20\n  add\n  0x4a41000000000000000000000000000000000000000000000000000000000000\n  dup2\n  mstore\n  pop\n    /* \"contracts/12-tokens-ERC20/ERC20/ERC20.sol\":2724:2729  name_ */\n  dup2\n    /* \"contracts/12-tokens-ERC20/ERC20/ERC20.sol\":2716:2721  _name */\n  0x03\n    /* \"contracts/12-tokens-ERC20/ERC20/ERC20.sol\":2716:2729  _name = name_ */\n  swap1\n  dup2\n  tag_5\n  swap2\n  swap1\n  tag_6\n  jump\t// in\ntag_5:\n  pop\n    /* \"contracts/12-tokens-ERC20/ERC20/ERC20.sol\":2749:2756  symbol_ */\n  dup1\n    /* \"contracts/12-tokens-ERC20/ERC20/ERC20.sol\":2739:2746  _symbol */\n  0x04\n    /* \"contracts/12-tokens-ERC20/ERC20/ERC20.sol\":2739:2756  _symbol = symbol_ */\n  swap1\n  dup2\n  tag_7\n  swap2\n  swap1\n  tag_6\n  jump\t// in\ntag_7:\n  pop\n    /* \"contracts/12-tokens-ERC20/ERC20/ERC20.sol\":2650:2763  constructor(string memory name_, string memory symbol_) {... */\n  pop\n  pop\n    /* \"contracts/12-tokens-ERC20/ERC20/customERC20.sol\":80:302  contract customERC20 is ERC20 {... */\n  jump(tag_9)\n    /* \"#utility.yul\":7:106   */\ntag_10:\n    /* \"#utility.yul\":59:65   */\n  0x00\n    /* \"#utility.yul\":93:98   */\n  dup2\n    /* \"#utility.yul\":87:99   */\n  mload\n    /* \"#utility.yul\":77:99   */\n  swap1\n  pop\n    /* \"#utility.yul\":7:106   */\n  swap2\n  swap1\n  pop\n  jump\t// out\n    /* \"#utility.yul\":112:292   */\ntag_11:\n    /* \"#utility.yul\":160:237   */\n  0x4e487b7100000000000000000000000000000000000000000000000000000000\n    /* \"#utility.yul\":157:158   */\n  0x00\n    /* \"#utility.yul\":150:238   */\n  mstore\n    /* \"#utility.yul\":257:261   */\n  0x41\n    /* \"#utility.yul\":254:255   */\n  0x04\n    /* \"#utility.yul\":247:262   */\n  mstore\n    /* \"#utility.yul\":281:285   */\n  0x24\n    /* \"#utility.yul\":278:279   */\n  0x00\n    /* \"#utility.yul\":271:286   */\n  revert\n    /* \"#utility.yul\":298:478   */\ntag_12:\n    /* \"#utility.yul\":346:423   */\n  0x4e487b7100000000000000000000000000000000000000000000000000000000\n    /* \"#utility.yul\":343:344   */\n  0x00\n    /* \"#utility.yul\":336:424   */\n  mstore\n    /* \"#utility.yul\":443:447   */\n  0x22\n    /* \"#utility.yul\":440:441   */\n  0x04\n    /* \"#utility.yul\":433:448   */\n  mstore\n    /* \"#utility.yul\":467:471   */\n  0x24\n    /* \"#utility.yul\":464:465   */\n  0x00\n    /* \"#utility.yul\":457:472   */\n  revert\n    /* \"#utility.yul\":484:804   */\ntag_13:\n    /* \"#utility.yul\":528:534   */\n  0x00\n    /* \"#utility.yul\":565:566   */\n  0x02\n    /* \"#utility.yul\":559:563   */\n  dup3\n    /* \"#utility.yul\":555:567   */\n  div\n    /* \"#utility.yul\":545:567   */\n  swap1\n  pop\n    /* \"#utility.yul\":612:613   */\n  0x01\n    /* \"#utility.yul\":606:610   */\n  dup3\n    /* \"#utility.yul\":602:614   */\n  and\n    /* \"#utility.yul\":633:651   */\n  dup1\n    /* \"#utility.yul\":623:704   */\n  tag_35\n  jumpi\n    /* \"#utility.yul\":689:693   */\n  0x7f\n    /* \"#utility.yul\":681:687   */\n  dup3\n    /* \"#utility.yul\":677:694   */\n  and\n    /* \"#utility.yul\":667:694   */\n  swap2\n  pop\n    /* \"#utility.yul\":623:704   */\ntag_35:\n    /* \"#utility.yul\":751:753   */\n  0x20\n    /* \"#utility.yul\":743:749   */\n  dup3\n    /* \"#utility.yul\":740:754   */\n  lt\n    /* \"#utility.yul\":720:738   */\n  dup2\n    /* \"#utility.yul\":717:755   */\n  sub\n    /* \"#utility.yul\":714:798   */\n  tag_36\n  jumpi\n    /* \"#utility.yul\":770:788   */\n  tag_37\n  tag_12\n  jump\t// in\ntag_37:\n    /* \"#utility.yul\":714:798   */\ntag_36:\n    /* \"#utility.yul\":535:804   */\n  pop\n    /* \"#utility.yul\":484:804   */\n  swap2\n  swap1\n  pop\n  jump\t// out\n    /* \"#utility.yul\":810:951   */\ntag_14:\n    /* \"#utility.yul\":859:863   */\n  0x00\n    /* \"#utility.yul\":882:885   */\n  dup2\n    /* \"#utility.yul\":874:885   */\n  swap1\n  pop\n    /* \"#utility.yul\":905:908   */\n  dup2\n    /* \"#utility.yul\":902:903   */\n  0x00\n    /* \"#utility.yul\":895:909   */\n  mstore\n    /* \"#utility.yul\":939:943   */\n  0x20\n    /* \"#utility.yul\":936:937   */\n  0x00\n    /* \"#utility.yul\":926:944   */\n  keccak256\n    /* \"#utility.yul\":918:944   */\n  swap1\n  pop\n    /* \"#utility.yul\":810:951   */\n  swap2\n  swap1\n  pop\n  jump\t// out\n    /* \"#utility.yul\":957:1050   */\ntag_15:\n    /* \"#utility.yul\":994:1000   */\n  0x00\n    /* \"#utility.yul\":1041:1043   */\n  0x20\n    /* \"#utility.yul\":1036:1038   */\n  0x1f\n    /* \"#utility.yul\":1029:1034   */\n  dup4\n    /* \"#utility.yul\":1025:1039   */\n  add\n    /* \"#utility.yul\":1021:1044   */\n  div\n    /* \"#utility.yul\":1011:1044   */\n  swap1\n  pop\n    /* \"#utility.yul\":957:1050   */\n  swap2\n  swap1\n  pop\n  jump\t// out\n    /* \"#utility.yul\":1056:1163   */\ntag_16:\n    /* \"#utility.yul\":1100:1108   */\n  0x00\n    /* \"#utility.yul\":1150:1155   */\n  dup3\n    /* \"#utility.yul\":1144:1148   */\n  dup3\n    /* \"#utility.yul\":1140:1156   */\n  shl\n    /* \"#utility.yul\":1119:1156   */\n  swap1\n  pop\n    /* \"#utility.yul\":1056:1163   */\n  swap3\n  swap2\n  pop\n  pop\n  jump\t// out\n    /* \"#utility.yul\":1169:1562   */\ntag_17:\n    /* \"#utility.yul\":1238:1244   */\n  0x00\n    /* \"#utility.yul\":1288:1289   */\n  0x08\n    /* \"#utility.yul\":1276:1286   */\n  dup4\n    /* \"#utility.yul\":1272:1290   */\n  mul\n    /* \"#utility.yul\":1311:1408   */\n  tag_42\n    /* \"#utility.yul\":1341:1407   */\n  0xffffffffffffffffffffffffffffffffffffffffffffffffffffffffffffffff\n    /* \"#utility.yul\":1330:1339   */\n  dup3\n    /* \"#utility.yul\":1311:1408   */\n  tag_16\n  jump\t// in\ntag_42:\n    /* \"#utility.yul\":1429:1468   */\n  tag_43\n    /* \"#utility.yul\":1459:1467   */\n  dup7\n    /* \"#utility.yul\":1448:1457   */\n  dup4\n    /* \"#utility.yul\":1429:1468   */\n  tag_16\n  jump\t// in\ntag_43:\n    /* \"#utility.yul\":1417:1468   */\n  swap6\n  pop\n    /* \"#utility.yul\":1501:1505   */\n  dup1\n    /* \"#utility.yul\":1497:1506   */\n  not\n    /* \"#utility.yul\":1490:1495   */\n  dup5\n    /* \"#utility.yul\":1486:1507   */\n  and\n    /* \"#utility.yul\":1477:1507   */\n  swap4\n  pop\n    /* \"#utility.yul\":1550:1554   */\n  dup1\n    /* \"#utility.yul\":1540:1548   */\n  dup7\n    /* \"#utility.yul\":1536:1555   */\n  and\n    /* \"#utility.yul\":1529:1534   */\n  dup5\n    /* \"#utility.yul\":1526:1556   */\n  or\n    /* \"#utility.yul\":1516:1556   */\n  swap3\n  pop\n    /* \"#utility.yul\":1245:1562   */\n  pop\n  pop\n    /* \"#utility.yul\":1169:1562   */\n  swap4\n  swap3\n  pop\n  pop\n  pop\n  jump\t// out\n    /* \"#utility.yul\":1568:1645   */\ntag_18:\n    /* \"#utility.yul\":1605:1612   */\n  0x00\n    /* \"#utility.yul\":1634:1639   */\n  dup2\n    /* \"#utility.yul\":1623:1639   */\n  swap1\n  pop\n    /* \"#utility.yul\":1568:1645   */\n  swap2\n  swap1\n  pop\n  jump\t// out\n    /* \"#utility.yul\":1651:1711   */\ntag_19:\n    /* \"#utility.yul\":1679:1682   */\n  0x00\n    /* \"#utility.yul\":1700:1705   */\n  dup2\n    /* \"#utility.yul\":1693:1705   */\n  swap1\n  pop\n    /* \"#utility.yul\":1651:1711   */\n  swap2\n  swap1\n  pop\n  jump\t// out\n    /* \"#utility.yul\":1717:1859   */\ntag_20:\n    /* \"#utility.yul\":1767:1776   */\n  0x00\n    /* \"#utility.yul\":1800:1853   */\n  tag_47\n    /* \"#utility.yul\":1818:1852   */\n  tag_48\n    /* \"#utility.yul\":1827:1851   */\n  tag_49\n    /* \"#utility.yul\":1845:1850   */\n  dup5\n    /* \"#utility.yul\":1827:1851   */\n  tag_18\n  jump\t// in\ntag_49:\n    /* \"#utility.yul\":1818:1852   */\n  tag_19\n  jump\t// in\ntag_48:\n    /* \"#utility.yul\":1800:1853   */\n  tag_18\n  jump\t// in\ntag_47:\n    /* \"#utility.yul\":1787:1853   */\n  swap1\n  pop\n    /* \"#utility.yul\":1717:1859   */\n  swap2\n  swap1\n  pop\n  jump\t// out\n    /* \"#utility.yul\":1865:1940   */\ntag_21:\n    /* \"#utility.yul\":1908:1911   */\n  0x00\n    /* \"#utility.yul\":1929:1934   */\n  dup2\n    /* \"#utility.yul\":1922:1934   */\n  swap1\n  pop\n    /* \"#utility.yul\":1865:1940   */\n  swap2\n  swap1\n  pop\n  jump\t// out\n    /* \"#utility.yul\":1946:2215   */\ntag_22:\n    /* \"#utility.yul\":2056:2095   */\n  tag_52\n    /* \"#utility.yul\":2087:2094   */\n  dup4\n    /* \"#utility.yul\":2056:2095   */\n  tag_20\n  jump\t// in\ntag_52:\n    /* \"#utility.yul\":2117:2208   */\n  tag_53\n    /* \"#utility.yul\":2166:2207   */\n  tag_54\n    /* \"#utility.yul\":2190:2206   */\n  dup3\n    /* \"#utility.yul\":2166:2207   */\n  tag_21\n  jump\t// in\ntag_54:\n    /* \"#utility.yul\":2158:2164   */\n  dup5\n    /* \"#utility.yul\":2151:2155   */\n  dup5\n    /* \"#utility.yul\":2145:2156   */\n  sload\n    /* \"#utility.yul\":2117:2208   */\n  tag_17\n  jump\t// in\ntag_53:\n    /* \"#utility.yul\":2111:2115   */\n  dup3\n    /* \"#utility.yul\":2104:2209   */\n  sstore\n    /* \"#utility.yul\":2022:2215   */\n  pop\n    /* \"#utility.yul\":1946:2215   */\n  pop\n  pop\n  pop\n  jump\t// out\n    /* \"#utility.yul\":2221:2294   */\ntag_23:\n    /* \"#utility.yul\":2266:2269   */\n  0x00\n    /* \"#utility.yul\":2221:2294   */\n  swap1\n  jump\t// out\n    /* \"#utility.yul\":2300:2489   */\ntag_24:\n    /* \"#utility.yul\":2377:2409   */\n  tag_57\n  tag_23\n  jump\t// in\ntag_57:\n    /* \"#utility.yul\":2418:2483   */\n  tag_58\n    /* \"#utility.yul\":2476:2482   */\n  dup2\n    /* \"#utility.yul\":2468:2474   */\n  dup5\n    /* \"#utility.yul\":2462:2466   */\n  dup5\n    /* \"#utility.yul\":2418:2483   */\n  tag_22\n  jump\t// in\ntag_58:\n    /* \"#utility.yul\":2353:2489   */\n  pop\n    /* \"#utility.yul\":2300:2489   */\n  pop\n  pop\n  jump\t// out\n    /* \"#utility.yul\":2495:2681   */\ntag_25:\n    /* \"#utility.yul\":2555:2675   */\ntag_60:\n    /* \"#utility.yul\":2572:2575   */\n  dup2\n    /* \"#utility.yul\":2565:2570   */\n  dup2\n    /* \"#utility.yul\":2562:2576   */\n  lt\n    /* \"#utility.yul\":2555:2675   */\n  iszero\n  tag_62\n  jumpi\n    /* \"#utility.yul\":2626:2665   */\n  tag_63\n    /* \"#utility.yul\":2663:2664   */\n  0x00\n    /* \"#utility.yul\":2656:2661   */\n  dup3\n    /* \"#utility.yul\":2626:2665   */\n  tag_24\n  jump\t// in\ntag_63:\n    /* \"#utility.yul\":2599:2600   */\n  0x01\n    /* \"#utility.yul\":2592:2597   */\n  dup2\n    /* \"#utility.yul\":2588:2601   */\n  add\n    /* \"#utility.yul\":2579:2601   */\n  swap1\n  pop\n    /* \"#utility.yul\":2555:2675   */\n  jump(tag_60)\ntag_62:\n    /* \"#utility.yul\":2495:2681   */\n  pop\n  pop\n  jump\t// out\n    /* \"#utility.yul\":2687:3230   */\ntag_26:\n    /* \"#utility.yul\":2788:2790   */\n  0x1f\n    /* \"#utility.yul\":2783:2786   */\n  dup3\n    /* \"#utility.yul\":2780:2791   */\n  gt\n    /* \"#utility.yul\":2777:3223   */\n  iszero\n  tag_65\n  jumpi\n    /* \"#utility.yul\":2822:2860   */\n  tag_66\n    /* \"#utility.yul\":2854:2859   */\n  dup2\n    /* \"#utility.yul\":2822:2860   */\n  tag_14\n  jump\t// in\ntag_66:\n    /* \"#utility.yul\":2906:2935   */\n  tag_67\n    /* \"#utility.yul\":2924:2934   */\n  dup5\n    /* \"#utility.yul\":2906:2935   */\n  tag_15\n  jump\t// in\ntag_67:\n    /* \"#utility.yul\":2896:2904   */\n  dup2\n    /* \"#utility.yul\":2892:2936   */\n  add\n    /* \"#utility.yul\":3089:3091   */\n  0x20\n    /* \"#utility.yul\":3077:3087   */\n  dup6\n    /* \"#utility.yul\":3074:3092   */\n  lt\n    /* \"#utility.yul\":3071:3120   */\n  iszero\n  tag_68\n  jumpi\n    /* \"#utility.yul\":3110:3118   */\n  dup2\n    /* \"#utility.yul\":3095:3118   */\n  swap1\n  pop\n    /* \"#utility.yul\":3071:3120   */\ntag_68:\n    /* \"#utility.yul\":3133:3213   */\n  tag_69\n    /* \"#utility.yul\":3189:3211   */\n  tag_70\n    /* \"#utility.yul\":3207:3210   */\n  dup6\n    /* \"#utility.yul\":3189:3211   */\n  tag_15\n  jump\t// in\ntag_70:\n    /* \"#utility.yul\":3179:3187   */\n  dup4\n    /* \"#utility.yul\":3175:3212   */\n  add\n    /* \"#utility.yul\":3162:3173   */\n  dup3\n    /* \"#utility.yul\":3133:3213   */\n  tag_25\n  jump\t// in\ntag_69:\n    /* \"#utility.yul\":2792:3223   */\n  pop\n  pop\n    /* \"#utility.yul\":2777:3223   */\ntag_65:\n    /* \"#utility.yul\":2687:3230   */\n  pop\n  pop\n  pop\n  jump\t// out\n    /* \"#utility.yul\":3236:3353   */\ntag_27:\n    /* \"#utility.yul\":3290:3298   */\n  0x00\n    /* \"#utility.yul\":3340:3345   */\n  dup3\n    /* \"#utility.yul\":3334:3338   */\n  dup3\n    /* \"#utility.yul\":3330:3346   */\n  shr\n    /* \"#utility.yul\":3309:3346   */\n  swap1\n  pop\n    /* \"#utility.yul\":3236:3353   */\n  swap3\n  swap2\n  pop\n  pop\n  jump\t// out\n    /* \"#utility.yul\":3359:3528   */\ntag_28:\n    /* \"#utility.yul\":3403:3409   */\n  0x00\n    /* \"#utility.yul\":3436:3487   */\n  tag_73\n    /* \"#utility.yul\":3484:3485   */\n  0x00\n    /* \"#utility.yul\":3480:3486   */\n  not\n    /* \"#utility.yul\":3472:3477   */\n  dup5\n    /* \"#utility.yul\":3469:3470   */\n  0x08\n    /* \"#utility.yul\":3465:3478   */\n  mul\n    /* \"#utility.yul\":3436:3487   */\n  tag_27\n  jump\t// in\ntag_73:\n    /* \"#utility.yul\":3432:3488   */\n  not\n    /* \"#utility.yul\":3517:3521   */\n  dup1\n    /* \"#utility.yul\":3511:3515   */\n  dup4\n    /* \"#utility.yul\":3507:3522   */\n  and\n    /* \"#utility.yul\":3497:3522   */\n  swap2\n  pop\n    /* \"#utility.yul\":3410:3528   */\n  pop\n    /* \"#utility.yul\":3359:3528   */\n  swap3\n  swap2\n  pop\n  pop\n  jump\t// out\n    /* \"#utility.yul\":3533:3828   */\ntag_29:\n    /* \"#utility.yul\":3609:3613   */\n  0x00\n    /* \"#utility.yul\":3755:3784   */\n  tag_75\n    /* \"#utility.yul\":3780:3783   */\n  dup4\n    /* \"#utility.yul\":3774:3778   */\n  dup4\n    /* \"#utility.yul\":3755:3784   */\n  tag_28\n  jump\t// in\ntag_75:\n    /* \"#utility.yul\":3747:3784   */\n  swap2\n  pop\n    /* \"#utility.yul\":3817:3820   */\n  dup3\n    /* \"#utility.yul\":3814:3815   */\n  0x02\n    /* \"#utility.yul\":3810:3821   */\n  mul\n    /* \"#utility.yul\":3804:3808   */\n  dup3\n    /* \"#utility.yul\":3801:3822   */\n  or\n    /* \"#utility.yul\":3793:3822   */\n  swap1\n  pop\n    /* \"#utility.yul\":3533:3828   */\n  swap3\n  swap2\n  pop\n  pop\n  jump\t// out\n    /* \"#utility.yul\":3833:5228   */\ntag_6:\n    /* \"#utility.yul\":3950:3987   */\n  tag_77\n    /* \"#utility.yul\":3983:3986   */\n  dup3\n    /* \"#utility.yul\":3950:3987   */\n  tag_10\n  jump\t// in\ntag_77:\n    /* \"#utility.yul\":4052:4070   */\n  0xffffffffffffffff\n    /* \"#utility.yul\":4044:4050   */\n  dup2\n    /* \"#utility.yul\":4041:4071   */\n  gt\n    /* \"#utility.yul\":4038:4094   */\n  iszero\n  tag_78\n  jumpi\n    /* \"#utility.yul\":4074:4092   */\n  tag_79\n  tag_11\n  jump\t// in\ntag_79:\n    /* \"#utility.yul\":4038:4094   */\ntag_78:\n    /* \"#utility.yul\":4118:4156   */\n  tag_80\n    /* \"#utility.yul\":4150:4154   */\n  dup3\n    /* \"#utility.yul\":4144:4155   */\n  sload\n    /* \"#utility.yul\":4118:4156   */\n  tag_13\n  jump\t// in\ntag_80:\n    /* \"#utility.yul\":4203:4270   */\n  tag_81\n    /* \"#utility.yul\":4263:4269   */\n  dup3\n    /* \"#utility.yul\":4255:4261   */\n  dup3\n    /* \"#utility.yul\":4249:4253   */\n  dup6\n    /* \"#utility.yul\":4203:4270   */\n  tag_26\n  jump\t// in\ntag_81:\n    /* \"#utility.yul\":4297:4298   */\n  0x00\n    /* \"#utility.yul\":4321:4325   */\n  0x20\n    /* \"#utility.yul\":4308:4325   */\n  swap1\n  pop\n    /* \"#utility.yul\":4353:4355   */\n  0x1f\n    /* \"#utility.yul\":4345:4351   */\n  dup4\n    /* \"#utility.yul\":4342:4356   */\n  gt\n    /* \"#utility.yul\":4370:4371   */\n  0x01\n    /* \"#utility.yul\":4365:4983   */\n  dup2\n  eq\n  tag_83\n  jumpi\n    /* \"#utility.yul\":5027:5028   */\n  0x00\n    /* \"#utility.yul\":5044:5050   */\n  dup5\n    /* \"#utility.yul\":5041:5118   */\n  iszero\n  tag_84\n  jumpi\n    /* \"#utility.yul\":5093:5102   */\n  dup3\n    /* \"#utility.yul\":5088:5091   */\n  dup8\n    /* \"#utility.yul\":5084:5103   */\n  add\n    /* \"#utility.yul\":5078:5104   */\n  mload\n    /* \"#utility.yul\":5069:5104   */\n  swap1\n  pop\n    /* \"#utility.yul\":5041:5118   */\ntag_84:\n    /* \"#utility.yul\":5144:5211   */\n  tag_85\n    /* \"#utility.yul\":5204:5210   */\n  dup6\n    /* \"#utility.yul\":5197:5202   */\n  dup3\n    /* \"#utility.yul\":5144:5211   */\n  tag_29\n  jump\t// in\ntag_85:\n    /* \"#utility.yul\":5138:5142   */\n  dup7\n    /* \"#utility.yul\":5131:5212   */\n  sstore\n    /* \"#utility.yul\":5000:5222   */\n  pop\n    /* \"#utility.yul\":4335:5222   */\n  jump(tag_82)\n    /* \"#utility.yul\":4365:4983   */\ntag_83:\n    /* \"#utility.yul\":4417:4421   */\n  0x1f\n    /* \"#utility.yul\":4413:4422   */\n  not\n    /* \"#utility.yul\":4405:4411   */\n  dup5\n    /* \"#utility.yul\":4401:4423   */\n  and\n    /* \"#utility.yul\":4451:4488   */\n  tag_86\n    /* \"#utility.yul\":4483:4487   */\n  dup7\n    /* \"#utility.yul\":4451:4488   */\n  tag_14\n  jump\t// in\ntag_86:\n    /* \"#utility.yul\":4510:4511   */\n  0x00\n    /* \"#utility.yul\":4524:4732   */\ntag_87:\n    /* \"#utility.yul\":4538:4545   */\n  dup3\n    /* \"#utility.yul\":4535:4536   */\n  dup2\n    /* \"#utility.yul\":4532:4546   */\n  lt\n    /* \"#utility.yul\":4524:4732   */\n  iszero\n  tag_89\n  jumpi\n    /* \"#utility.yul\":4617:4626   */\n  dup5\n    /* \"#utility.yul\":4612:4615   */\n  dup10\n    /* \"#utility.yul\":4608:4627   */\n  add\n    /* \"#utility.yul\":4602:4628   */\n  mload\n    /* \"#utility.yul\":4594:4600   */\n  dup3\n    /* \"#utility.yul\":4587:4629   */\n  sstore\n    /* \"#utility.yul\":4668:4669   */\n  0x01\n    /* \"#utility.yul\":4660:4666   */\n  dup3\n    /* \"#utility.yul\":4656:4670   */\n  add\n    /* \"#utility.yul\":4646:4670   */\n  swap2\n  pop\n    /* \"#utility.yul\":4715:4717   */\n  0x20\n    /* \"#utility.yul\":4704:4713   */\n  dup6\n    /* \"#utility.yul\":4700:4718   */\n  add\n    /* \"#utility.yul\":4687:4718   */\n  swap5\n  pop\n    /* \"#utility.yul\":4561:4565   */\n  0x20\n    /* \"#utility.yul\":4558:4559   */\n  dup2\n    /* \"#utility.yul\":4554:4566   */\n  add\n    /* \"#utility.yul\":4549:4566   */\n  swap1\n  pop\n    /* \"#utility.yul\":4524:4732   */\n  jump(tag_87)\ntag_89:\n    /* \"#utility.yul\":4760:4766   */\n  dup7\n    /* \"#utility.yul\":4751:4758   */\n  dup4\n    /* \"#utility.yul\":4748:4767   */\n  lt\n    /* \"#utility.yul\":4745:4924   */\n  iszero\n  tag_90\n  jumpi\n    /* \"#utility.yul\":4818:4827   */\n  dup5\n    /* \"#utility.yul\":4813:4816   */\n  dup10\n    /* \"#utility.yul\":4809:4828   */\n  add\n    /* \"#utility.yul\":4803:4829   */\n  mload\n    /* \"#utility.yul\":4861:4909   */\n  tag_91\n    /* \"#utility.yul\":4903:4907   */\n  0x1f\n    /* \"#utility.yul\":4895:4901   */\n  dup10\n    /* \"#utility.yul\":4891:4908   */\n  and\n    /* \"#utility.yul\":4880:4889   */\n  dup3\n    /* \"#utility.yul\":4861:4909   */\n  tag_28\n  jump\t// in\ntag_91:\n    /* \"#utility.yul\":4853:4859   */\n  dup4\n    /* \"#utility.yul\":4846:4910   */\n  sstore\n    /* \"#utility.yul\":4768:4924   */\n  pop\n    /* \"#utility.yul\":4745:4924   */\ntag_90:\n    /* \"#utility.yul\":4970:4971   */\n  0x01\n    /* \"#utility.yul\":4966:4967   */\n  0x02\n    /* \"#utility.yul\":4958:4964   */\n  dup9\n    /* \"#utility.yul\":4954:4968   */\n  mul\n    /* \"#utility.yul\":4950:4972   */\n  add\n    /* \"#utility.yul\":4944:4948   */\n  dup9\n    /* \"#utility.yul\":4937:4973   */\n  sstore\n    /* \"#utility.yul\":4372:4983   */\n  pop\n  pop\n  pop\n    /* \"#utility.yul\":4335:5222   */\ntag_82:\n  pop\n    /* \"#utility.yul\":3925:5228   */\n  pop\n  pop\n  pop\n    /* \"#utility.yul\":3833:5228   */\n  pop\n  pop\n  jump\t// out\n    /* \"contracts/12-tokens-ERC20/ERC20/customERC20.sol\":80:302  contract customERC20 is ERC20 {... */\ntag_9:\n  dataSize(sub_0)\n  dup1\n  dataOffset(sub_0)\n  0x00\n  codecopy\n  0x00\n  return\nstop\n\nsub_0: assembly {\n        /* \"contracts/12-tokens-ERC20/ERC20/customERC20.sol\":80:302  contract customERC20 is ERC20 {... */\n      mstore(0x40, 0x80)\n      callvalue\n      dup1\n      iszero\n      tag_1\n      jumpi\n      0x00\n      dup1\n      revert\n    tag_1:\n      pop\n      jumpi(tag_2, lt(calldatasize, 0x04))\n      shr(0xe0, calldataload(0x00))\n      dup1\n      0x467bc5c0\n      gt\n      tag_15\n      jumpi\n      dup1\n      0x467bc5c0\n      eq\n      tag_9\n      jumpi\n      dup1\n      0x70a08231\n      eq\n      tag_10\n      jumpi\n      dup1\n      0x95d89b41\n      eq\n      tag_11\n      jumpi\n      dup1\n      0xa457c2d7\n      eq\n      tag_12\n      jumpi\n      dup1\n      0xa9059cbb\n      eq\n      tag_13\n      jumpi\n      dup1\n      0xdd62ed3e\n      eq\n      tag_14\n      jumpi\n      jump(tag_2)\n    tag_15:\n      dup1\n      0x06fdde03\n      eq\n      tag_3\n      jumpi\n      dup1\n      0x095ea7b3\n      eq\n      tag_4\n      jumpi\n      dup1\n      0x18160ddd\n      eq\n      tag_5\n      jumpi\n      dup1\n      0x23b872dd\n      eq\n      tag_6\n      jumpi\n      dup1\n      0x313ce567\n      eq\n      tag_7\n      jumpi\n      dup1\n      0x39509351\n      eq\n      tag_8\n      jumpi\n    tag_2:\n      0x00\n      dup1\n      revert\n        /* \"contracts/12-tokens-ERC20/ERC20/ERC20.sol\":2806:2895  function name() public view virtual returns (string memory) {... */\n    tag_3:\n      tag_16\n      tag_17\n      jump\t// in\n    tag_16:\n      mload(0x40)\n      tag_18\n      swap2\n      swap1\n      tag_19\n      jump\t// in\n    tag_18:\n      mload(0x40)\n      dup1\n      swap2\n      sub\n      swap1\n      return\n        /* \"contracts/12-tokens-ERC20/ERC20/ERC20.sol\":4531:4726  function approve(address spender, uint256 amount) public virtual override returns (bool) {... */\n    tag_4:\n      tag_20\n      0x04\n      dup1\n      calldatasize\n      sub\n      dup2\n      add\n      swap1\n      tag_21\n      swap2\n      swap1\n      tag_22\n      jump\t// in\n    tag_21:\n      tag_23\n      jump\t// in\n    tag_20:\n      mload(0x40)\n      tag_24\n      swap2\n      swap1\n      tag_25\n      jump\t// in\n    tag_24:\n      mload(0x40)\n      dup1\n      swap2\n      sub\n      swap1\n      return\n        /* \"contracts/12-tokens-ERC20/ERC20/ERC20.sol\":3614:3720  function totalSupply() public view virtual override returns (uint256) {... */\n    tag_5:\n      tag_26\n      tag_27\n      jump\t// in\n    tag_26:\n      mload(0x40)\n      tag_28\n      swap2\n      swap1\n      tag_29\n      jump\t// in\n    tag_28:\n      mload(0x40)\n      dup1\n      swap2\n      sub\n      swap1\n      return\n        /* \"contracts/12-tokens-ERC20/ERC20/ERC20.sol\":5102:5386  function transferFrom(... */\n    tag_6:\n      tag_30\n      0x04\n      dup1\n      calldatasize\n      sub\n      dup2\n      add\n      swap1\n      tag_31\n      swap2\n      swap1\n      tag_32\n      jump\t// in\n    tag_31:\n      tag_33\n      jump\t// in\n    tag_30:\n      mload(0x40)\n      tag_34\n      swap2\n      swap1\n      tag_25\n      jump\t// in\n    tag_34:\n      mload(0x40)\n      dup1\n      swap2\n      sub\n      swap1\n      return\n        /* \"contracts/12-tokens-ERC20/ERC20/ERC20.sol\":3492:3574  function decimals() public view virtual returns (uint8) {... */\n    tag_7:\n      tag_35\n      tag_36\n      jump\t// in\n    tag_35:\n      mload(0x40)\n      tag_37\n      swap2\n      swap1\n      tag_38\n      jump\t// in\n    tag_37:\n      mload(0x40)\n      dup1\n      swap2\n      sub\n      swap1\n      return\n        /* \"contracts/12-tokens-ERC20/ERC20/ERC20.sol\":5621:5855  function increaseAllowance(address spender, uint256 addedValue) public virtual returns (bool) {... */\n    tag_8:\n      tag_39\n      0x04\n      dup1\n      calldatasize\n      sub\n      dup2\n      add\n      swap1\n      tag_40\n      swap2\n      swap1\n      tag_22\n      jump\t// in\n    tag_40:\n      tag_41\n      jump\t// in\n    tag_39:\n      mload(0x40)\n      tag_42\n      swap2\n      swap1\n      tag_25\n      jump\t// in\n    tag_42:\n      mload(0x40)\n      dup1\n      swap2\n      sub\n      swap1\n      return\n        /* \"contracts/12-tokens-ERC20/ERC20/customERC20.sol\":230:300  function crearTokens() public {... */\n    tag_9:\n      tag_43\n      tag_44\n      jump\t// in\n    tag_43:\n      stop\n        /* \"contracts/12-tokens-ERC20/ERC20/ERC20.sol\":3758:3883  function balanceOf(address account) public view virtual override returns (uint256) {... */\n    tag_10:\n      tag_45\n      0x04\n      dup1\n      calldatasize\n      sub\n      dup2\n      add\n      swap1\n      tag_46\n      swap2\n      swap1\n      tag_47\n      jump\t// in\n    tag_46:\n      tag_48\n      jump\t// in\n    tag_45:\n      mload(0x40)\n      tag_49\n      swap2\n      swap1\n      tag_29\n      jump\t// in\n    tag_49:\n      mload(0x40)\n      dup1\n      swap2\n      sub\n      swap1\n      return\n        /* \"contracts/12-tokens-ERC20/ERC20/ERC20.sol\":2985:3078  function symbol() public view virtual returns (string memory) {... */\n    tag_11:\n      tag_50\n      tag_51\n      jump\t// in\n    tag_50:\n      mload(0x40)\n      tag_52\n      swap2\n      swap1\n      tag_19\n      jump\t// in\n    tag_52:\n      mload(0x40)\n      dup1\n      swap2\n      sub\n      swap1\n      return\n        /* \"contracts/12-tokens-ERC20/ERC20/ERC20.sol\":6192:6618  function decreaseAllowance(address spender, uint256 subtractedValue) public virtual returns (bool) {... */\n    tag_12:\n      tag_53\n      0x04\n      dup1\n      calldatasize\n      sub\n      dup2\n      add\n      swap1\n      tag_54\n      swap2\n      swap1\n      tag_22\n      jump\t// in\n    tag_54:\n      tag_55\n      jump\t// in\n    tag_53:\n      mload(0x40)\n      tag_56\n      swap2\n      swap1\n      tag_25\n      jump\t// in\n    tag_56:\n      mload(0x40)\n      dup1\n      swap2\n      sub\n      swap1\n      return\n        /* \"contracts/12-tokens-ERC20/ERC20/ERC20.sol\":4053:4240  function transfer(address to, uint256 amount) public virtual override returns (bool) {... */\n    tag_13:\n      tag_57\n      0x04\n      dup1\n      calldatasize\n      sub\n      dup2\n      add\n      swap1\n      tag_58\n      swap2\n      swap1\n      tag_22\n      jump\t// in\n    tag_58:\n      tag_59\n      jump\t// in\n    tag_57:\n      mload(0x40)\n      tag_60\n      swap2\n      swap1\n      tag_25\n      jump\t// in\n    tag_60:\n      mload(0x40)\n      dup1\n      swap2\n      sub\n      swap1\n      return\n        /* \"contracts/12-tokens-ERC20/ERC20/ERC20.sol\":4278:4427  function allowance(address owner, address spender) public view virtual override returns (uint256) {... */\n    tag_14:\n      tag_61\n      0x04\n      dup1\n      calldatasize\n      sub\n      dup2\n      add\n      swap1\n      tag_62\n      swap2\n      swap1\n      tag_63\n      jump\t// in\n    tag_62:\n      tag_64\n      jump\t// in\n    tag_61:\n      mload(0x40)\n      tag_65\n      swap2\n      swap1\n      tag_29\n      jump\t// in\n    tag_65:\n      mload(0x40)\n      dup1\n      swap2\n      sub\n      swap1\n      return\n        /* \"contracts/12-tokens-ERC20/ERC20/ERC20.sol\":2806:2895  function name() public view virtual returns (string memory) {... */\n    tag_17:\n        /* \"contracts/12-tokens-ERC20/ERC20/ERC20.sol\":2851:2864  string memory */\n      0x60\n        /* \"contracts/12-tokens-ERC20/ERC20/ERC20.sol\":2883:2888  _name */\n      0x03\n        /* \"contracts/12-tokens-ERC20/ERC20/ERC20.sol\":2876:2888  return _name */\n      dup1\n      sload\n      tag_67\n      swap1\n      tag_68\n      jump\t// in\n    tag_67:\n      dup1\n      0x1f\n      add\n      0x20\n      dup1\n      swap2\n      div\n      mul\n      0x20\n      add\n      mload(0x40)\n      swap1\n      dup2\n      add\n      0x40\n      mstore\n      dup1\n      swap3\n      swap2\n      swap1\n      dup2\n      dup2\n      mstore\n      0x20\n      add\n      dup3\n      dup1\n      sload\n      tag_69\n      swap1\n      tag_68\n      jump\t// in\n    tag_69:\n      dup1\n      iszero\n      tag_70\n      jumpi\n      dup1\n      0x1f\n      lt\n      tag_71\n      jumpi\n      0x0100\n      dup1\n      dup4\n      sload\n      div\n      mul\n      dup4\n      mstore\n      swap2\n      0x20\n      add\n      swap2\n      jump(tag_70)\n    tag_71:\n      dup3\n      add\n      swap2\n      swap1\n      0x00\n      mstore\n      keccak256(0x00, 0x20)\n      swap1\n    tag_72:\n      dup2\n      sload\n      dup2\n      mstore\n      swap1\n      0x01\n      add\n      swap1\n      0x20\n      add\n      dup1\n      dup4\n      gt\n      tag_72\n      jumpi\n      dup3\n      swap1\n      sub\n      0x1f\n      and\n      dup3\n      add\n      swap2\n    tag_70:\n      pop\n      pop\n      pop\n      pop\n      pop\n      swap1\n      pop\n        /* \"contracts/12-tokens-ERC20/ERC20/ERC20.sol\":2806:2895  function name() public view virtual returns (string memory) {... */\n      swap1\n      jump\t// out\n        /* \"contracts/12-tokens-ERC20/ERC20/ERC20.sol\":4531:4726  function approve(address spender, uint256 amount) public virtual override returns (bool) {... */\n    tag_23:\n        /* \"contracts/12-tokens-ERC20/ERC20/ERC20.sol\":4614:4618  bool */\n      0x00\n        /* \"contracts/12-tokens-ERC20/ERC20/ERC20.sol\":4630:4643  address owner */\n      dup1\n        /* \"contracts/12-tokens-ERC20/ERC20/ERC20.sol\":4646:4656  msg.sender */\n      caller\n        /* \"contracts/12-tokens-ERC20/ERC20/ERC20.sol\":4630:4656  address owner = msg.sender */\n      swap1\n      pop\n        /* \"contracts/12-tokens-ERC20/ERC20/ERC20.sol\":4666:4698  _approve(owner, spender, amount) */\n      tag_74\n        /* \"contracts/12-tokens-ERC20/ERC20/ERC20.sol\":4675:4680  owner */\n      dup2\n        /* \"contracts/12-tokens-ERC20/ERC20/ERC20.sol\":4682:4689  spender */\n      dup6\n        /* \"contracts/12-tokens-ERC20/ERC20/ERC20.sol\":4691:4697  amount */\n      dup6\n        /* \"contracts/12-tokens-ERC20/ERC20/ERC20.sol\":4666:4674  _approve */\n      tag_75\n        /* \"contracts/12-tokens-ERC20/ERC20/ERC20.sol\":4666:4698  _approve(owner, spender, amount) */\n      jump\t// in\n    tag_74:\n        /* \"contracts/12-tokens-ERC20/ERC20/ERC20.sol\":4715:4719  true */\n      0x01\n        /* \"contracts/12-tokens-ERC20/ERC20/ERC20.sol\":4708:4719  return true */\n      swap2\n      pop\n      pop\n        /* \"contracts/12-tokens-ERC20/ERC20/ERC20.sol\":4531:4726  function approve(address spender, uint256 amount) public virtual override returns (bool) {... */\n      swap3\n      swap2\n      pop\n      pop\n      jump\t// out\n        /* \"contracts/12-tokens-ERC20/ERC20/ERC20.sol\":3614:3720  function totalSupply() public view virtual override returns (uint256) {... */\n    tag_27:\n        /* \"contracts/12-tokens-ERC20/ERC20/ERC20.sol\":3675:3682  uint256 */\n      0x00\n        /* \"contracts/12-tokens-ERC20/ERC20/ERC20.sol\":3701:3713  _totalSupply */\n      sload(0x02)\n        /* \"contracts/12-tokens-ERC20/ERC20/ERC20.sol\":3694:3713  return _totalSupply */\n      swap1\n      pop\n        /* \"contracts/12-tokens-ERC20/ERC20/ERC20.sol\":3614:3720  function totalSupply() public view virtual override returns (uint256) {... */\n      swap1\n      jump\t// out\n        /* \"contracts/12-tokens-ERC20/ERC20/ERC20.sol\":5102:5386  function transferFrom(... */\n    tag_33:\n        /* \"contracts/12-tokens-ERC20/ERC20/ERC20.sol\":5229:5233  bool */\n      0x00\n        /* \"contracts/12-tokens-ERC20/ERC20/ERC20.sol\":5245:5260  address spender */\n      dup1\n        /* \"contracts/12-tokens-ERC20/ERC20/ERC20.sol\":5263:5273  msg.sender */\n      caller\n        /* \"contracts/12-tokens-ERC20/ERC20/ERC20.sol\":5245:5273  address spender = msg.sender */\n      swap1\n      pop\n        /* \"contracts/12-tokens-ERC20/ERC20/ERC20.sol\":5283:5321  _spendAllowance(from, spender, amount) */\n      tag_78\n        /* \"contracts/12-tokens-ERC20/ERC20/ERC20.sol\":5299:5303  from */\n      dup6\n        /* \"contracts/12-tokens-ERC20/ERC20/ERC20.sol\":5305:5312  spender */\n      dup3\n        /* \"contracts/12-tokens-ERC20/ERC20/ERC20.sol\":5314:5320  amount */\n      dup6\n        /* \"contracts/12-tokens-ERC20/ERC20/ERC20.sol\":5283:5298  _spendAllowance */\n      tag_79\n        /* \"contracts/12-tokens-ERC20/ERC20/ERC20.sol\":5283:5321  _spendAllowance(from, spender, amount) */\n      jump\t// in\n    tag_78:\n        /* \"contracts/12-tokens-ERC20/ERC20/ERC20.sol\":5331:5358  _transfer(from, to, amount) */\n      tag_80\n        /* \"contracts/12-tokens-ERC20/ERC20/ERC20.sol\":5341:5345  from */\n      dup6\n        /* \"contracts/12-tokens-ERC20/ERC20/ERC20.sol\":5347:5349  to */\n      dup6\n        /* \"contracts/12-tokens-ERC20/ERC20/ERC20.sol\":5351:5357  amount */\n      dup6\n        /* \"contracts/12-tokens-ERC20/ERC20/ERC20.sol\":5331:5340  _transfer */\n      tag_81\n        /* \"contracts/12-tokens-ERC20/ERC20/ERC20.sol\":5331:5358  _transfer(from, to, amount) */\n      jump\t// in\n    tag_80:\n        /* \"contracts/12-tokens-ERC20/ERC20/ERC20.sol\":5375:5379  true */\n      0x01\n        /* \"contracts/12-tokens-ERC20/ERC20/ERC20.sol\":5368:5379  return true */\n      swap2\n      pop\n      pop\n        /* \"contracts/12-tokens-ERC20/ERC20/ERC20.sol\":5102:5386  function transferFrom(... */\n      swap4\n      swap3\n      pop\n      pop\n      pop\n      jump\t// out\n        /* \"contracts/12-tokens-ERC20/ERC20/ERC20.sol\":3492:3574  function decimals() public view virtual returns (uint8) {... */\n    tag_36:\n        /* \"contracts/12-tokens-ERC20/ERC20/ERC20.sol\":3541:3546  uint8 */\n      0x00\n        /* \"contracts/12-tokens-ERC20/ERC20/ERC20.sol\":3565:3567  18 */\n      0x12\n        /* \"contracts/12-tokens-ERC20/ERC20/ERC20.sol\":3558:3567  return 18 */\n      swap1\n      pop\n        /* \"contracts/12-tokens-ERC20/ERC20/ERC20.sol\":3492:3574  function decimals() public view virtual returns (uint8) {... */\n      swap1\n      jump\t// out\n        /* \"contracts/12-tokens-ERC20/ERC20/ERC20.sol\":5621:5855  function increaseAllowance(address spender, uint256 addedValue) public virtual returns (bool) {... */\n    tag_41:\n        /* \"contracts/12-tokens-ERC20/ERC20/ERC20.sol\":5709:5713  bool */\n      0x00\n        /* \"contracts/12-tokens-ERC20/ERC20/ERC20.sol\":5725:5738  address owner */\n      dup1\n        /* \"contracts/12-tokens-ERC20/ERC20/ERC20.sol\":5741:5751  msg.sender */\n      caller\n        /* \"contracts/12-tokens-ERC20/ERC20/ERC20.sol\":5725:5751  address owner = msg.sender */\n      swap1\n      pop\n        /* \"contracts/12-tokens-ERC20/ERC20/ERC20.sol\":5761:5827  _approve(owner, spender, _allowances[owner][spender] + addedValue) */\n      tag_84\n        /* \"contracts/12-tokens-ERC20/ERC20/ERC20.sol\":5770:5775  owner */\n      dup2\n        /* \"contracts/12-tokens-ERC20/ERC20/ERC20.sol\":5777:5784  spender */\n      dup6\n        /* \"contracts/12-tokens-ERC20/ERC20/ERC20.sol\":5816:5826  addedValue */\n      dup6\n        /* \"contracts/12-tokens-ERC20/ERC20/ERC20.sol\":5786:5797  _allowances */\n      0x01\n        /* \"contracts/12-tokens-ERC20/ERC20/ERC20.sol\":5786:5804  _allowances[owner] */\n      0x00\n        /* \"contracts/12-tokens-ERC20/ERC20/ERC20.sol\":5798:5803  owner */\n      dup7\n        /* \"contracts/12-tokens-ERC20/ERC20/ERC20.sol\":5786:5804  _allowances[owner] */\n      0xffffffffffffffffffffffffffffffffffffffff\n      and\n      0xffffffffffffffffffffffffffffffffffffffff\n      and\n      dup2\n      mstore\n      0x20\n      add\n      swap1\n      dup2\n      mstore\n      0x20\n      add\n      0x00\n      keccak256\n        /* \"contracts/12-tokens-ERC20/ERC20/ERC20.sol\":5786:5813  _allowances[owner][spender] */\n      0x00\n        /* \"contracts/12-tokens-ERC20/ERC20/ERC20.sol\":5805:5812  spender */\n      dup10\n        /* \"contracts/12-tokens-ERC20/ERC20/ERC20.sol\":5786:5813  _allowances[owner][spender] */\n      0xffffffffffffffffffffffffffffffffffffffff\n      and\n      0xffffffffffffffffffffffffffffffffffffffff\n      and\n      dup2\n      mstore\n      0x20\n      add\n      swap1\n      dup2\n      mstore\n      0x20\n      add\n      0x00\n      keccak256\n      sload\n        /* \"contracts/12-tokens-ERC20/ERC20/ERC20.sol\":5786:5826  _allowances[owner][spender] + addedValue */\n      tag_85\n      swap2\n      swap1\n      tag_86\n      jump\t// in\n    tag_85:\n        /* \"contracts/12-tokens-ERC20/ERC20/ERC20.sol\":5761:5769  _approve */\n      tag_75\n        /* \"contracts/12-tokens-ERC20/ERC20/ERC20.sol\":5761:5827  _approve(owner, spender, _allowances[owner][spender] + addedValue) */\n      jump\t// in\n    tag_84:\n        /* \"contracts/12-tokens-ERC20/ERC20/ERC20.sol\":5844:5848  true */\n      0x01\n        /* \"contracts/12-tokens-ERC20/ERC20/ERC20.sol\":5837:5848  return true */\n      swap2\n      pop\n      pop\n        /* \"contracts/12-tokens-ERC20/ERC20/ERC20.sol\":5621:5855  function increaseAllowance(address spender, uint256 addedValue) public virtual returns (bool) {... */\n      swap3\n      swap2\n      pop\n      pop\n      jump\t// out\n        /* \"contracts/12-tokens-ERC20/ERC20/customERC20.sol\":230:300  function crearTokens() public {... */\n    tag_44:\n        /* \"contracts/12-tokens-ERC20/ERC20/customERC20.sol\":270:293  _mint(msg.sender, 1000) */\n      tag_88\n        /* \"contracts/12-tokens-ERC20/ERC20/customERC20.sol\":276:286  msg.sender */\n      caller\n        /* \"contracts/12-tokens-ERC20/ERC20/customERC20.sol\":288:292  1000 */\n      0x03e8\n        /* \"contracts/12-tokens-ERC20/ERC20/customERC20.sol\":270:275  _mint */\n      tag_89\n        /* \"contracts/12-tokens-ERC20/ERC20/customERC20.sol\":270:293  _mint(msg.sender, 1000) */\n      jump\t// in\n    tag_88:\n        /* \"contracts/12-tokens-ERC20/ERC20/customERC20.sol\":230:300  function crearTokens() public {... */\n      jump\t// out\n        /* \"contracts/12-tokens-ERC20/ERC20/ERC20.sol\":3758:3883  function balanceOf(address account) public view virtual override returns (uint256) {... */\n    tag_48:\n        /* \"contracts/12-tokens-ERC20/ERC20/ERC20.sol\":3832:3839  uint256 */\n      0x00\n        /* \"contracts/12-tokens-ERC20/ERC20/ERC20.sol\":3858:3867  _balances */\n      dup1\n        /* \"contracts/12-tokens-ERC20/ERC20/ERC20.sol\":3858:3876  _balances[account] */\n      0x00\n        /* \"contracts/12-tokens-ERC20/ERC20/ERC20.sol\":3868:3875  account */\n      dup4\n        /* \"contracts/12-tokens-ERC20/ERC20/ERC20.sol\":3858:3876  _balances[account] */\n      0xffffffffffffffffffffffffffffffffffffffff\n      and\n      0xffffffffffffffffffffffffffffffffffffffff\n      and\n      dup2\n      mstore\n      0x20\n      add\n      swap1\n      dup2\n      mstore\n      0x20\n      add\n      0x00\n      keccak256\n      sload\n        /* \"contracts/12-tokens-ERC20/ERC20/ERC20.sol\":3851:3876  return _balances[account] */\n      swap1\n      pop\n        /* \"contracts/12-tokens-ERC20/ERC20/ERC20.sol\":3758:3883  function balanceOf(address account) public view virtual override returns (uint256) {... */\n      swap2\n      swap1\n      pop\n      jump\t// out\n        /* \"contracts/12-tokens-ERC20/ERC20/ERC20.sol\":2985:3078  function symbol() public view virtual returns (string memory) {... */\n    tag_51:\n        /* \"contracts/12-tokens-ERC20/ERC20/ERC20.sol\":3032:3045  string memory */\n      0x60\n        /* \"contracts/12-tokens-ERC20/ERC20/ERC20.sol\":3064:3071  _symbol */\n      0x04\n        /* \"contracts/12-tokens-ERC20/ERC20/ERC20.sol\":3057:3071  return _symbol */\n      dup1\n      sload\n      tag_92\n      swap1\n      tag_68\n      jump\t// in\n    tag_92:\n      dup1\n      0x1f\n      add\n      0x20\n      dup1\n      swap2\n      div\n      mul\n      0x20\n      add\n      mload(0x40)\n      swap1\n      dup2\n      add\n      0x40\n      mstore\n      dup1\n      swap3\n      swap2\n      swap1\n      dup2\n      dup2\n      mstore\n      0x20\n      add\n      dup3\n      dup1\n      sload\n      tag_93\n      swap1\n      tag_68\n      jump\t// in\n    tag_93:\n      dup1\n      iszero\n      tag_94\n      jumpi\n      dup1\n      0x1f\n      lt\n      tag_95\n      jumpi\n      0x0100\n      dup1\n      dup4\n      sload\n      div\n      mul\n      dup4\n      mstore\n      swap2\n      0x20\n      add\n      swap2\n      jump(tag_94)\n    tag_95:\n      dup3\n      add\n      swap2\n      swap1\n      0x00\n      mstore\n      keccak256(0x00, 0x20)\n      swap1\n    tag_96:\n      dup2\n      sload\n      dup2\n      mstore\n      swap1\n      0x01\n      add\n      swap1\n      0x20\n      add\n      dup1\n      dup4\n      gt\n      tag_96\n      jumpi\n      dup3\n      swap1\n      sub\n      0x1f\n      and\n      dup3\n      add\n      swap2\n    tag_94:\n      pop\n      pop\n      pop\n      pop\n      pop\n      swap1\n      pop\n        /* \"contracts/12-tokens-ERC20/ERC20/ERC20.sol\":2985:3078  function symbol() public view virtual returns (string memory) {... */\n      swap1\n      jump\t// out\n        /* \"contracts/12-tokens-ERC20/ERC20/ERC20.sol\":6192:6618  function decreaseAllowance(address spender, uint256 subtractedValue) public virtual returns (bool) {... */\n    tag_55:\n        /* \"contracts/12-tokens-ERC20/ERC20/ERC20.sol\":6285:6289  bool */\n      0x00\n        /* \"contracts/12-tokens-ERC20/ERC20/ERC20.sol\":6301:6314  address owner */\n      dup1\n        /* \"contracts/12-tokens-ERC20/ERC20/ERC20.sol\":6317:6327  msg.sender */\n      caller\n        /* \"contracts/12-tokens-ERC20/ERC20/ERC20.sol\":6301:6327  address owner = msg.sender */\n      swap1\n      pop\n        /* \"contracts/12-tokens-ERC20/ERC20/ERC20.sol\":6337:6361  uint256 currentAllowance */\n      0x00\n        /* \"contracts/12-tokens-ERC20/ERC20/ERC20.sol\":6364:6375  _allowances */\n      0x01\n        /* \"contracts/12-tokens-ERC20/ERC20/ERC20.sol\":6364:6382  _allowances[owner] */\n      0x00\n        /* \"contracts/12-tokens-ERC20/ERC20/ERC20.sol\":6376:6381  owner */\n      dup4\n        /* \"contracts/12-tokens-ERC20/ERC20/ERC20.sol\":6364:6382  _allowances[owner] */\n      0xffffffffffffffffffffffffffffffffffffffff\n      and\n      0xffffffffffffffffffffffffffffffffffffffff\n      and\n      dup2\n      mstore\n      0x20\n      add\n      swap1\n      dup2\n      mstore\n      0x20\n      add\n      0x00\n      keccak256\n        /* \"contracts/12-tokens-ERC20/ERC20/ERC20.sol\":6364:6391  _allowances[owner][spender] */\n      0x00\n        /* \"contracts/12-tokens-ERC20/ERC20/ERC20.sol\":6383:6390  spender */\n      dup7\n        /* \"contracts/12-tokens-ERC20/ERC20/ERC20.sol\":6364:6391  _allowances[owner][spender] */\n      0xffffffffffffffffffffffffffffffffffffffff\n      and\n      0xffffffffffffffffffffffffffffffffffffffff\n      and\n      dup2\n      mstore\n      0x20\n      add\n      swap1\n      dup2\n      mstore\n      0x20\n      add\n      0x00\n      keccak256\n      sload\n        /* \"contracts/12-tokens-ERC20/ERC20/ERC20.sol\":6337:6391  uint256 currentAllowance = _allowances[owner][spender] */\n      swap1\n      pop\n        /* \"contracts/12-tokens-ERC20/ERC20/ERC20.sol\":6429:6444  subtractedValue */\n      dup4\n        /* \"contracts/12-tokens-ERC20/ERC20/ERC20.sol\":6409:6425  currentAllowance */\n      dup2\n        /* \"contracts/12-tokens-ERC20/ERC20/ERC20.sol\":6409:6444  currentAllowance >= subtractedValue */\n      lt\n      iszero\n        /* \"contracts/12-tokens-ERC20/ERC20/ERC20.sol\":6401:6486  require(currentAllowance >= subtractedValue, \"ERC20: decreased allowance below zero\") */\n      tag_98\n      jumpi\n      mload(0x40)\n      0x08c379a000000000000000000000000000000000000000000000000000000000\n      dup2\n      mstore\n      0x04\n      add\n      tag_99\n      swap1\n      tag_100\n      jump\t// in\n    tag_99:\n      mload(0x40)\n      dup1\n      swap2\n      sub\n      swap1\n      revert\n    tag_98:\n        /* \"contracts/12-tokens-ERC20/ERC20/ERC20.sol\":6520:6580  _approve(owner, spender, currentAllowance - subtractedValue) */\n      tag_101\n        /* \"contracts/12-tokens-ERC20/ERC20/ERC20.sol\":6529:6534  owner */\n      dup3\n        /* \"contracts/12-tokens-ERC20/ERC20/ERC20.sol\":6536:6543  spender */\n      dup7\n        /* \"contracts/12-tokens-ERC20/ERC20/ERC20.sol\":6564:6579  subtractedValue */\n      dup7\n        /* \"contracts/12-tokens-ERC20/ERC20/ERC20.sol\":6545:6561  currentAllowance */\n      dup5\n        /* \"contracts/12-tokens-ERC20/ERC20/ERC20.sol\":6545:6579  currentAllowance - subtractedValue */\n      sub\n        /* \"contracts/12-tokens-ERC20/ERC20/ERC20.sol\":6520:6528  _approve */\n      tag_75\n        /* \"contracts/12-tokens-ERC20/ERC20/ERC20.sol\":6520:6580  _approve(owner, spender, currentAllowance - subtractedValue) */\n      jump\t// in\n    tag_101:\n        /* \"contracts/12-tokens-ERC20/ERC20/ERC20.sol\":6607:6611  true */\n      0x01\n        /* \"contracts/12-tokens-ERC20/ERC20/ERC20.sol\":6600:6611  return true */\n      swap3\n      pop\n      pop\n      pop\n        /* \"contracts/12-tokens-ERC20/ERC20/ERC20.sol\":6192:6618  function decreaseAllowance(address spender, uint256 subtractedValue) public virtual returns (bool) {... */\n      swap3\n      swap2\n      pop\n      pop\n      jump\t// out\n        /* \"contracts/12-tokens-ERC20/ERC20/ERC20.sol\":4053:4240  function transfer(address to, uint256 amount) public virtual override returns (bool) {... */\n    tag_59:\n        /* \"contracts/12-tokens-ERC20/ERC20/ERC20.sol\":4132:4136  bool */\n      0x00\n        /* \"contracts/12-tokens-ERC20/ERC20/ERC20.sol\":4148:4161  address owner */\n      dup1\n        /* \"contracts/12-tokens-ERC20/ERC20/ERC20.sol\":4164:4174  msg.sender */\n      caller\n        /* \"contracts/12-tokens-ERC20/ERC20/ERC20.sol\":4148:4174  address owner = msg.sender */\n      swap1\n      pop\n        /* \"contracts/12-tokens-ERC20/ERC20/ERC20.sol\":4184:4212  _transfer(owner, to, amount) */\n      tag_103\n        /* \"contracts/12-tokens-ERC20/ERC20/ERC20.sol\":4194:4199  owner */\n      dup2\n        /* \"contracts/12-tokens-ERC20/ERC20/ERC20.sol\":4201:4203  to */\n      dup6\n        /* \"contracts/12-tokens-ERC20/ERC20/ERC20.sol\":4205:4211  amount */\n      dup6\n        /* \"contracts/12-tokens-ERC20/ERC20/ERC20.sol\":4184:4193  _transfer */\n      tag_81\n        /* \"contracts/12-tokens-ERC20/ERC20/ERC20.sol\":4184:4212  _transfer(owner, to, amount) */\n      jump\t// in\n    tag_103:\n        /* \"contracts/12-tokens-ERC20/ERC20/ERC20.sol\":4229:4233  true */\n      0x01\n        /* \"contracts/12-tokens-ERC20/ERC20/ERC20.sol\":4222:4233  return true */\n      swap2\n      pop\n      pop\n        /* \"contracts/12-tokens-ERC20/ERC20/ERC20.sol\":4053:4240  function transfer(address to, uint256 amount) public virtual override returns (bool) {... */\n      swap3\n      swap2\n      pop\n      pop\n      jump\t// out\n        /* \"contracts/12-tokens-ERC20/ERC20/ERC20.sol\":4278:4427  function allowance(address owner, address spender) public view virtual override returns (uint256) {... */\n    tag_64:\n        /* \"contracts/12-tokens-ERC20/ERC20/ERC20.sol\":4367:4374  uint256 */\n      0x00\n        /* \"contracts/12-tokens-ERC20/ERC20/ERC20.sol\":4393:4404  _allowances */\n      0x01\n        /* \"contracts/12-tokens-ERC20/ERC20/ERC20.sol\":4393:4411  _allowances[owner] */\n      0x00\n        /* \"contracts/12-tokens-ERC20/ERC20/ERC20.sol\":4405:4410  owner */\n      dup5\n        /* \"contracts/12-tokens-ERC20/ERC20/ERC20.sol\":4393:4411  _allowances[owner] */\n      0xffffffffffffffffffffffffffffffffffffffff\n      and\n      0xffffffffffffffffffffffffffffffffffffffff\n      and\n      dup2\n      mstore\n      0x20\n      add\n      swap1\n      dup2\n      mstore\n      0x20\n      add\n      0x00\n      keccak256\n        /* \"contracts/12-tokens-ERC20/ERC20/ERC20.sol\":4393:4420  _allowances[owner][spender] */\n      0x00\n        /* \"contracts/12-tokens-ERC20/ERC20/ERC20.sol\":4412:4419  spender */\n      dup4\n        /* \"contracts/12-tokens-ERC20/ERC20/ERC20.sol\":4393:4420  _allowances[owner][spender] */\n      0xffffffffffffffffffffffffffffffffffffffff\n      and\n      0xffffffffffffffffffffffffffffffffffffffff\n      and\n      dup2\n      mstore\n      0x20\n      add\n      swap1\n      dup2\n      mstore\n      0x20\n      add\n      0x00\n      keccak256\n      sload\n        /* \"contracts/12-tokens-ERC20/ERC20/ERC20.sol\":4386:4420  return _allowances[owner][spender] */\n      swap1\n      pop\n        /* \"contracts/12-tokens-ERC20/ERC20/ERC20.sol\":4278:4427  function allowance(address owner, address spender) public view virtual override returns (uint256) {... */\n      swap3\n      swap2\n      pop\n      pop\n      jump\t// out\n        /* \"contracts/12-tokens-ERC20/ERC20/ERC20.sol\":9350:9719  function _approve(... */\n    tag_75:\n        /* \"contracts/12-tokens-ERC20/ERC20/ERC20.sol\":9498:9499  0 */\n      0x00\n        /* \"contracts/12-tokens-ERC20/ERC20/ERC20.sol\":9481:9500  owner != address(0) */\n      0xffffffffffffffffffffffffffffffffffffffff\n      and\n        /* \"contracts/12-tokens-ERC20/ERC20/ERC20.sol\":9481:9486  owner */\n      dup4\n        /* \"contracts/12-tokens-ERC20/ERC20/ERC20.sol\":9481:9500  owner != address(0) */\n      0xffffffffffffffffffffffffffffffffffffffff\n      and\n      sub\n        /* \"contracts/12-tokens-ERC20/ERC20/ERC20.sol\":9473:9541  require(owner != address(0), \"ERC20: approve from the zero address\") */\n      tag_106\n      jumpi\n      mload(0x40)\n      0x08c379a000000000000000000000000000000000000000000000000000000000\n      dup2\n      mstore\n      0x04\n      add\n      tag_107\n      swap1\n      tag_108\n      jump\t// in\n    tag_107:\n      mload(0x40)\n      dup1\n      swap2\n      sub\n      swap1\n      revert\n    tag_106:\n        /* \"contracts/12-tokens-ERC20/ERC20/ERC20.sol\":9578:9579  0 */\n      0x00\n        /* \"contracts/12-tokens-ERC20/ERC20/ERC20.sol\":9559:9580  spender != address(0) */\n      0xffffffffffffffffffffffffffffffffffffffff\n      and\n        /* \"contracts/12-tokens-ERC20/ERC20/ERC20.sol\":9559:9566  spender */\n      dup3\n        /* \"contracts/12-tokens-ERC20/ERC20/ERC20.sol\":9559:9580  spender != address(0) */\n      0xffffffffffffffffffffffffffffffffffffffff\n      and\n      sub\n        /* \"contracts/12-tokens-ERC20/ERC20/ERC20.sol\":9551:9619  require(spender != address(0), \"ERC20: approve to the zero address\") */\n      tag_109\n      jumpi\n      mload(0x40)\n      0x08c379a000000000000000000000000000000000000000000000000000000000\n      dup2\n      mstore\n      0x04\n      add\n      tag_110\n      swap1\n      tag_111\n      jump\t// in\n    tag_110:\n      mload(0x40)\n      dup1\n      swap2\n      sub\n      swap1\n      revert\n    tag_109:\n        /* \"contracts/12-tokens-ERC20/ERC20/ERC20.sol\":9659:9665  amount */\n      dup1\n        /* \"contracts/12-tokens-ERC20/ERC20/ERC20.sol\":9629:9640  _allowances */\n      0x01\n        /* \"contracts/12-tokens-ERC20/ERC20/ERC20.sol\":9629:9647  _allowances[owner] */\n      0x00\n        /* \"contracts/12-tokens-ERC20/ERC20/ERC20.sol\":9641:9646  owner */\n      dup6\n        /* \"contracts/12-tokens-ERC20/ERC20/ERC20.sol\":9629:9647  _allowances[owner] */\n      0xffffffffffffffffffffffffffffffffffffffff\n      and\n      0xffffffffffffffffffffffffffffffffffffffff\n      and\n      dup2\n      mstore\n      0x20\n      add\n      swap1\n      dup2\n      mstore\n      0x20\n      add\n      0x00\n      keccak256\n        /* \"contracts/12-tokens-ERC20/ERC20/ERC20.sol\":9629:9656  _allowances[owner][spender] */\n      0x00\n        /* \"contracts/12-tokens-ERC20/ERC20/ERC20.sol\":9648:9655  spender */\n      dup5\n        /* \"contracts/12-tokens-ERC20/ERC20/ERC20.sol\":9629:9656  _allowances[owner][spender] */\n      0xffffffffffffffffffffffffffffffffffffffff\n      and\n      0xffffffffffffffffffffffffffffffffffffffff\n      and\n      dup2\n      mstore\n      0x20\n      add\n      swap1\n      dup2\n      mstore\n      0x20\n      add\n      0x00\n      keccak256\n        /* \"contracts/12-tokens-ERC20/ERC20/ERC20.sol\":9629:9665  _allowances[owner][spender] = amount */\n      dup2\n      swap1\n      sstore\n      pop\n        /* \"contracts/12-tokens-ERC20/ERC20/ERC20.sol\":9696:9703  spender */\n      dup2\n        /* \"contracts/12-tokens-ERC20/ERC20/ERC20.sol\":9680:9712  Approval(owner, spender, amount) */\n      0xffffffffffffffffffffffffffffffffffffffff\n      and\n        /* \"contracts/12-tokens-ERC20/ERC20/ERC20.sol\":9689:9694  owner */\n      dup4\n        /* \"contracts/12-tokens-ERC20/ERC20/ERC20.sol\":9680:9712  Approval(owner, spender, amount) */\n      0xffffffffffffffffffffffffffffffffffffffff\n      and\n      0x8c5be1e5ebec7d5bd14f71427d1e84f3dd0314c0f7b2291e5b200ac8c7c3b925\n        /* \"contracts/12-tokens-ERC20/ERC20/ERC20.sol\":9705:9711  amount */\n      dup4\n        /* \"contracts/12-tokens-ERC20/ERC20/ERC20.sol\":9680:9712  Approval(owner, spender, amount) */\n      mload(0x40)\n      tag_112\n      swap2\n      swap1\n      tag_29\n      jump\t// in\n    tag_112:\n      mload(0x40)\n      dup1\n      swap2\n      sub\n      swap1\n      log3\n        /* \"contracts/12-tokens-ERC20/ERC20/ERC20.sol\":9350:9719  function _approve(... */\n      pop\n      pop\n      pop\n      jump\t// out\n        /* \"contracts/12-tokens-ERC20/ERC20/ERC20.sol\":9979:10420  function _spendAllowance(... */\n    tag_79:\n        /* \"contracts/12-tokens-ERC20/ERC20/ERC20.sol\":10109:10133  uint256 currentAllowance */\n      0x00\n        /* \"contracts/12-tokens-ERC20/ERC20/ERC20.sol\":10136:10161  allowance(owner, spender) */\n      tag_114\n        /* \"contracts/12-tokens-ERC20/ERC20/ERC20.sol\":10146:10151  owner */\n      dup5\n        /* \"contracts/12-tokens-ERC20/ERC20/ERC20.sol\":10153:10160  spender */\n      dup5\n        /* \"contracts/12-tokens-ERC20/ERC20/ERC20.sol\":10136:10145  allowance */\n      tag_64\n        /* \"contracts/12-tokens-ERC20/ERC20/ERC20.sol\":10136:10161  allowance(owner, spender) */\n      jump\t// in\n    tag_114:\n        /* \"contracts/12-tokens-ERC20/ERC20/ERC20.sol\":10109:10161  uint256 currentAllowance = allowance(owner, spender) */\n      swap1\n      pop\n        /* \"contracts/12-tokens-ERC20/ERC20/ERC20.sol\":10195:10212  type(uint256).max */\n      0xffffffffffffffffffffffffffffffffffffffffffffffffffffffffffffffff\n        /* \"contracts/12-tokens-ERC20/ERC20/ERC20.sol\":10175:10191  currentAllowance */\n      dup2\n        /* \"contracts/12-tokens-ERC20/ERC20/ERC20.sol\":10175:10212  currentAllowance != type(uint256).max */\n      eq\n        /* \"contracts/12-tokens-ERC20/ERC20/ERC20.sol\":10171:10414  if (currentAllowance != type(uint256).max) {... */\n      tag_115\n      jumpi\n        /* \"contracts/12-tokens-ERC20/ERC20/ERC20.sol\":10256:10262  amount */\n      dup2\n        /* \"contracts/12-tokens-ERC20/ERC20/ERC20.sol\":10236:10252  currentAllowance */\n      dup2\n        /* \"contracts/12-tokens-ERC20/ERC20/ERC20.sol\":10236:10262  currentAllowance >= amount */\n      lt\n      iszero\n        /* \"contracts/12-tokens-ERC20/ERC20/ERC20.sol\":10228:10296  require(currentAllowance >= amount, \"ERC20: insufficient allowance\") */\n      tag_116\n      jumpi\n      mload(0x40)\n      0x08c379a000000000000000000000000000000000000000000000000000000000\n      dup2\n      mstore\n      0x04\n      add\n      tag_117\n      swap1\n      tag_118\n      jump\t// in\n    tag_117:\n      mload(0x40)\n      dup1\n      swap2\n      sub\n      swap1\n      revert\n    tag_116:\n        /* \"contracts/12-tokens-ERC20/ERC20/ERC20.sol\":10338:10389  _approve(owner, spender, currentAllowance - amount) */\n      tag_119\n        /* \"contracts/12-tokens-ERC20/ERC20/ERC20.sol\":10347:10352  owner */\n      dup5\n        /* \"contracts/12-tokens-ERC20/ERC20/ERC20.sol\":10354:10361  spender */\n      dup5\n        /* \"contracts/12-tokens-ERC20/ERC20/ERC20.sol\":10382:10388  amount */\n      dup5\n        /* \"contracts/12-tokens-ERC20/ERC20/ERC20.sol\":10363:10379  currentAllowance */\n      dup5\n        /* \"contracts/12-tokens-ERC20/ERC20/ERC20.sol\":10363:10388  currentAllowance - amount */\n      sub\n        /* \"contracts/12-tokens-ERC20/ERC20/ERC20.sol\":10338:10346  _approve */\n      tag_75\n        /* \"contracts/12-tokens-ERC20/ERC20/ERC20.sol\":10338:10389  _approve(owner, spender, currentAllowance - amount) */\n      jump\t// in\n    tag_119:\n        /* \"contracts/12-tokens-ERC20/ERC20/ERC20.sol\":10171:10414  if (currentAllowance != type(uint256).max) {... */\n    tag_115:\n        /* \"contracts/12-tokens-ERC20/ERC20/ERC20.sol\":10099:10420  {... */\n      pop\n        /* \"contracts/12-tokens-ERC20/ERC20/ERC20.sol\":9979:10420  function _spendAllowance(... */\n      pop\n      pop\n      pop\n      jump\t// out\n        /* \"contracts/12-tokens-ERC20/ERC20/ERC20.sol\":6993:7640  function _transfer(... */\n    tag_81:\n        /* \"contracts/12-tokens-ERC20/ERC20/ERC20.sol\":7135:7136  0 */\n      0x00\n        /* \"contracts/12-tokens-ERC20/ERC20/ERC20.sol\":7119:7137  from != address(0) */\n      0xffffffffffffffffffffffffffffffffffffffff\n      and\n        /* \"contracts/12-tokens-ERC20/ERC20/ERC20.sol\":7119:7123  from */\n      dup4\n        /* \"contracts/12-tokens-ERC20/ERC20/ERC20.sol\":7119:7137  from != address(0) */\n      0xffffffffffffffffffffffffffffffffffffffff\n      and\n      sub\n        /* \"contracts/12-tokens-ERC20/ERC20/ERC20.sol\":7111:7179  require(from != address(0), \"ERC20: transfer from the zero address\") */\n      tag_121\n      jumpi\n      mload(0x40)\n      0x08c379a000000000000000000000000000000000000000000000000000000000\n      dup2\n      mstore\n      0x04\n      add\n      tag_122\n      swap1\n      tag_123\n      jump\t// in\n    tag_122:\n      mload(0x40)\n      dup1\n      swap2\n      sub\n      swap1\n      revert\n    tag_121:\n        /* \"contracts/12-tokens-ERC20/ERC20/ERC20.sol\":7211:7212  0 */\n      0x00\n        /* \"contracts/12-tokens-ERC20/ERC20/ERC20.sol\":7197:7213  to != address(0) */\n      0xffffffffffffffffffffffffffffffffffffffff\n      and\n        /* \"contracts/12-tokens-ERC20/ERC20/ERC20.sol\":7197:7199  to */\n      dup3\n        /* \"contracts/12-tokens-ERC20/ERC20/ERC20.sol\":7197:7213  to != address(0) */\n      0xffffffffffffffffffffffffffffffffffffffff\n      and\n      sub\n        /* \"contracts/12-tokens-ERC20/ERC20/ERC20.sol\":7189:7253  require(to != address(0), \"ERC20: transfer to the zero address\") */\n      tag_124\n      jumpi\n      mload(0x40)\n      0x08c379a000000000000000000000000000000000000000000000000000000000\n      dup2\n      mstore\n      0x04\n      add\n      tag_125\n      swap1\n      tag_126\n      jump\t// in\n    tag_125:\n      mload(0x40)\n      dup1\n      swap2\n      sub\n      swap1\n      revert\n    tag_124:\n        /* \"contracts/12-tokens-ERC20/ERC20/ERC20.sol\":7263:7301  _beforeTokenTransfer(from, to, amount) */\n      tag_127\n        /* \"contracts/12-tokens-ERC20/ERC20/ERC20.sol\":7284:7288  from */\n      dup4\n        /* \"contracts/12-tokens-ERC20/ERC20/ERC20.sol\":7290:7292  to */\n      dup4\n        /* \"contracts/12-tokens-ERC20/ERC20/ERC20.sol\":7294:7300  amount */\n      dup4\n        /* \"contracts/12-tokens-ERC20/ERC20/ERC20.sol\":7263:7283  _beforeTokenTransfer */\n      tag_128\n        /* \"contracts/12-tokens-ERC20/ERC20/ERC20.sol\":7263:7301  _beforeTokenTransfer(from, to, amount) */\n      jump\t// in\n    tag_127:\n        /* \"contracts/12-tokens-ERC20/ERC20/ERC20.sol\":7311:7330  uint256 fromBalance */\n      0x00\n        /* \"contracts/12-tokens-ERC20/ERC20/ERC20.sol\":7333:7342  _balances */\n      dup1\n        /* \"contracts/12-tokens-ERC20/ERC20/ERC20.sol\":7333:7348  _balances[from] */\n      0x00\n        /* \"contracts/12-tokens-ERC20/ERC20/ERC20.sol\":7343:7347  from */\n      dup6\n        /* \"contracts/12-tokens-ERC20/ERC20/ERC20.sol\":7333:7348  _balances[from] */\n      0xffffffffffffffffffffffffffffffffffffffff\n      and\n      0xffffffffffffffffffffffffffffffffffffffff\n      and\n      dup2\n      mstore\n      0x20\n      add\n      swap1\n      dup2\n      mstore\n      0x20\n      add\n      0x00\n      keccak256\n      sload\n        /* \"contracts/12-tokens-ERC20/ERC20/ERC20.sol\":7311:7348  uint256 fromBalance = _balances[from] */\n      swap1\n      pop\n        /* \"contracts/12-tokens-ERC20/ERC20/ERC20.sol\":7381:7387  amount */\n      dup2\n        /* \"contracts/12-tokens-ERC20/ERC20/ERC20.sol\":7366:7377  fromBalance */\n      dup2\n        /* \"contracts/12-tokens-ERC20/ERC20/ERC20.sol\":7366:7387  fromBalance >= amount */\n      lt\n      iszero\n        /* \"contracts/12-tokens-ERC20/ERC20/ERC20.sol\":7358:7430  require(fromBalance >= amount, \"ERC20: transfer amount exceeds balance\") */\n      tag_129\n      jumpi\n      mload(0x40)\n      0x08c379a000000000000000000000000000000000000000000000000000000000\n      dup2\n      mstore\n      0x04\n      add\n      tag_130\n      swap1\n      tag_131\n      jump\t// in\n    tag_130:\n      mload(0x40)\n      dup1\n      swap2\n      sub\n      swap1\n      revert\n    tag_129:\n        /* \"contracts/12-tokens-ERC20/ERC20/ERC20.sol\":7496:7502  amount */\n      dup2\n        /* \"contracts/12-tokens-ERC20/ERC20/ERC20.sol\":7482:7493  fromBalance */\n      dup2\n        /* \"contracts/12-tokens-ERC20/ERC20/ERC20.sol\":7482:7502  fromBalance - amount */\n      sub\n        /* \"contracts/12-tokens-ERC20/ERC20/ERC20.sol\":7464:7473  _balances */\n      0x00\n        /* \"contracts/12-tokens-ERC20/ERC20/ERC20.sol\":7464:7479  _balances[from] */\n      dup1\n        /* \"contracts/12-tokens-ERC20/ERC20/ERC20.sol\":7474:7478  from */\n      dup7\n        /* \"contracts/12-tokens-ERC20/ERC20/ERC20.sol\":7464:7479  _balances[from] */\n      0xffffffffffffffffffffffffffffffffffffffff\n      and\n      0xffffffffffffffffffffffffffffffffffffffff\n      and\n      dup2\n      mstore\n      0x20\n      add\n      swap1\n      dup2\n      mstore\n      0x20\n      add\n      0x00\n      keccak256\n        /* \"contracts/12-tokens-ERC20/ERC20/ERC20.sol\":7464:7502  _balances[from] = fromBalance - amount */\n      dup2\n      swap1\n      sstore\n      pop\n        /* \"contracts/12-tokens-ERC20/ERC20/ERC20.sol\":7539:7545  amount */\n      dup2\n        /* \"contracts/12-tokens-ERC20/ERC20/ERC20.sol\":7522:7531  _balances */\n      0x00\n        /* \"contracts/12-tokens-ERC20/ERC20/ERC20.sol\":7522:7535  _balances[to] */\n      dup1\n        /* \"contracts/12-tokens-ERC20/ERC20/ERC20.sol\":7532:7534  to */\n      dup6\n        /* \"contracts/12-tokens-ERC20/ERC20/ERC20.sol\":7522:7535  _balances[to] */\n      0xffffffffffffffffffffffffffffffffffffffff\n      and\n      0xffffffffffffffffffffffffffffffffffffffff\n      and\n      dup2\n      mstore\n      0x20\n      add\n      swap1\n      dup2\n      mstore\n      0x20\n      add\n      0x00\n      keccak256\n      0x00\n        /* \"contracts/12-tokens-ERC20/ERC20/ERC20.sol\":7522:7545  _balances[to] += amount */\n      dup3\n      dup3\n      sload\n      tag_132\n      swap2\n      swap1\n      tag_86\n      jump\t// in\n    tag_132:\n      swap3\n      pop\n      pop\n      dup2\n      swap1\n      sstore\n      pop\n        /* \"contracts/12-tokens-ERC20/ERC20/ERC20.sol\":7575:7577  to */\n      dup3\n        /* \"contracts/12-tokens-ERC20/ERC20/ERC20.sol\":7560:7586  Transfer(from, to, amount) */\n      0xffffffffffffffffffffffffffffffffffffffff\n      and\n        /* \"contracts/12-tokens-ERC20/ERC20/ERC20.sol\":7569:7573  from */\n      dup5\n        /* \"contracts/12-tokens-ERC20/ERC20/ERC20.sol\":7560:7586  Transfer(from, to, amount) */\n      0xffffffffffffffffffffffffffffffffffffffff\n      and\n      0xddf252ad1be2c89b69c2b068fc378daa952ba7f163c4a11628f55a4df523b3ef\n        /* \"contracts/12-tokens-ERC20/ERC20/ERC20.sol\":7579:7585  amount */\n      dup5\n        /* \"contracts/12-tokens-ERC20/ERC20/ERC20.sol\":7560:7586  Transfer(from, to, amount) */\n      mload(0x40)\n      tag_133\n      swap2\n      swap1\n      tag_29\n      jump\t// in\n    tag_133:\n      mload(0x40)\n      dup1\n      swap2\n      sub\n      swap1\n      log3\n        /* \"contracts/12-tokens-ERC20/ERC20/ERC20.sol\":7596:7633  _afterTokenTransfer(from, to, amount) */\n      tag_134\n        /* \"contracts/12-tokens-ERC20/ERC20/ERC20.sol\":7616:7620  from */\n      dup5\n        /* \"contracts/12-tokens-ERC20/ERC20/ERC20.sol\":7622:7624  to */\n      dup5\n        /* \"contracts/12-tokens-ERC20/ERC20/ERC20.sol\":7626:7632  amount */\n      dup5\n        /* \"contracts/12-tokens-ERC20/ERC20/ERC20.sol\":7596:7615  _afterTokenTransfer */\n      tag_135\n        /* \"contracts/12-tokens-ERC20/ERC20/ERC20.sol\":7596:7633  _afterTokenTransfer(from, to, amount) */\n      jump\t// in\n    tag_134:\n        /* \"contracts/12-tokens-ERC20/ERC20/ERC20.sol\":7101:7640  {... */\n      pop\n        /* \"contracts/12-tokens-ERC20/ERC20/ERC20.sol\":6993:7640  function _transfer(... */\n      pop\n      pop\n      pop\n      jump\t// out\n        /* \"contracts/12-tokens-ERC20/ERC20/ERC20.sol\":7869:8255  function _mint(address account, uint256 amount) internal virtual {... */\n    tag_89:\n        /* \"contracts/12-tokens-ERC20/ERC20/ERC20.sol\":7971:7972  0 */\n      0x00\n        /* \"contracts/12-tokens-ERC20/ERC20/ERC20.sol\":7952:7973  account != address(0) */\n      0xffffffffffffffffffffffffffffffffffffffff\n      and\n        /* \"contracts/12-tokens-ERC20/ERC20/ERC20.sol\":7952:7959  account */\n      dup3\n        /* \"contracts/12-tokens-ERC20/ERC20/ERC20.sol\":7952:7973  account != address(0) */\n      0xffffffffffffffffffffffffffffffffffffffff\n      and\n      sub\n        /* \"contracts/12-tokens-ERC20/ERC20/ERC20.sol\":7944:8009  require(account != address(0), \"ERC20: mint to the zero address\") */\n      tag_137\n      jumpi\n      mload(0x40)\n      0x08c379a000000000000000000000000000000000000000000000000000000000\n      dup2\n      mstore\n      0x04\n      add\n      tag_138\n      swap1\n      tag_139\n      jump\t// in\n    tag_138:\n      mload(0x40)\n      dup1\n      swap2\n      sub\n      swap1\n      revert\n    tag_137:\n        /* \"contracts/12-tokens-ERC20/ERC20/ERC20.sol\":8019:8068  _beforeTokenTransfer(address(0), account, amount) */\n      tag_140\n        /* \"contracts/12-tokens-ERC20/ERC20/ERC20.sol\":8048:8049  0 */\n      0x00\n        /* \"contracts/12-tokens-ERC20/ERC20/ERC20.sol\":8052:8059  account */\n      dup4\n        /* \"contracts/12-tokens-ERC20/ERC20/ERC20.sol\":8061:8067  amount */\n      dup4\n        /* \"contracts/12-tokens-ERC20/ERC20/ERC20.sol\":8019:8039  _beforeTokenTransfer */\n      tag_128\n        /* \"contracts/12-tokens-ERC20/ERC20/ERC20.sol\":8019:8068  _beforeTokenTransfer(address(0), account, amount) */\n      jump\t// in\n    tag_140:\n        /* \"contracts/12-tokens-ERC20/ERC20/ERC20.sol\":8094:8100  amount */\n      dup1\n        /* \"contracts/12-tokens-ERC20/ERC20/ERC20.sol\":8078:8090  _totalSupply */\n      0x02\n      0x00\n        /* \"contracts/12-tokens-ERC20/ERC20/ERC20.sol\":8078:8100  _totalSupply += amount */\n      dup3\n      dup3\n      sload\n      tag_141\n      swap2\n      swap1\n      tag_86\n      jump\t// in\n    tag_141:\n      swap3\n      pop\n      pop\n      dup2\n      swap1\n      sstore\n      pop\n        /* \"contracts/12-tokens-ERC20/ERC20/ERC20.sol\":8132:8138  amount */\n      dup1\n        /* \"contracts/12-tokens-ERC20/ERC20/ERC20.sol\":8110:8119  _balances */\n      0x00\n        /* \"contracts/12-tokens-ERC20/ERC20/ERC20.sol\":8110:8128  _balances[account] */\n      dup1\n        /* \"contracts/12-tokens-ERC20/ERC20/ERC20.sol\":8120:8127  account */\n      dup5\n        /* \"contracts/12-tokens-ERC20/ERC20/ERC20.sol\":8110:8128  _balances[account] */\n      0xffffffffffffffffffffffffffffffffffffffff\n      and\n      0xffffffffffffffffffffffffffffffffffffffff\n      and\n      dup2\n      mstore\n      0x20\n      add\n      swap1\n      dup2\n      mstore\n      0x20\n      add\n      0x00\n      keccak256\n      0x00\n        /* \"contracts/12-tokens-ERC20/ERC20/ERC20.sol\":8110:8138  _balances[account] += amount */\n      dup3\n      dup3\n      sload\n      tag_142\n      swap2\n      swap1\n      tag_86\n      jump\t// in\n    tag_142:\n      swap3\n      pop\n      pop\n      dup2\n      swap1\n      sstore\n      pop\n        /* \"contracts/12-tokens-ERC20/ERC20/ERC20.sol\":8174:8181  account */\n      dup2\n        /* \"contracts/12-tokens-ERC20/ERC20/ERC20.sol\":8153:8190  Transfer(address(0), account, amount) */\n      0xffffffffffffffffffffffffffffffffffffffff\n      and\n        /* \"contracts/12-tokens-ERC20/ERC20/ERC20.sol\":8170:8171  0 */\n      0x00\n        /* \"contracts/12-tokens-ERC20/ERC20/ERC20.sol\":8153:8190  Transfer(address(0), account, amount) */\n      0xffffffffffffffffffffffffffffffffffffffff\n      and\n      0xddf252ad1be2c89b69c2b068fc378daa952ba7f163c4a11628f55a4df523b3ef\n        /* \"contracts/12-tokens-ERC20/ERC20/ERC20.sol\":8183:8189  amount */\n      dup4\n        /* \"contracts/12-tokens-ERC20/ERC20/ERC20.sol\":8153:8190  Transfer(address(0), account, amount) */\n      mload(0x40)\n      tag_143\n      swap2\n      swap1\n      tag_29\n      jump\t// in\n    tag_143:\n      mload(0x40)\n      dup1\n      swap2\n      sub\n      swap1\n      log3\n        /* \"contracts/12-tokens-ERC20/ERC20/ERC20.sol\":8200:8248  _afterTokenTransfer(address(0), account, amount) */\n      tag_144\n        /* \"contracts/12-tokens-ERC20/ERC20/ERC20.sol\":8228:8229  0 */\n      0x00\n        /* \"contracts/12-tokens-ERC20/ERC20/ERC20.sol\":8232:8239  account */\n      dup4\n        /* \"contracts/12-tokens-ERC20/ERC20/ERC20.sol\":8241:8247  amount */\n      dup4\n        /* \"contracts/12-tokens-ERC20/ERC20/ERC20.sol\":8200:8219  _afterTokenTransfer */\n      tag_135\n        /* \"contracts/12-tokens-ERC20/ERC20/ERC20.sol\":8200:8248  _afterTokenTransfer(address(0), account, amount) */\n      jump\t// in\n    tag_144:\n        /* \"contracts/12-tokens-ERC20/ERC20/ERC20.sol\":7869:8255  function _mint(address account, uint256 amount) internal virtual {... */\n      pop\n      pop\n      jump\t// out\n        /* \"contracts/12-tokens-ERC20/ERC20/ERC20.sol\":10868:10989  function _beforeTokenTransfer(... */\n    tag_128:\n      pop\n      pop\n      pop\n      jump\t// out\n        /* \"contracts/12-tokens-ERC20/ERC20/ERC20.sol\":11449:11569  function _afterTokenTransfer(... */\n    tag_135:\n      pop\n      pop\n      pop\n      jump\t// out\n        /* \"#utility.yul\":7:106   */\n    tag_147:\n        /* \"#utility.yul\":59:65   */\n      0x00\n        /* \"#utility.yul\":93:98   */\n      dup2\n        /* \"#utility.yul\":87:99   */\n      mload\n        /* \"#utility.yul\":77:99   */\n      swap1\n      pop\n        /* \"#utility.yul\":7:106   */\n      swap2\n      swap1\n      pop\n      jump\t// out\n        /* \"#utility.yul\":112:281   */\n    tag_148:\n        /* \"#utility.yul\":196:207   */\n      0x00\n        /* \"#utility.yul\":230:236   */\n      dup3\n        /* \"#utility.yul\":225:228   */\n      dup3\n        /* \"#utility.yul\":218:237   */\n      mstore\n        /* \"#utility.yul\":270:274   */\n      0x20\n        /* \"#utility.yul\":265:268   */\n      dup3\n        /* \"#utility.yul\":261:275   */\n      add\n        /* \"#utility.yul\":246:275   */\n      swap1\n      pop\n        /* \"#utility.yul\":112:281   */\n      swap3\n      swap2\n      pop\n      pop\n      jump\t// out\n        /* \"#utility.yul\":287:426   */\n    tag_149:\n        /* \"#utility.yul\":376:382   */\n      dup3\n        /* \"#utility.yul\":371:374   */\n      dup2\n        /* \"#utility.yul\":366:369   */\n      dup4\n        /* \"#utility.yul\":360:383   */\n      mcopy\n        /* \"#utility.yul\":417:418   */\n      0x00\n        /* \"#utility.yul\":408:414   */\n      dup4\n        /* \"#utility.yul\":403:406   */\n      dup4\n        /* \"#utility.yul\":399:415   */\n      add\n        /* \"#utility.yul\":392:419   */\n      mstore\n        /* \"#utility.yul\":287:426   */\n      pop\n      pop\n      pop\n      jump\t// out\n        /* \"#utility.yul\":432:534   */\n    tag_150:\n        /* \"#utility.yul\":473:479   */\n      0x00\n        /* \"#utility.yul\":524:526   */\n      0x1f\n        /* \"#utility.yul\":520:527   */\n      not\n        /* \"#utility.yul\":515:517   */\n      0x1f\n        /* \"#utility.yul\":508:513   */\n      dup4\n        /* \"#utility.yul\":504:518   */\n      add\n        /* \"#utility.yul\":500:528   */\n      and\n        /* \"#utility.yul\":490:528   */\n      swap1\n      pop\n        /* \"#utility.yul\":432:534   */\n      swap2\n      swap1\n      pop\n      jump\t// out\n        /* \"#utility.yul\":540:917   */\n    tag_151:\n        /* \"#utility.yul\":628:631   */\n      0x00\n        /* \"#utility.yul\":656:695   */\n      tag_191\n        /* \"#utility.yul\":689:694   */\n      dup3\n        /* \"#utility.yul\":656:695   */\n      tag_147\n      jump\t// in\n    tag_191:\n        /* \"#utility.yul\":711:782   */\n      tag_192\n        /* \"#utility.yul\":775:781   */\n      dup2\n        /* \"#utility.yul\":770:773   */\n      dup6\n        /* \"#utility.yul\":711:782   */\n      tag_148\n      jump\t// in\n    tag_192:\n        /* \"#utility.yul\":704:782   */\n      swap4\n      pop\n        /* \"#utility.yul\":791:856   */\n      tag_193\n        /* \"#utility.yul\":849:855   */\n      dup2\n        /* \"#utility.yul\":844:847   */\n      dup6\n        /* \"#utility.yul\":837:841   */\n      0x20\n        /* \"#utility.yul\":830:835   */\n      dup7\n        /* \"#utility.yul\":826:842   */\n      add\n        /* \"#utility.yul\":791:856   */\n      tag_149\n      jump\t// in\n    tag_193:\n        /* \"#utility.yul\":881:910   */\n      tag_194\n        /* \"#utility.yul\":903:909   */\n      dup2\n        /* \"#utility.yul\":881:910   */\n      tag_150\n      jump\t// in\n    tag_194:\n        /* \"#utility.yul\":876:879   */\n      dup5\n        /* \"#utility.yul\":872:911   */\n      add\n        /* \"#utility.yul\":865:911   */\n      swap2\n      pop\n        /* \"#utility.yul\":632:917   */\n      pop\n        /* \"#utility.yul\":540:917   */\n      swap3\n      swap2\n      pop\n      pop\n      jump\t// out\n        /* \"#utility.yul\":923:1236   */\n    tag_19:\n        /* \"#utility.yul\":1036:1040   */\n      0x00\n        /* \"#utility.yul\":1074:1076   */\n      0x20\n        /* \"#utility.yul\":1063:1072   */\n      dup3\n        /* \"#utility.yul\":1059:1077   */\n      add\n        /* \"#utility.yul\":1051:1077   */\n      swap1\n      pop\n        /* \"#utility.yul\":1123:1132   */\n      dup2\n        /* \"#utility.yul\":1117:1121   */\n      dup2\n        /* \"#utility.yul\":1113:1133   */\n      sub\n        /* \"#utility.yul\":1109:1110   */\n      0x00\n        /* \"#utility.yul\":1098:1107   */\n      dup4\n        /* \"#utility.yul\":1094:1111   */\n      add\n        /* \"#utility.yul\":1087:1134   */\n      mstore\n        /* \"#utility.yul\":1151:1229   */\n      tag_196\n        /* \"#utility.yul\":1224:1228   */\n      dup2\n        /* \"#utility.yul\":1215:1221   */\n      dup5\n        /* \"#utility.yul\":1151:1229   */\n      tag_151\n      jump\t// in\n    tag_196:\n        /* \"#utility.yul\":1143:1229   */\n      swap1\n      pop\n        /* \"#utility.yul\":923:1236   */\n      swap3\n      swap2\n      pop\n      pop\n      jump\t// out\n        /* \"#utility.yul\":1323:1440   */\n    tag_153:\n        /* \"#utility.yul\":1432:1433   */\n      0x00\n        /* \"#utility.yul\":1429:1430   */\n      dup1\n        /* \"#utility.yul\":1422:1434   */\n      revert\n        /* \"#utility.yul\":1569:1695   */\n    tag_155:\n        /* \"#utility.yul\":1606:1613   */\n      0x00\n        /* \"#utility.yul\":1646:1688   */\n      0xffffffffffffffffffffffffffffffffffffffff\n        /* \"#utility.yul\":1639:1644   */\n      dup3\n        /* \"#utility.yul\":1635:1689   */\n      and\n        /* \"#utility.yul\":1624:1689   */\n      swap1\n      pop\n        /* \"#utility.yul\":1569:1695   */\n      swap2\n      swap1\n      pop\n      jump\t// out\n        /* \"#utility.yul\":1701:1797   */\n    tag_156:\n        /* \"#utility.yul\":1738:1745   */\n      0x00\n        /* \"#utility.yul\":1767:1791   */\n      tag_202\n        /* \"#utility.yul\":1785:1790   */\n      dup3\n        /* \"#utility.yul\":1767:1791   */\n      tag_155\n      jump\t// in\n    tag_202:\n        /* \"#utility.yul\":1756:1791   */\n      swap1\n      pop\n        /* \"#utility.yul\":1701:1797   */\n      swap2\n      swap1\n      pop\n      jump\t// out\n        /* \"#utility.yul\":1803:1925   */\n    tag_157:\n        /* \"#utility.yul\":1876:1900   */\n      tag_204\n        /* \"#utility.yul\":1894:1899   */\n      dup2\n        /* \"#utility.yul\":1876:1900   */\n      tag_156\n      jump\t// in\n    tag_204:\n        /* \"#utility.yul\":1869:1874   */\n      dup2\n        /* \"#utility.yul\":1866:1901   */\n      eq\n        /* \"#utility.yul\":1856:1919   */\n      tag_205\n      jumpi\n        /* \"#utility.yul\":1915:1916   */\n      0x00\n        /* \"#utility.yul\":1912:1913   */\n      dup1\n        /* \"#utility.yul\":1905:1917   */\n      revert\n        /* \"#utility.yul\":1856:1919   */\n    tag_205:\n        /* \"#utility.yul\":1803:1925   */\n      pop\n      jump\t// out\n        /* \"#utility.yul\":1931:2070   */\n    tag_158:\n        /* \"#utility.yul\":1977:1982   */\n      0x00\n        /* \"#utility.yul\":2015:2021   */\n      dup2\n        /* \"#utility.yul\":2002:2022   */\n      calldataload\n        /* \"#utility.yul\":1993:2022   */\n      swap1\n      pop\n        /* \"#utility.yul\":2031:2064   */\n      tag_207\n        /* \"#utility.yul\":2058:2063   */\n      dup2\n        /* \"#utility.yul\":2031:2064   */\n      tag_157\n      jump\t// in\n    tag_207:\n        /* \"#utility.yul\":1931:2070   */\n      swap3\n      swap2\n      pop\n      pop\n      jump\t// out\n        /* \"#utility.yul\":2076:2153   */\n    tag_159:\n        /* \"#utility.yul\":2113:2120   */\n      0x00\n        /* \"#utility.yul\":2142:2147   */\n      dup2\n        /* \"#utility.yul\":2131:2147   */\n      swap1\n      pop\n        /* \"#utility.yul\":2076:2153   */\n      swap2\n      swap1\n      pop\n      jump\t// out\n        /* \"#utility.yul\":2159:2281   */\n    tag_160:\n        /* \"#utility.yul\":2232:2256   */\n      tag_210\n        /* \"#utility.yul\":2250:2255   */\n      dup2\n        /* \"#utility.yul\":2232:2256   */\n      tag_159\n      jump\t// in\n    tag_210:\n        /* \"#utility.yul\":2225:2230   */\n      dup2\n        /* \"#utility.yul\":2222:2257   */\n      eq\n        /* \"#utility.yul\":2212:2275   */\n      tag_211\n      jumpi\n        /* \"#utility.yul\":2271:2272   */\n      0x00\n        /* \"#utility.yul\":2268:2269   */\n      dup1\n        /* \"#utility.yul\":2261:2273   */\n      revert\n        /* \"#utility.yul\":2212:2275   */\n    tag_211:\n        /* \"#utility.yul\":2159:2281   */\n      pop\n      jump\t// out\n        /* \"#utility.yul\":2287:2426   */\n    tag_161:\n        /* \"#utility.yul\":2333:2338   */\n      0x00\n        /* \"#utility.yul\":2371:2377   */\n      dup2\n        /* \"#utility.yul\":2358:2378   */\n      calldataload\n        /* \"#utility.yul\":2349:2378   */\n      swap1\n      pop\n        /* \"#utility.yul\":2387:2420   */\n      tag_213\n        /* \"#utility.yul\":2414:2419   */\n      dup2\n        /* \"#utility.yul\":2387:2420   */\n      tag_160\n      jump\t// in\n    tag_213:\n        /* \"#utility.yul\":2287:2426   */\n      swap3\n      swap2\n      pop\n      pop\n      jump\t// out\n        /* \"#utility.yul\":2432:2906   */\n    tag_22:\n        /* \"#utility.yul\":2500:2506   */\n      0x00\n        /* \"#utility.yul\":2508:2514   */\n      dup1\n        /* \"#utility.yul\":2557:2559   */\n      0x40\n        /* \"#utility.yul\":2545:2554   */\n      dup4\n        /* \"#utility.yul\":2536:2543   */\n      dup6\n        /* \"#utility.yul\":2532:2555   */\n      sub\n        /* \"#utility.yul\":2528:2560   */\n      slt\n        /* \"#utility.yul\":2525:2644   */\n      iszero\n      tag_215\n      jumpi\n        /* \"#utility.yul\":2563:2642   */\n      tag_216\n      tag_153\n      jump\t// in\n    tag_216:\n        /* \"#utility.yul\":2525:2644   */\n    tag_215:\n        /* \"#utility.yul\":2683:2684   */\n      0x00\n        /* \"#utility.yul\":2708:2761   */\n      tag_217\n        /* \"#utility.yul\":2753:2760   */\n      dup6\n        /* \"#utility.yul\":2744:2750   */\n      dup3\n        /* \"#utility.yul\":2733:2742   */\n      dup7\n        /* \"#utility.yul\":2729:2751   */\n      add\n        /* \"#utility.yul\":2708:2761   */\n      tag_158\n      jump\t// in\n    tag_217:\n        /* \"#utility.yul\":2698:2761   */\n      swap3\n      pop\n        /* \"#utility.yul\":2654:2771   */\n      pop\n        /* \"#utility.yul\":2810:2812   */\n      0x20\n        /* \"#utility.yul\":2836:2889   */\n      tag_218\n        /* \"#utility.yul\":2881:2888   */\n      dup6\n        /* \"#utility.yul\":2872:2878   */\n      dup3\n        /* \"#utility.yul\":2861:2870   */\n      dup7\n        /* \"#utility.yul\":2857:2879   */\n      add\n        /* \"#utility.yul\":2836:2889   */\n      tag_161\n      jump\t// in\n    tag_218:\n        /* \"#utility.yul\":2826:2889   */\n      swap2\n      pop\n        /* \"#utility.yul\":2781:2899   */\n      pop\n        /* \"#utility.yul\":2432:2906   */\n      swap3\n      pop\n      swap3\n      swap1\n      pop\n      jump\t// out\n        /* \"#utility.yul\":2912:3002   */\n    tag_162:\n        /* \"#utility.yul\":2946:2953   */\n      0x00\n        /* \"#utility.yul\":2989:2994   */\n      dup2\n        /* \"#utility.yul\":2982:2995   */\n      iszero\n        /* \"#utility.yul\":2975:2996   */\n      iszero\n        /* \"#utility.yul\":2964:2996   */\n      swap1\n      pop\n        /* \"#utility.yul\":2912:3002   */\n      swap2\n      swap1\n      pop\n      jump\t// out\n        /* \"#utility.yul\":3008:3117   */\n    tag_163:\n        /* \"#utility.yul\":3089:3110   */\n      tag_221\n        /* \"#utility.yul\":3104:3109   */\n      dup2\n        /* \"#utility.yul\":3089:3110   */\n      tag_162\n      jump\t// in\n    tag_221:\n        /* \"#utility.yul\":3084:3087   */\n      dup3\n        /* \"#utility.yul\":3077:3111   */\n      mstore\n        /* \"#utility.yul\":3008:3117   */\n      pop\n      pop\n      jump\t// out\n        /* \"#utility.yul\":3123:3333   */\n    tag_25:\n        /* \"#utility.yul\":3210:3214   */\n      0x00\n        /* \"#utility.yul\":3248:3250   */\n      0x20\n        /* \"#utility.yul\":3237:3246   */\n      dup3\n        /* \"#utility.yul\":3233:3251   */\n      add\n        /* \"#utility.yul\":3225:3251   */\n      swap1\n      pop\n        /* \"#utility.yul\":3261:3326   */\n      tag_223\n        /* \"#utility.yul\":3323:3324   */\n      0x00\n        /* \"#utility.yul\":3312:3321   */\n      dup4\n        /* \"#utility.yul\":3308:3325   */\n      add\n        /* \"#utility.yul\":3299:3305   */\n      dup5\n        /* \"#utility.yul\":3261:3326   */\n      tag_163\n      jump\t// in\n    tag_223:\n        /* \"#utility.yul\":3123:3333   */\n      swap3\n      swap2\n      pop\n      pop\n      jump\t// out\n        /* \"#utility.yul\":3339:3457   */\n    tag_164:\n        /* \"#utility.yul\":3426:3450   */\n      tag_225\n        /* \"#utility.yul\":3444:3449   */\n      dup2\n        /* \"#utility.yul\":3426:3450   */\n      tag_159\n      jump\t// in\n    tag_225:\n        /* \"#utility.yul\":3421:3424   */\n      dup3\n        /* \"#utility.yul\":3414:3451   */\n      mstore\n        /* \"#utility.yul\":3339:3457   */\n      pop\n      pop\n      jump\t// out\n        /* \"#utility.yul\":3463:3685   */\n    tag_29:\n        /* \"#utility.yul\":3556:3560   */\n      0x00\n        /* \"#utility.yul\":3594:3596   */\n      0x20\n        /* \"#utility.yul\":3583:3592   */\n      dup3\n        /* \"#utility.yul\":3579:3597   */\n      add\n        /* \"#utility.yul\":3571:3597   */\n      swap1\n      pop\n        /* \"#utility.yul\":3607:3678   */\n      tag_227\n        /* \"#utility.yul\":3675:3676   */\n      0x00\n        /* \"#utility.yul\":3664:3673   */\n      dup4\n        /* \"#utility.yul\":3660:3677   */\n      add\n        /* \"#utility.yul\":3651:3657   */\n      dup5\n        /* \"#utility.yul\":3607:3678   */\n      tag_164\n      jump\t// in\n    tag_227:\n        /* \"#utility.yul\":3463:3685   */\n      swap3\n      swap2\n      pop\n      pop\n      jump\t// out\n        /* \"#utility.yul\":3691:4310   */\n    tag_32:\n        /* \"#utility.yul\":3768:3774   */\n      0x00\n        /* \"#utility.yul\":3776:3782   */\n      dup1\n        /* \"#utility.yul\":3784:3790   */\n      0x00\n        /* \"#utility.yul\":3833:3835   */\n      0x60\n        /* \"#utility.yul\":3821:3830   */\n      dup5\n        /* \"#utility.yul\":3812:3819   */\n      dup7\n        /* \"#utility.yul\":3808:3831   */\n      sub\n        /* \"#utility.yul\":3804:3836   */\n      slt\n        /* \"#utility.yul\":3801:3920   */\n      iszero\n      tag_229\n      jumpi\n        /* \"#utility.yul\":3839:3918   */\n      tag_230\n      tag_153\n      jump\t// in\n    tag_230:\n        /* \"#utility.yul\":3801:3920   */\n    tag_229:\n        /* \"#utility.yul\":3959:3960   */\n      0x00\n        /* \"#utility.yul\":3984:4037   */\n      tag_231\n        /* \"#utility.yul\":4029:4036   */\n      dup7\n        /* \"#utility.yul\":4020:4026   */\n      dup3\n        /* \"#utility.yul\":4009:4018   */\n      dup8\n        /* \"#utility.yul\":4005:4027   */\n      add\n        /* \"#utility.yul\":3984:4037   */\n      tag_158\n      jump\t// in\n    tag_231:\n        /* \"#utility.yul\":3974:4037   */\n      swap4\n      pop\n        /* \"#utility.yul\":3930:4047   */\n      pop\n        /* \"#utility.yul\":4086:4088   */\n      0x20\n        /* \"#utility.yul\":4112:4165   */\n      tag_232\n        /* \"#utility.yul\":4157:4164   */\n      dup7\n        /* \"#utility.yul\":4148:4154   */\n      dup3\n        /* \"#utility.yul\":4137:4146   */\n      dup8\n        /* \"#utility.yul\":4133:4155   */\n      add\n        /* \"#utility.yul\":4112:4165   */\n      tag_158\n      jump\t// in\n    tag_232:\n        /* \"#utility.yul\":4102:4165   */\n      swap3\n      pop\n        /* \"#utility.yul\":4057:4175   */\n      pop\n        /* \"#utility.yul\":4214:4216   */\n      0x40\n        /* \"#utility.yul\":4240:4293   */\n      tag_233\n        /* \"#utility.yul\":4285:4292   */\n      dup7\n        /* \"#utility.yul\":4276:4282   */\n      dup3\n        /* \"#utility.yul\":4265:4274   */\n      dup8\n        /* \"#utility.yul\":4261:4283   */\n      add\n        /* \"#utility.yul\":4240:4293   */\n      tag_161\n      jump\t// in\n    tag_233:\n        /* \"#utility.yul\":4230:4293   */\n      swap2\n      pop\n        /* \"#utility.yul\":4185:4303   */\n      pop\n        /* \"#utility.yul\":3691:4310   */\n      swap3\n      pop\n      swap3\n      pop\n      swap3\n      jump\t// out\n        /* \"#utility.yul\":4316:4402   */\n    tag_165:\n        /* \"#utility.yul\":4351:4358   */\n      0x00\n        /* \"#utility.yul\":4391:4395   */\n      0xff\n        /* \"#utility.yul\":4384:4389   */\n      dup3\n        /* \"#utility.yul\":4380:4396   */\n      and\n        /* \"#utility.yul\":4369:4396   */\n      swap1\n      pop\n        /* \"#utility.yul\":4316:4402   */\n      swap2\n      swap1\n      pop\n      jump\t// out\n        /* \"#utility.yul\":4408:4520   */\n    tag_166:\n        /* \"#utility.yul\":4491:4513   */\n      tag_236\n        /* \"#utility.yul\":4507:4512   */\n      dup2\n        /* \"#utility.yul\":4491:4513   */\n      tag_165\n      jump\t// in\n    tag_236:\n        /* \"#utility.yul\":4486:4489   */\n      dup3\n        /* \"#utility.yul\":4479:4514   */\n      mstore\n        /* \"#utility.yul\":4408:4520   */\n      pop\n      pop\n      jump\t// out\n        /* \"#utility.yul\":4526:4740   */\n    tag_38:\n        /* \"#utility.yul\":4615:4619   */\n      0x00\n        /* \"#utility.yul\":4653:4655   */\n      0x20\n        /* \"#utility.yul\":4642:4651   */\n      dup3\n        /* \"#utility.yul\":4638:4656   */\n      add\n        /* \"#utility.yul\":4630:4656   */\n      swap1\n      pop\n        /* \"#utility.yul\":4666:4733   */\n      tag_238\n        /* \"#utility.yul\":4730:4731   */\n      0x00\n        /* \"#utility.yul\":4719:4728   */\n      dup4\n        /* \"#utility.yul\":4715:4732   */\n      add\n        /* \"#utility.yul\":4706:4712   */\n      dup5\n        /* \"#utility.yul\":4666:4733   */\n      tag_166\n      jump\t// in\n    tag_238:\n        /* \"#utility.yul\":4526:4740   */\n      swap3\n      swap2\n      pop\n      pop\n      jump\t// out\n        /* \"#utility.yul\":4746:5075   */\n    tag_47:\n        /* \"#utility.yul\":4805:4811   */\n      0x00\n        /* \"#utility.yul\":4854:4856   */\n      0x20\n        /* \"#utility.yul\":4842:4851   */\n      dup3\n        /* \"#utility.yul\":4833:4840   */\n      dup5\n        /* \"#utility.yul\":4829:4852   */\n      sub\n        /* \"#utility.yul\":4825:4857   */\n      slt\n        /* \"#utility.yul\":4822:4941   */\n      iszero\n      tag_240\n      jumpi\n        /* \"#utility.yul\":4860:4939   */\n      tag_241\n      tag_153\n      jump\t// in\n    tag_241:\n        /* \"#utility.yul\":4822:4941   */\n    tag_240:\n        /* \"#utility.yul\":4980:4981   */\n      0x00\n        /* \"#utility.yul\":5005:5058   */\n      tag_242\n        /* \"#utility.yul\":5050:5057   */\n      dup5\n        /* \"#utility.yul\":5041:5047   */\n      dup3\n        /* \"#utility.yul\":5030:5039   */\n      dup6\n        /* \"#utility.yul\":5026:5048   */\n      add\n        /* \"#utility.yul\":5005:5058   */\n      tag_158\n      jump\t// in\n    tag_242:\n        /* \"#utility.yul\":4995:5058   */\n      swap2\n      pop\n        /* \"#utility.yul\":4951:5068   */\n      pop\n        /* \"#utility.yul\":4746:5075   */\n      swap3\n      swap2\n      pop\n      pop\n      jump\t// out\n        /* \"#utility.yul\":5081:5555   */\n    tag_63:\n        /* \"#utility.yul\":5149:5155   */\n      0x00\n        /* \"#utility.yul\":5157:5163   */\n      dup1\n        /* \"#utility.yul\":5206:5208   */\n      0x40\n        /* \"#utility.yul\":5194:5203   */\n      dup4\n        /* \"#utility.yul\":5185:5192   */\n      dup6\n        /* \"#utility.yul\":5181:5204   */\n      sub\n        /* \"#utility.yul\":5177:5209   */\n      slt\n        /* \"#utility.yul\":5174:5293   */\n      iszero\n      tag_244\n      jumpi\n        /* \"#utility.yul\":5212:5291   */\n      tag_245\n      tag_153\n      jump\t// in\n    tag_245:\n        /* \"#utility.yul\":5174:5293   */\n    tag_244:\n        /* \"#utility.yul\":5332:5333   */\n      0x00\n        /* \"#utility.yul\":5357:5410   */\n      tag_246\n        /* \"#utility.yul\":5402:5409   */\n      dup6\n        /* \"#utility.yul\":5393:5399   */\n      dup3\n        /* \"#utility.yul\":5382:5391   */\n      dup7\n        /* \"#utility.yul\":5378:5400   */\n      add\n        /* \"#utility.yul\":5357:5410   */\n      tag_158\n      jump\t// in\n    tag_246:\n        /* \"#utility.yul\":5347:5410   */\n      swap3\n      pop\n        /* \"#utility.yul\":5303:5420   */\n      pop\n        /* \"#utility.yul\":5459:5461   */\n      0x20\n        /* \"#utility.yul\":5485:5538   */\n      tag_247\n        /* \"#utility.yul\":5530:5537   */\n      dup6\n        /* \"#utility.yul\":5521:5527   */\n      dup3\n        /* \"#utility.yul\":5510:5519   */\n      dup7\n        /* \"#utility.yul\":5506:5528   */\n      add\n        /* \"#utility.yul\":5485:5538   */\n      tag_158\n      jump\t// in\n    tag_247:\n        /* \"#utility.yul\":5475:5538   */\n      swap2\n      pop\n        /* \"#utility.yul\":5430:5548   */\n      pop\n        /* \"#utility.yul\":5081:5555   */\n      swap3\n      pop\n      swap3\n      swap1\n      pop\n      jump\t// out\n        /* \"#utility.yul\":5561:5741   */\n    tag_167:\n        /* \"#utility.yul\":5609:5686   */\n      0x4e487b7100000000000000000000000000000000000000000000000000000000\n        /* \"#utility.yul\":5606:5607   */\n      0x00\n        /* \"#utility.yul\":5599:5687   */\n      mstore\n        /* \"#utility.yul\":5706:5710   */\n      0x22\n        /* \"#utility.yul\":5703:5704   */\n      0x04\n        /* \"#utility.yul\":5696:5711   */\n      mstore\n        /* \"#utility.yul\":5730:5734   */\n      0x24\n        /* \"#utility.yul\":5727:5728   */\n      0x00\n        /* \"#utility.yul\":5720:5735   */\n      revert\n        /* \"#utility.yul\":5747:6067   */\n    tag_68:\n        /* \"#utility.yul\":5791:5797   */\n      0x00\n        /* \"#utility.yul\":5828:5829   */\n      0x02\n        /* \"#utility.yul\":5822:5826   */\n      dup3\n        /* \"#utility.yul\":5818:5830   */\n      div\n        /* \"#utility.yul\":5808:5830   */\n      swap1\n      pop\n        /* \"#utility.yul\":5875:5876   */\n      0x01\n        /* \"#utility.yul\":5869:5873   */\n      dup3\n        /* \"#utility.yul\":5865:5877   */\n      and\n        /* \"#utility.yul\":5896:5914   */\n      dup1\n        /* \"#utility.yul\":5886:5967   */\n      tag_250\n      jumpi\n        /* \"#utility.yul\":5952:5956   */\n      0x7f\n        /* \"#utility.yul\":5944:5950   */\n      dup3\n        /* \"#utility.yul\":5940:5957   */\n      and\n        /* \"#utility.yul\":5930:5957   */\n      swap2\n      pop\n        /* \"#utility.yul\":5886:5967   */\n    tag_250:\n        /* \"#utility.yul\":6014:6016   */\n      0x20\n        /* \"#utility.yul\":6006:6012   */\n      dup3\n        /* \"#utility.yul\":6003:6017   */\n      lt\n        /* \"#utility.yul\":5983:6001   */\n      dup2\n        /* \"#utility.yul\":5980:6018   */\n      sub\n        /* \"#utility.yul\":5977:6061   */\n      tag_251\n      jumpi\n        /* \"#utility.yul\":6033:6051   */\n      tag_252\n      tag_167\n      jump\t// in\n    tag_252:\n        /* \"#utility.yul\":5977:6061   */\n    tag_251:\n        /* \"#utility.yul\":5798:6067   */\n      pop\n        /* \"#utility.yul\":5747:6067   */\n      swap2\n      swap1\n      pop\n      jump\t// out\n        /* \"#utility.yul\":6073:6253   */\n    tag_168:\n        /* \"#utility.yul\":6121:6198   */\n      0x4e487b7100000000000000000000000000000000000000000000000000000000\n        /* \"#utility.yul\":6118:6119   */\n      0x00\n        /* \"#utility.yul\":6111:6199   */\n      mstore\n        /* \"#utility.yul\":6218:6222   */\n      0x11\n        /* \"#utility.yul\":6215:6216   */\n      0x04\n        /* \"#utility.yul\":6208:6223   */\n      mstore\n        /* \"#utility.yul\":6242:6246   */\n      0x24\n        /* \"#utility.yul\":6239:6240   */\n      0x00\n        /* \"#utility.yul\":6232:6247   */\n      revert\n        /* \"#utility.yul\":6259:6450   */\n    tag_86:\n        /* \"#utility.yul\":6299:6302   */\n      0x00\n        /* \"#utility.yul\":6318:6338   */\n      tag_255\n        /* \"#utility.yul\":6336:6337   */\n      dup3\n        /* \"#utility.yul\":6318:6338   */\n      tag_159\n      jump\t// in\n    tag_255:\n        /* \"#utility.yul\":6313:6338   */\n      swap2\n      pop\n        /* \"#utility.yul\":6352:6372   */\n      tag_256\n        /* \"#utility.yul\":6370:6371   */\n      dup4\n        /* \"#utility.yul\":6352:6372   */\n      tag_159\n      jump\t// in\n    tag_256:\n        /* \"#utility.yul\":6347:6372   */\n      swap3\n      pop\n        /* \"#utility.yul\":6395:6396   */\n      dup3\n        /* \"#utility.yul\":6392:6393   */\n      dup3\n        /* \"#utility.yul\":6388:6397   */\n      add\n        /* \"#utility.yul\":6381:6397   */\n      swap1\n      pop\n        /* \"#utility.yul\":6416:6419   */\n      dup1\n        /* \"#utility.yul\":6413:6414   */\n      dup3\n        /* \"#utility.yul\":6410:6420   */\n      gt\n        /* \"#utility.yul\":6407:6443   */\n      iszero\n      tag_257\n      jumpi\n        /* \"#utility.yul\":6423:6441   */\n      tag_258\n      tag_168\n      jump\t// in\n    tag_258:\n        /* \"#utility.yul\":6407:6443   */\n    tag_257:\n        /* \"#utility.yul\":6259:6450   */\n      swap3\n      swap2\n      pop\n      pop\n      jump\t// out\n        /* \"#utility.yul\":6456:6680   */\n    tag_169:\n        /* \"#utility.yul\":6596:6630   */\n      0x45524332303a2064656372656173656420616c6c6f77616e63652062656c6f77\n        /* \"#utility.yul\":6592:6593   */\n      0x00\n        /* \"#utility.yul\":6584:6590   */\n      dup3\n        /* \"#utility.yul\":6580:6594   */\n      add\n        /* \"#utility.yul\":6573:6631   */\n      mstore\n        /* \"#utility.yul\":6665:6672   */\n      0x207a65726f000000000000000000000000000000000000000000000000000000\n        /* \"#utility.yul\":6660:6662   */\n      0x20\n        /* \"#utility.yul\":6652:6658   */\n      dup3\n        /* \"#utility.yul\":6648:6663   */\n      add\n        /* \"#utility.yul\":6641:6673   */\n      mstore\n        /* \"#utility.yul\":6456:6680   */\n      pop\n      jump\t// out\n        /* \"#utility.yul\":6686:7052   */\n    tag_170:\n        /* \"#utility.yul\":6828:6831   */\n      0x00\n        /* \"#utility.yul\":6849:6916   */\n      tag_261\n        /* \"#utility.yul\":6913:6915   */\n      0x25\n        /* \"#utility.yul\":6908:6911   */\n      dup4\n        /* \"#utility.yul\":6849:6916   */\n      tag_148\n      jump\t// in\n    tag_261:\n        /* \"#utility.yul\":6842:6916   */\n      swap2\n      pop\n        /* \"#utility.yul\":6925:7018   */\n      tag_262\n        /* \"#utility.yul\":7014:7017   */\n      dup3\n        /* \"#utility.yul\":6925:7018   */\n      tag_169\n      jump\t// in\n    tag_262:\n        /* \"#utility.yul\":7043:7045   */\n      0x40\n        /* \"#utility.yul\":7038:7041   */\n      dup3\n        /* \"#utility.yul\":7034:7046   */\n      add\n        /* \"#utility.yul\":7027:7046   */\n      swap1\n      pop\n        /* \"#utility.yul\":6686:7052   */\n      swap2\n      swap1\n      pop\n      jump\t// out\n        /* \"#utility.yul\":7058:7477   */\n    tag_100:\n        /* \"#utility.yul\":7224:7228   */\n      0x00\n        /* \"#utility.yul\":7262:7264   */\n      0x20\n        /* \"#utility.yul\":7251:7260   */\n      dup3\n        /* \"#utility.yul\":7247:7265   */\n      add\n        /* \"#utility.yul\":7239:7265   */\n      swap1\n      pop\n        /* \"#utility.yul\":7311:7320   */\n      dup2\n        /* \"#utility.yul\":7305:7309   */\n      dup2\n        /* \"#utility.yul\":7301:7321   */\n      sub\n        /* \"#utility.yul\":7297:7298   */\n      0x00\n        /* \"#utility.yul\":7286:7295   */\n      dup4\n        /* \"#utility.yul\":7282:7299   */\n      add\n        /* \"#utility.yul\":7275:7322   */\n      mstore\n        /* \"#utility.yul\":7339:7470   */\n      tag_264\n        /* \"#utility.yul\":7465:7469   */\n      dup2\n        /* \"#utility.yul\":7339:7470   */\n      tag_170\n      jump\t// in\n    tag_264:\n        /* \"#utility.yul\":7331:7470   */\n      swap1\n      pop\n        /* \"#utility.yul\":7058:7477   */\n      swap2\n      swap1\n      pop\n      jump\t// out\n        /* \"#utility.yul\":7483:7706   */\n    tag_171:\n        /* \"#utility.yul\":7623:7657   */\n      0x45524332303a20617070726f76652066726f6d20746865207a65726f20616464\n        /* \"#utility.yul\":7619:7620   */\n      0x00\n        /* \"#utility.yul\":7611:7617   */\n      dup3\n        /* \"#utility.yul\":7607:7621   */\n      add\n        /* \"#utility.yul\":7600:7658   */\n      mstore\n        /* \"#utility.yul\":7692:7698   */\n      0x7265737300000000000000000000000000000000000000000000000000000000\n        /* \"#utility.yul\":7687:7689   */\n      0x20\n        /* \"#utility.yul\":7679:7685   */\n      dup3\n        /* \"#utility.yul\":7675:7690   */\n      add\n        /* \"#utility.yul\":7668:7699   */\n      mstore\n        /* \"#utility.yul\":7483:7706   */\n      pop\n      jump\t// out\n        /* \"#utility.yul\":7712:8078   */\n    tag_172:\n        /* \"#utility.yul\":7854:7857   */\n      0x00\n        /* \"#utility.yul\":7875:7942   */\n      tag_267\n        /* \"#utility.yul\":7939:7941   */\n      0x24\n        /* \"#utility.yul\":7934:7937   */\n      dup4\n        /* \"#utility.yul\":7875:7942   */\n      tag_148\n      jump\t// in\n    tag_267:\n        /* \"#utility.yul\":7868:7942   */\n      swap2\n      pop\n        /* \"#utility.yul\":7951:8044   */\n      tag_268\n        /* \"#utility.yul\":8040:8043   */\n      dup3\n        /* \"#utility.yul\":7951:8044   */\n      tag_171\n      jump\t// in\n    tag_268:\n        /* \"#utility.yul\":8069:8071   */\n      0x40\n        /* \"#utility.yul\":8064:8067   */\n      dup3\n        /* \"#utility.yul\":8060:8072   */\n      add\n        /* \"#utility.yul\":8053:8072   */\n      swap1\n      pop\n        /* \"#utility.yul\":7712:8078   */\n      swap2\n      swap1\n      pop\n      jump\t// out\n        /* \"#utility.yul\":8084:8503   */\n    tag_108:\n        /* \"#utility.yul\":8250:8254   */\n      0x00\n        /* \"#utility.yul\":8288:8290   */\n      0x20\n        /* \"#utility.yul\":8277:8286   */\n      dup3\n        /* \"#utility.yul\":8273:8291   */\n      add\n        /* \"#utility.yul\":8265:8291   */\n      swap1\n      pop\n        /* \"#utility.yul\":8337:8346   */\n      dup2\n        /* \"#utility.yul\":8331:8335   */\n      dup2\n        /* \"#utility.yul\":8327:8347   */\n      sub\n        /* \"#utility.yul\":8323:8324   */\n      0x00\n        /* \"#utility.yul\":8312:8321   */\n      dup4\n        /* \"#utility.yul\":8308:8325   */\n      add\n        /* \"#utility.yul\":8301:8348   */\n      mstore\n        /* \"#utility.yul\":8365:8496   */\n      tag_270\n        /* \"#utility.yul\":8491:8495   */\n      dup2\n        /* \"#utility.yul\":8365:8496   */\n      tag_172\n      jump\t// in\n    tag_270:\n        /* \"#utility.yul\":8357:8496   */\n      swap1\n      pop\n        /* \"#utility.yul\":8084:8503   */\n      swap2\n      swap1\n      pop\n      jump\t// out\n        /* \"#utility.yul\":8509:8730   */\n    tag_173:\n        /* \"#utility.yul\":8649:8683   */\n      0x45524332303a20617070726f766520746f20746865207a65726f206164647265\n        /* \"#utility.yul\":8645:8646   */\n      0x00\n        /* \"#utility.yul\":8637:8643   */\n      dup3\n        /* \"#utility.yul\":8633:8647   */\n      add\n        /* \"#utility.yul\":8626:8684   */\n      mstore\n        /* \"#utility.yul\":8718:8722   */\n      0x7373000000000000000000000000000000000000000000000000000000000000\n        /* \"#utility.yul\":8713:8715   */\n      0x20\n        /* \"#utility.yul\":8705:8711   */\n      dup3\n        /* \"#utility.yul\":8701:8716   */\n      add\n        /* \"#utility.yul\":8694:8723   */\n      mstore\n        /* \"#utility.yul\":8509:8730   */\n      pop\n      jump\t// out\n        /* \"#utility.yul\":8736:9102   */\n    tag_174:\n        /* \"#utility.yul\":8878:8881   */\n      0x00\n        /* \"#utility.yul\":8899:8966   */\n      tag_273\n        /* \"#utility.yul\":8963:8965   */\n      0x22\n        /* \"#utility.yul\":8958:8961   */\n      dup4\n        /* \"#utility.yul\":8899:8966   */\n      tag_148\n      jump\t// in\n    tag_273:\n        /* \"#utility.yul\":8892:8966   */\n      swap2\n      pop\n        /* \"#utility.yul\":8975:9068   */\n      tag_274\n        /* \"#utility.yul\":9064:9067   */\n      dup3\n        /* \"#utility.yul\":8975:9068   */\n      tag_173\n      jump\t// in\n    tag_274:\n        /* \"#utility.yul\":9093:9095   */\n      0x40\n        /* \"#utility.yul\":9088:9091   */\n      dup3\n        /* \"#utility.yul\":9084:9096   */\n      add\n        /* \"#utility.yul\":9077:9096   */\n      swap1\n      pop\n        /* \"#utility.yul\":8736:9102   */\n      swap2\n      swap1\n      pop\n      jump\t// out\n        /* \"#utility.yul\":9108:9527   */\n    tag_111:\n        /* \"#utility.yul\":9274:9278   */\n      0x00\n        /* \"#utility.yul\":9312:9314   */\n      0x20\n        /* \"#utility.yul\":9301:9310   */\n      dup3\n        /* \"#utility.yul\":9297:9315   */\n      add\n        /* \"#utility.yul\":9289:9315   */\n      swap1\n      pop\n        /* \"#utility.yul\":9361:9370   */\n      dup2\n        /* \"#utility.yul\":9355:9359   */\n      dup2\n        /* \"#utility.yul\":9351:9371   */\n      sub\n        /* \"#utility.yul\":9347:9348   */\n      0x00\n        /* \"#utility.yul\":9336:9345   */\n      dup4\n        /* \"#utility.yul\":9332:9349   */\n      add\n        /* \"#utility.yul\":9325:9372   */\n      mstore\n        /* \"#utility.yul\":9389:9520   */\n      tag_276\n        /* \"#utility.yul\":9515:9519   */\n      dup2\n        /* \"#utility.yul\":9389:9520   */\n      tag_174\n      jump\t// in\n    tag_276:\n        /* \"#utility.yul\":9381:9520   */\n      swap1\n      pop\n        /* \"#utility.yul\":9108:9527   */\n      swap2\n      swap1\n      pop\n      jump\t// out\n        /* \"#utility.yul\":9533:9712   */\n    tag_175:\n        /* \"#utility.yul\":9673:9704   */\n      0x45524332303a20696e73756666696369656e7420616c6c6f77616e6365000000\n        /* \"#utility.yul\":9669:9670   */\n      0x00\n        /* \"#utility.yul\":9661:9667   */\n      dup3\n        /* \"#utility.yul\":9657:9671   */\n      add\n        /* \"#utility.yul\":9650:9705   */\n      mstore\n        /* \"#utility.yul\":9533:9712   */\n      pop\n      jump\t// out\n        /* \"#utility.yul\":9718:10084   */\n    tag_176:\n        /* \"#utility.yul\":9860:9863   */\n      0x00\n        /* \"#utility.yul\":9881:9948   */\n      tag_279\n        /* \"#utility.yul\":9945:9947   */\n      0x1d\n        /* \"#utility.yul\":9940:9943   */\n      dup4\n        /* \"#utility.yul\":9881:9948   */\n      tag_148\n      jump\t// in\n    tag_279:\n        /* \"#utility.yul\":9874:9948   */\n      swap2\n      pop\n        /* \"#utility.yul\":9957:10050   */\n      tag_280\n        /* \"#utility.yul\":10046:10049   */\n      dup3\n        /* \"#utility.yul\":9957:10050   */\n      tag_175\n      jump\t// in\n    tag_280:\n        /* \"#utility.yul\":10075:10077   */\n      0x20\n        /* \"#utility.yul\":10070:10073   */\n      dup3\n        /* \"#utility.yul\":10066:10078   */\n      add\n        /* \"#utility.yul\":10059:10078   */\n      swap1\n      pop\n        /* \"#utility.yul\":9718:10084   */\n      swap2\n      swap1\n      pop\n      jump\t// out\n        /* \"#utility.yul\":10090:10509   */\n    tag_118:\n        /* \"#utility.yul\":10256:10260   */\n      0x00\n        /* \"#utility.yul\":10294:10296   */\n      0x20\n        /* \"#utility.yul\":10283:10292   */\n      dup3\n        /* \"#utility.yul\":10279:10297   */\n      add\n        /* \"#utility.yul\":10271:10297   */\n      swap1\n      pop\n        /* \"#utility.yul\":10343:10352   */\n      dup2\n        /* \"#utility.yul\":10337:10341   */\n      dup2\n        /* \"#utility.yul\":10333:10353   */\n      sub\n        /* \"#utility.yul\":10329:10330   */\n      0x00\n        /* \"#utility.yul\":10318:10327   */\n      dup4\n        /* \"#utility.yul\":10314:10331   */\n      add\n        /* \"#utility.yul\":10307:10354   */\n      mstore\n        /* \"#utility.yul\":10371:10502   */\n      tag_282\n        /* \"#utility.yul\":10497:10501   */\n      dup2\n        /* \"#utility.yul\":10371:10502   */\n      tag_176\n      jump\t// in\n    tag_282:\n        /* \"#utility.yul\":10363:10502   */\n      swap1\n      pop\n        /* \"#utility.yul\":10090:10509   */\n      swap2\n      swap1\n      pop\n      jump\t// out\n        /* \"#utility.yul\":10515:10739   */\n    tag_177:\n        /* \"#utility.yul\":10655:10689   */\n      0x45524332303a207472616e736665722066726f6d20746865207a65726f206164\n        /* \"#utility.yul\":10651:10652   */\n      0x00\n        /* \"#utility.yul\":10643:10649   */\n      dup3\n        /* \"#utility.yul\":10639:10653   */\n      add\n        /* \"#utility.yul\":10632:10690   */\n      mstore\n        /* \"#utility.yul\":10724:10731   */\n      0x6472657373000000000000000000000000000000000000000000000000000000\n        /* \"#utility.yul\":10719:10721   */\n      0x20\n        /* \"#utility.yul\":10711:10717   */\n      dup3\n        /* \"#utility.yul\":10707:10722   */\n      add\n        /* \"#utility.yul\":10700:10732   */\n      mstore\n        /* \"#utility.yul\":10515:10739   */\n      pop\n      jump\t// out\n        /* \"#utility.yul\":10745:11111   */\n    tag_178:\n        /* \"#utility.yul\":10887:10890   */\n      0x00\n        /* \"#utility.yul\":10908:10975   */\n      tag_285\n        /* \"#utility.yul\":10972:10974   */\n      0x25\n        /* \"#utility.yul\":10967:10970   */\n      dup4\n        /* \"#utility.yul\":10908:10975   */\n      tag_148\n      jump\t// in\n    tag_285:\n        /* \"#utility.yul\":10901:10975   */\n      swap2\n      pop\n        /* \"#utility.yul\":10984:11077   */\n      tag_286\n        /* \"#utility.yul\":11073:11076   */\n      dup3\n        /* \"#utility.yul\":10984:11077   */\n      tag_177\n      jump\t// in\n    tag_286:\n        /* \"#utility.yul\":11102:11104   */\n      0x40\n        /* \"#utility.yul\":11097:11100   */\n      dup3\n        /* \"#utility.yul\":11093:11105   */\n      add\n        /* \"#utility.yul\":11086:11105   */\n      swap1\n      pop\n        /* \"#utility.yul\":10745:11111   */\n      swap2\n      swap1\n      pop\n      jump\t// out\n        /* \"#utility.yul\":11117:11536   */\n    tag_123:\n        /* \"#utility.yul\":11283:11287   */\n      0x00\n        /* \"#utility.yul\":11321:11323   */\n      0x20\n        /* \"#utility.yul\":11310:11319   */\n      dup3\n        /* \"#utility.yul\":11306:11324   */\n      add\n        /* \"#utility.yul\":11298:11324   */\n      swap1\n      pop\n        /* \"#utility.yul\":11370:11379   */\n      dup2\n        /* \"#utility.yul\":11364:11368   */\n      dup2\n        /* \"#utility.yul\":11360:11380   */\n      sub\n        /* \"#utility.yul\":11356:11357   */\n      0x00\n        /* \"#utility.yul\":11345:11354   */\n      dup4\n        /* \"#utility.yul\":11341:11358   */\n      add\n        /* \"#utility.yul\":11334:11381   */\n      mstore\n        /* \"#utility.yul\":11398:11529   */\n      tag_288\n        /* \"#utility.yul\":11524:11528   */\n      dup2\n        /* \"#utility.yul\":11398:11529   */\n      tag_178\n      jump\t// in\n    tag_288:\n        /* \"#utility.yul\":11390:11529   */\n      swap1\n      pop\n        /* \"#utility.yul\":11117:11536   */\n      swap2\n      swap1\n      pop\n      jump\t// out\n        /* \"#utility.yul\":11542:11764   */\n    tag_179:\n        /* \"#utility.yul\":11682:11716   */\n      0x45524332303a207472616e7366657220746f20746865207a65726f2061646472\n        /* \"#utility.yul\":11678:11679   */\n      0x00\n        /* \"#utility.yul\":11670:11676   */\n      dup3\n        /* \"#utility.yul\":11666:11680   */\n      add\n        /* \"#utility.yul\":11659:11717   */\n      mstore\n        /* \"#utility.yul\":11751:11756   */\n      0x6573730000000000000000000000000000000000000000000000000000000000\n        /* \"#utility.yul\":11746:11748   */\n      0x20\n        /* \"#utility.yul\":11738:11744   */\n      dup3\n        /* \"#utility.yul\":11734:11749   */\n      add\n        /* \"#utility.yul\":11727:11757   */\n      mstore\n        /* \"#utility.yul\":11542:11764   */\n      pop\n      jump\t// out\n        /* \"#utility.yul\":11770:12136   */\n    tag_180:\n        /* \"#utility.yul\":11912:11915   */\n      0x00\n        /* \"#utility.yul\":11933:12000   */\n      tag_291\n        /* \"#utility.yul\":11997:11999   */\n      0x23\n        /* \"#utility.yul\":11992:11995   */\n      dup4\n        /* \"#utility.yul\":11933:12000   */\n      tag_148\n      jump\t// in\n    tag_291:\n        /* \"#utility.yul\":11926:12000   */\n      swap2\n      pop\n        /* \"#utility.yul\":12009:12102   */\n      tag_292\n        /* \"#utility.yul\":12098:12101   */\n      dup3\n        /* \"#utility.yul\":12009:12102   */\n      tag_179\n      jump\t// in\n    tag_292:\n        /* \"#utility.yul\":12127:12129   */\n      0x40\n        /* \"#utility.yul\":12122:12125   */\n      dup3\n        /* \"#utility.yul\":12118:12130   */\n      add\n        /* \"#utility.yul\":12111:12130   */\n      swap1\n      pop\n        /* \"#utility.yul\":11770:12136   */\n      swap2\n      swap1\n      pop\n      jump\t// out\n        /* \"#utility.yul\":12142:12561   */\n    tag_126:\n        /* \"#utility.yul\":12308:12312   */\n      0x00\n        /* \"#utility.yul\":12346:12348   */\n      0x20\n        /* \"#utility.yul\":12335:12344   */\n      dup3\n        /* \"#utility.yul\":12331:12349   */\n      add\n        /* \"#utility.yul\":12323:12349   */\n      swap1\n      pop\n        /* \"#utility.yul\":12395:12404   */\n      dup2\n        /* \"#utility.yul\":12389:12393   */\n      dup2\n        /* \"#utility.yul\":12385:12405   */\n      sub\n        /* \"#utility.yul\":12381:12382   */\n      0x00\n        /* \"#utility.yul\":12370:12379   */\n      dup4\n        /* \"#utility.yul\":12366:12383   */\n      add\n        /* \"#utility.yul\":12359:12406   */\n      mstore\n        /* \"#utility.yul\":12423:12554   */\n      tag_294\n        /* \"#utility.yul\":12549:12553   */\n      dup2\n        /* \"#utility.yul\":12423:12554   */\n      tag_180\n      jump\t// in\n    tag_294:\n        /* \"#utility.yul\":12415:12554   */\n      swap1\n      pop\n        /* \"#utility.yul\":12142:12561   */\n      swap2\n      swap1\n      pop\n      jump\t// out\n        /* \"#utility.yul\":12567:12792   */\n    tag_181:\n        /* \"#utility.yul\":12707:12741   */\n      0x45524332303a207472616e7366657220616d6f756e7420657863656564732062\n        /* \"#utility.yul\":12703:12704   */\n      0x00\n        /* \"#utility.yul\":12695:12701   */\n      dup3\n        /* \"#utility.yul\":12691:12705   */\n      add\n        /* \"#utility.yul\":12684:12742   */\n      mstore\n        /* \"#utility.yul\":12776:12784   */\n      0x616c616e63650000000000000000000000000000000000000000000000000000\n        /* \"#utility.yul\":12771:12773   */\n      0x20\n        /* \"#utility.yul\":12763:12769   */\n      dup3\n        /* \"#utility.yul\":12759:12774   */\n      add\n        /* \"#utility.yul\":12752:12785   */\n      mstore\n        /* \"#utility.yul\":12567:12792   */\n      pop\n      jump\t// out\n        /* \"#utility.yul\":12798:13164   */\n    tag_182:\n        /* \"#utility.yul\":12940:12943   */\n      0x00\n        /* \"#utility.yul\":12961:13028   */\n      tag_297\n        /* \"#utility.yul\":13025:13027   */\n      0x26\n        /* \"#utility.yul\":13020:13023   */\n      dup4\n        /* \"#utility.yul\":12961:13028   */\n      tag_148\n      jump\t// in\n    tag_297:\n        /* \"#utility.yul\":12954:13028   */\n      swap2\n      pop\n        /* \"#utility.yul\":13037:13130   */\n      tag_298\n        /* \"#utility.yul\":13126:13129   */\n      dup3\n        /* \"#utility.yul\":13037:13130   */\n      tag_181\n      jump\t// in\n    tag_298:\n        /* \"#utility.yul\":13155:13157   */\n      0x40\n        /* \"#utility.yul\":13150:13153   */\n      dup3\n        /* \"#utility.yul\":13146:13158   */\n      add\n        /* \"#utility.yul\":13139:13158   */\n      swap1\n      pop\n        /* \"#utility.yul\":12798:13164   */\n      swap2\n      swap1\n      pop\n      jump\t// out\n        /* \"#utility.yul\":13170:13589   */\n    tag_131:\n        /* \"#utility.yul\":13336:13340   */\n      0x00\n        /* \"#utility.yul\":13374:13376   */\n      0x20\n        /* \"#utility.yul\":13363:13372   */\n      dup3\n        /* \"#utility.yul\":13359:13377   */\n      add\n        /* \"#utility.yul\":13351:13377   */\n      swap1\n      pop\n        /* \"#utility.yul\":13423:13432   */\n      dup2\n        /* \"#utility.yul\":13417:13421   */\n      dup2\n        /* \"#utility.yul\":13413:13433   */\n      sub\n        /* \"#utility.yul\":13409:13410   */\n      0x00\n        /* \"#utility.yul\":13398:13407   */\n      dup4\n        /* \"#utility.yul\":13394:13411   */\n      add\n        /* \"#utility.yul\":13387:13434   */\n      mstore\n        /* \"#utility.yul\":13451:13582   */\n      tag_300\n        /* \"#utility.yul\":13577:13581   */\n      dup2\n        /* \"#utility.yul\":13451:13582   */\n      tag_182\n      jump\t// in\n    tag_300:\n        /* \"#utility.yul\":13443:13582   */\n      swap1\n      pop\n        /* \"#utility.yul\":13170:13589   */\n      swap2\n      swap1\n      pop\n      jump\t// out\n        /* \"#utility.yul\":13595:13776   */\n    tag_183:\n        /* \"#utility.yul\":13735:13768   */\n      0x45524332303a206d696e7420746f20746865207a65726f206164647265737300\n        /* \"#utility.yul\":13731:13732   */\n      0x00\n        /* \"#utility.yul\":13723:13729   */\n      dup3\n        /* \"#utility.yul\":13719:13733   */\n      add\n        /* \"#utility.yul\":13712:13769   */\n      mstore\n        /* \"#utility.yul\":13595:13776   */\n      pop\n      jump\t// out\n        /* \"#utility.yul\":13782:14148   */\n    tag_184:\n        /* \"#utility.yul\":13924:13927   */\n      0x00\n        /* \"#utility.yul\":13945:14012   */\n      tag_303\n        /* \"#utility.yul\":14009:14011   */\n      0x1f\n        /* \"#utility.yul\":14004:14007   */\n      dup4\n        /* \"#utility.yul\":13945:14012   */\n      tag_148\n      jump\t// in\n    tag_303:\n        /* \"#utility.yul\":13938:14012   */\n      swap2\n      pop\n        /* \"#utility.yul\":14021:14114   */\n      tag_304\n        /* \"#utility.yul\":14110:14113   */\n      dup3\n        /* \"#utility.yul\":14021:14114   */\n      tag_183\n      jump\t// in\n    tag_304:\n        /* \"#utility.yul\":14139:14141   */\n      0x20\n        /* \"#utility.yul\":14134:14137   */\n      dup3\n        /* \"#utility.yul\":14130:14142   */\n      add\n        /* \"#utility.yul\":14123:14142   */\n      swap1\n      pop\n        /* \"#utility.yul\":13782:14148   */\n      swap2\n      swap1\n      pop\n      jump\t// out\n        /* \"#utility.yul\":14154:14573   */\n    tag_139:\n        /* \"#utility.yul\":14320:14324   */\n      0x00\n        /* \"#utility.yul\":14358:14360   */\n      0x20\n        /* \"#utility.yul\":14347:14356   */\n      dup3\n        /* \"#utility.yul\":14343:14361   */\n      add\n        /* \"#utility.yul\":14335:14361   */\n      swap1\n      pop\n        /* \"#utility.yul\":14407:14416   */\n      dup2\n        /* \"#utility.yul\":14401:14405   */\n      dup2\n        /* \"#utility.yul\":14397:14417   */\n      sub\n        /* \"#utility.yul\":14393:14394   */\n      0x00\n        /* \"#utility.yul\":14382:14391   */\n      dup4\n        /* \"#utility.yul\":14378:14395   */\n      add\n        /* \"#utility.yul\":14371:14418   */\n      mstore\n        /* \"#utility.yul\":14435:14566   */\n      tag_306\n        /* \"#utility.yul\":14561:14565   */\n      dup2\n        /* \"#utility.yul\":14435:14566   */\n      tag_184\n      jump\t// in\n    tag_306:\n        /* \"#utility.yul\":14427:14566   */\n      swap1\n      pop\n        /* \"#utility.yul\":14154:14573   */\n      swap2\n      swap1\n      pop\n      jump\t// out\n\n    auxdata: 0xa2646970667358221220173a44075e834ef228a77125852f26aa61e34cc603d660f5dcf561e33bbf944464736f6c634300081a0033\n}\n",
				"bytecode": {
					"linkReferences": {},
					"object": "608060405234801561000f575f80fd5b506040518060400160405280600481526020017f4a6f616e000000000000000000000000000000000000000000000000000000008152506040518060400160405280600281526020017f4a41000000000000000000000000000000000000000000000000000000000000815250816003908161008b91906102dd565b50806004908161009b91906102dd565b5050506103ac565b5f81519050919050565b7f4e487b71000000000000000000000000000000000000000000000000000000005f52604160045260245ffd5b7f4e487b71000000000000000000000000000000000000000000000000000000005f52602260045260245ffd5b5f600282049050600182168061011e57607f821691505b602082108103610131576101306100da565b5b50919050565b5f819050815f5260205f209050919050565b5f6020601f8301049050919050565b5f82821b905092915050565b5f600883026101937fffffffffffffffffffffffffffffffffffffffffffffffffffffffffffffffff82610158565b61019d8683610158565b95508019841693508086168417925050509392505050565b5f819050919050565b5f819050919050565b5f6101e16101dc6101d7846101b5565b6101be565b6101b5565b9050919050565b5f819050919050565b6101fa836101c7565b61020e610206826101e8565b848454610164565b825550505050565b5f90565b610222610216565b61022d8184846101f1565b505050565b5b81811015610250576102455f8261021a565b600181019050610233565b5050565b601f8211156102955761026681610137565b61026f84610149565b8101602085101561027e578190505b61029261028a85610149565b830182610232565b50505b505050565b5f82821c905092915050565b5f6102b55f198460080261029a565b1980831691505092915050565b5f6102cd83836102a6565b9150826002028217905092915050565b6102e6826100a3565b67ffffffffffffffff8111156102ff576102fe6100ad565b5b6103098254610107565b610314828285610254565b5f60209050601f831160018114610345575f8415610333578287015190505b61033d85826102c2565b8655506103a4565b601f19841661035386610137565b5f5b8281101561037a57848901518255600182019150602085019450602081019050610355565b868310156103975784890151610393601f8916826102a6565b8355505b6001600288020188555050505b505050505050565b611448806103b95f395ff3fe608060405234801561000f575f80fd5b50600436106100b2575f3560e01c8063467bc5c01161006f578063467bc5c0146101a057806370a08231146101aa57806395d89b41146101da578063a457c2d7146101f8578063a9059cbb14610228578063dd62ed3e14610258576100b2565b806306fdde03146100b6578063095ea7b3146100d457806318160ddd1461010457806323b872dd14610122578063313ce567146101525780633950935114610170575b5f80fd5b6100be610288565b6040516100cb9190610cfa565b60405180910390f35b6100ee60048036038101906100e99190610dab565b610318565b6040516100fb9190610e03565b60405180910390f35b61010c610333565b6040516101199190610e2b565b60405180910390f35b61013c60048036038101906101379190610e44565b61033c565b6040516101499190610e03565b60405180910390f35b61015a610363565b6040516101679190610eaf565b60405180910390f35b61018a60048036038101906101859190610dab565b61036b565b6040516101979190610e03565b60405180910390f35b6101a8610409565b005b6101c460048036038101906101bf9190610ec8565b610417565b6040516101d19190610e2b565b60405180910390f35b6101e261045c565b6040516101ef9190610cfa565b60405180910390f35b610212600480360381019061020d9190610dab565b6104ec565b60405161021f9190610e03565b60405180910390f35b610242600480360381019061023d9190610dab565b6105c9565b60405161024f9190610e03565b60405180910390f35b610272600480360381019061026d9190610ef3565b6105e4565b60405161027f9190610e2b565b60405180910390f35b60606003805461029790610f5e565b80601f01602080910402602001604051908101604052809291908181526020018280546102c390610f5e565b801561030e5780601f106102e55761010080835404028352916020019161030e565b820191905f5260205f20905b8154815290600101906020018083116102f157829003601f168201915b5050505050905090565b5f80339050610328818585610666565b600191505092915050565b5f600254905090565b5f8033905061034c858285610829565b6103578585856108b4565b60019150509392505050565b5f6012905090565b5f803390506103fe81858560015f8673ffffffffffffffffffffffffffffffffffffffff1673ffffffffffffffffffffffffffffffffffffffff1681526020019081526020015f205f8973ffffffffffffffffffffffffffffffffffffffff1673ffffffffffffffffffffffffffffffffffffffff1681526020019081526020015f20546103f99190610fbb565b610666565b600191505092915050565b610415336103e8610b29565b565b5f805f8373ffffffffffffffffffffffffffffffffffffffff1673ffffffffffffffffffffffffffffffffffffffff1681526020019081526020015f20549050919050565b60606004805461046b90610f5e565b80601f016020809104026020016040519081016040528092919081815260200182805461049790610f5e565b80156104e25780601f106104b9576101008083540402835291602001916104e2565b820191905f5260205f20905b8154815290600101906020018083116104c557829003601f168201915b5050505050905090565b5f803390505f60015f8373ffffffffffffffffffffffffffffffffffffffff1673ffffffffffffffffffffffffffffffffffffffff1681526020019081526020015f205f8673ffffffffffffffffffffffffffffffffffffffff1673ffffffffffffffffffffffffffffffffffffffff1681526020019081526020015f20549050838110156105b0576040517f08c379a00000000000000000000000000000000000000000000000000000000081526004016105a79061105e565b60405180910390fd5b6105bd8286868403610666565b60019250505092915050565b5f803390506105d98185856108b4565b600191505092915050565b5f60015f8473ffffffffffffffffffffffffffffffffffffffff1673ffffffffffffffffffffffffffffffffffffffff1681526020019081526020015f205f8373ffffffffffffffffffffffffffffffffffffffff1673ffffffffffffffffffffffffffffffffffffffff1681526020019081526020015f2054905092915050565b5f73ffffffffffffffffffffffffffffffffffffffff168373ffffffffffffffffffffffffffffffffffffffff16036106d4576040517f08c379a00000000000000000000000000000000000000000000000000000000081526004016106cb906110ec565b60405180910390fd5b5f73ffffffffffffffffffffffffffffffffffffffff168273ffffffffffffffffffffffffffffffffffffffff1603610742576040517f08c379a00000000000000000000000000000000000000000000000000000000081526004016107399061117a565b60405180910390fd5b8060015f8573ffffffffffffffffffffffffffffffffffffffff1673ffffffffffffffffffffffffffffffffffffffff1681526020019081526020015f205f8473ffffffffffffffffffffffffffffffffffffffff1673ffffffffffffffffffffffffffffffffffffffff1681526020019081526020015f20819055508173ffffffffffffffffffffffffffffffffffffffff168373ffffffffffffffffffffffffffffffffffffffff167f8c5be1e5ebec7d5bd14f71427d1e84f3dd0314c0f7b2291e5b200ac8c7c3b9258360405161081c9190610e2b565b60405180910390a3505050565b5f61083484846105e4565b90507fffffffffffffffffffffffffffffffffffffffffffffffffffffffffffffffff81146108ae57818110156108a0576040517f08c379a0000000000000000000000000000000000000000000000000000000008152600401610897906111e2565b60405180910390fd5b6108ad8484848403610666565b5b50505050565b5f73ffffffffffffffffffffffffffffffffffffffff168373ffffffffffffffffffffffffffffffffffffffff1603610922576040517f08c379a000000000000000000000000000000000000000000000000000000000815260040161091990611270565b60405180910390fd5b5f73ffffffffffffffffffffffffffffffffffffffff168273ffffffffffffffffffffffffffffffffffffffff1603610990576040517f08c379a0000000000000000000000000000000000000000000000000000000008152600401610987906112fe565b60405180910390fd5b61099b838383610c80565b5f805f8573ffffffffffffffffffffffffffffffffffffffff1673ffffffffffffffffffffffffffffffffffffffff1681526020019081526020015f2054905081811015610a1e576040517f08c379a0000000000000000000000000000000000000000000000000000000008152600401610a159061138c565b60405180910390fd5b8181035f808673ffffffffffffffffffffffffffffffffffffffff1673ffffffffffffffffffffffffffffffffffffffff1681526020019081526020015f2081905550815f808573ffffffffffffffffffffffffffffffffffffffff1673ffffffffffffffffffffffffffffffffffffffff1681526020019081526020015f205f828254610aac9190610fbb565b925050819055508273ffffffffffffffffffffffffffffffffffffffff168473ffffffffffffffffffffffffffffffffffffffff167fddf252ad1be2c89b69c2b068fc378daa952ba7f163c4a11628f55a4df523b3ef84604051610b109190610e2b565b60405180910390a3610b23848484610c85565b50505050565b5f73ffffffffffffffffffffffffffffffffffffffff168273ffffffffffffffffffffffffffffffffffffffff1603610b97576040517f08c379a0000000000000000000000000000000000000000000000000000000008152600401610b8e906113f4565b60405180910390fd5b610ba25f8383610c80565b8060025f828254610bb39190610fbb565b92505081905550805f808473ffffffffffffffffffffffffffffffffffffffff1673ffffffffffffffffffffffffffffffffffffffff1681526020019081526020015f205f828254610c059190610fbb565b925050819055508173ffffffffffffffffffffffffffffffffffffffff165f73ffffffffffffffffffffffffffffffffffffffff167fddf252ad1be2c89b69c2b068fc378daa952ba7f163c4a11628f55a4df523b3ef83604051610c699190610e2b565b60405180910390a3610c7c5f8383610c85565b5050565b505050565b505050565b5f81519050919050565b5f82825260208201905092915050565b8281835e5f83830152505050565b5f601f19601f8301169050919050565b5f610ccc82610c8a565b610cd68185610c94565b9350610ce6818560208601610ca4565b610cef81610cb2565b840191505092915050565b5f6020820190508181035f830152610d128184610cc2565b905092915050565b5f80fd5b5f73ffffffffffffffffffffffffffffffffffffffff82169050919050565b5f610d4782610d1e565b9050919050565b610d5781610d3d565b8114610d61575f80fd5b50565b5f81359050610d7281610d4e565b92915050565b5f819050919050565b610d8a81610d78565b8114610d94575f80fd5b50565b5f81359050610da581610d81565b92915050565b5f8060408385031215610dc157610dc0610d1a565b5b5f610dce85828601610d64565b9250506020610ddf85828601610d97565b9150509250929050565b5f8115159050919050565b610dfd81610de9565b82525050565b5f602082019050610e165f830184610df4565b92915050565b610e2581610d78565b82525050565b5f602082019050610e3e5f830184610e1c565b92915050565b5f805f60608486031215610e5b57610e5a610d1a565b5b5f610e6886828701610d64565b9350506020610e7986828701610d64565b9250506040610e8a86828701610d97565b9150509250925092565b5f60ff82169050919050565b610ea981610e94565b82525050565b5f602082019050610ec25f830184610ea0565b92915050565b5f60208284031215610edd57610edc610d1a565b5b5f610eea84828501610d64565b91505092915050565b5f8060408385031215610f0957610f08610d1a565b5b5f610f1685828601610d64565b9250506020610f2785828601610d64565b9150509250929050565b7f4e487b71000000000000000000000000000000000000000000000000000000005f52602260045260245ffd5b5f6002820490506001821680610f7557607f821691505b602082108103610f8857610f87610f31565b5b50919050565b7f4e487b71000000000000000000000000000000000000000000000000000000005f52601160045260245ffd5b5f610fc582610d78565b9150610fd083610d78565b9250828201905080821115610fe857610fe7610f8e565b5b92915050565b7f45524332303a2064656372656173656420616c6c6f77616e63652062656c6f775f8201527f207a65726f000000000000000000000000000000000000000000000000000000602082015250565b5f611048602583610c94565b915061105382610fee565b604082019050919050565b5f6020820190508181035f8301526110758161103c565b9050919050565b7f45524332303a20617070726f76652066726f6d20746865207a65726f206164645f8201527f7265737300000000000000000000000000000000000000000000000000000000602082015250565b5f6110d6602483610c94565b91506110e18261107c565b604082019050919050565b5f6020820190508181035f830152611103816110ca565b9050919050565b7f45524332303a20617070726f766520746f20746865207a65726f2061646472655f8201527f7373000000000000000000000000000000000000000000000000000000000000602082015250565b5f611164602283610c94565b915061116f8261110a565b604082019050919050565b5f6020820190508181035f83015261119181611158565b9050919050565b7f45524332303a20696e73756666696369656e7420616c6c6f77616e63650000005f82015250565b5f6111cc601d83610c94565b91506111d782611198565b602082019050919050565b5f6020820190508181035f8301526111f9816111c0565b9050919050565b7f45524332303a207472616e736665722066726f6d20746865207a65726f2061645f8201527f6472657373000000000000000000000000000000000000000000000000000000602082015250565b5f61125a602583610c94565b915061126582611200565b604082019050919050565b5f6020820190508181035f8301526112878161124e565b9050919050565b7f45524332303a207472616e7366657220746f20746865207a65726f20616464725f8201527f6573730000000000000000000000000000000000000000000000000000000000602082015250565b5f6112e8602383610c94565b91506112f38261128e565b604082019050919050565b5f6020820190508181035f830152611315816112dc565b9050919050565b7f45524332303a207472616e7366657220616d6f756e74206578636565647320625f8201527f616c616e63650000000000000000000000000000000000000000000000000000602082015250565b5f611376602683610c94565b91506113818261131c565b604082019050919050565b5f6020820190508181035f8301526113a38161136a565b9050919050565b7f45524332303a206d696e7420746f20746865207a65726f2061646472657373005f82015250565b5f6113de601f83610c94565b91506113e9826113aa565b602082019050919050565b5f6020820190508181035f83015261140b816113d2565b905091905056fea2646970667358221220173a44075e834ef228a77125852f26aa61e34cc603d660f5dcf561e33bbf944464736f6c634300081a0033",
					"opcodes": "PUSH1 0x80 PUSH1 0x40 MSTORE CALLVALUE DUP1 ISZERO PUSH2 0xF JUMPI PUSH0 DUP1 REVERT JUMPDEST POP PUSH1 0x40 MLOAD DUP1 PUSH1 0x40 ADD PUSH1 0x40 MSTORE DUP1 PUSH1 0x4 DUP2 MSTORE PUSH1 0x20 ADD PUSH32 0x4A6F616E00000000000000000000000000000000000000000000000000000000 DUP2 MSTORE POP PUSH1 0x40 MLOAD DUP1 PUSH1 0x40 ADD PUSH1 0x40 MSTORE DUP1 PUSH1 0x2 DUP2 MSTORE PUSH1 0x20 ADD PUSH32 0x4A41000000000000000000000000000000000000000000000000000000000000 DUP2 MSTORE POP DUP2 PUSH1 0x3 SWAP1 DUP2 PUSH2 0x8B SWAP2 SWAP1 PUSH2 0x2DD JUMP JUMPDEST POP DUP1 PUSH1 0x4 SWAP1 DUP2 PUSH2 0x9B SWAP2 SWAP1 PUSH2 0x2DD JUMP JUMPDEST POP POP POP PUSH2 0x3AC JUMP JUMPDEST PUSH0 DUP2 MLOAD SWAP1 POP SWAP2 SWAP1 POP JUMP JUMPDEST PUSH32 0x4E487B7100000000000000000000000000000000000000000000000000000000 PUSH0 MSTORE PUSH1 0x41 PUSH1 0x4 MSTORE PUSH1 0x24 PUSH0 REVERT JUMPDEST PUSH32 0x4E487B7100000000000000000000000000000000000000000000000000000000 PUSH0 MSTORE PUSH1 0x22 PUSH1 0x4 MSTORE PUSH1 0x24 PUSH0 REVERT JUMPDEST PUSH0 PUSH1 0x2 DUP3 DIV SWAP1 POP PUSH1 0x1 DUP3 AND DUP1 PUSH2 0x11E JUMPI PUSH1 0x7F DUP3 AND SWAP2 POP JUMPDEST PUSH1 0x20 DUP3 LT DUP2 SUB PUSH2 0x131 JUMPI PUSH2 0x130 PUSH2 0xDA JUMP JUMPDEST JUMPDEST POP SWAP2 SWAP1 POP JUMP JUMPDEST PUSH0 DUP2 SWAP1 POP DUP2 PUSH0 MSTORE PUSH1 0x20 PUSH0 KECCAK256 SWAP1 POP SWAP2 SWAP1 POP JUMP JUMPDEST PUSH0 PUSH1 0x20 PUSH1 0x1F DUP4 ADD DIV SWAP1 POP SWAP2 SWAP1 POP JUMP JUMPDEST PUSH0 DUP3 DUP3 SHL SWAP1 POP SWAP3 SWAP2 POP POP JUMP JUMPDEST PUSH0 PUSH1 0x8 DUP4 MUL PUSH2 0x193 PUSH32 0xFFFFFFFFFFFFFFFFFFFFFFFFFFFFFFFFFFFFFFFFFFFFFFFFFFFFFFFFFFFFFFFF DUP3 PUSH2 0x158 JUMP JUMPDEST PUSH2 0x19D DUP7 DUP4 PUSH2 0x158 JUMP JUMPDEST SWAP6 POP DUP1 NOT DUP5 AND SWAP4 POP DUP1 DUP7 AND DUP5 OR SWAP3 POP POP POP SWAP4 SWAP3 POP POP POP JUMP JUMPDEST PUSH0 DUP2 SWAP1 POP SWAP2 SWAP1 POP JUMP JUMPDEST PUSH0 DUP2 SWAP1 POP SWAP2 SWAP1 POP JUMP JUMPDEST PUSH0 PUSH2 0x1E1 PUSH2 0x1DC PUSH2 0x1D7 DUP5 PUSH2 0x1B5 JUMP JUMPDEST PUSH2 0x1BE JUMP JUMPDEST PUSH2 0x1B5 JUMP JUMPDEST SWAP1 POP SWAP2 SWAP1 POP JUMP JUMPDEST PUSH0 DUP2 SWAP1 POP SWAP2 SWAP1 POP JUMP JUMPDEST PUSH2 0x1FA DUP4 PUSH2 0x1C7 JUMP JUMPDEST PUSH2 0x20E PUSH2 0x206 DUP3 PUSH2 0x1E8 JUMP JUMPDEST DUP5 DUP5 SLOAD PUSH2 0x164 JUMP JUMPDEST DUP3 SSTORE POP POP POP POP JUMP JUMPDEST PUSH0 SWAP1 JUMP JUMPDEST PUSH2 0x222 PUSH2 0x216 JUMP JUMPDEST PUSH2 0x22D DUP2 DUP5 DUP5 PUSH2 0x1F1 JUMP JUMPDEST POP POP POP JUMP JUMPDEST JUMPDEST DUP2 DUP2 LT ISZERO PUSH2 0x250 JUMPI PUSH2 0x245 PUSH0 DUP3 PUSH2 0x21A JUMP JUMPDEST PUSH1 0x1 DUP2 ADD SWAP1 POP PUSH2 0x233 JUMP JUMPDEST POP POP JUMP JUMPDEST PUSH1 0x1F DUP3 GT ISZERO PUSH2 0x295 JUMPI PUSH2 0x266 DUP2 PUSH2 0x137 JUMP JUMPDEST PUSH2 0x26F DUP5 PUSH2 0x149 JUMP JUMPDEST DUP2 ADD PUSH1 0x20 DUP6 LT ISZERO PUSH2 0x27E JUMPI DUP2 SWAP1 POP JUMPDEST PUSH2 0x292 PUSH2 0x28A DUP6 PUSH2 0x149 JUMP JUMPDEST DUP4 ADD DUP3 PUSH2 0x232 JUMP JUMPDEST POP POP JUMPDEST POP POP POP JUMP JUMPDEST PUSH0 DUP3 DUP3 SHR SWAP1 POP SWAP3 SWAP2 POP POP JUMP JUMPDEST PUSH0 PUSH2 0x2B5 PUSH0 NOT DUP5 PUSH1 0x8 MUL PUSH2 0x29A JUMP JUMPDEST NOT DUP1 DUP4 AND SWAP2 POP POP SWAP3 SWAP2 POP POP JUMP JUMPDEST PUSH0 PUSH2 0x2CD DUP4 DUP4 PUSH2 0x2A6 JUMP JUMPDEST SWAP2 POP DUP3 PUSH1 0x2 MUL DUP3 OR SWAP1 POP SWAP3 SWAP2 POP POP JUMP JUMPDEST PUSH2 0x2E6 DUP3 PUSH2 0xA3 JUMP JUMPDEST PUSH8 0xFFFFFFFFFFFFFFFF DUP2 GT ISZERO PUSH2 0x2FF JUMPI PUSH2 0x2FE PUSH2 0xAD JUMP JUMPDEST JUMPDEST PUSH2 0x309 DUP3 SLOAD PUSH2 0x107 JUMP JUMPDEST PUSH2 0x314 DUP3 DUP3 DUP6 PUSH2 0x254 JUMP JUMPDEST PUSH0 PUSH1 0x20 SWAP1 POP PUSH1 0x1F DUP4 GT PUSH1 0x1 DUP2 EQ PUSH2 0x345 JUMPI PUSH0 DUP5 ISZERO PUSH2 0x333 JUMPI DUP3 DUP8 ADD MLOAD SWAP1 POP JUMPDEST PUSH2 0x33D DUP6 DUP3 PUSH2 0x2C2 JUMP JUMPDEST DUP7 SSTORE POP PUSH2 0x3A4 JUMP JUMPDEST PUSH1 0x1F NOT DUP5 AND PUSH2 0x353 DUP7 PUSH2 0x137 JUMP JUMPDEST PUSH0 JUMPDEST DUP3 DUP2 LT ISZERO PUSH2 0x37A JUMPI DUP5 DUP10 ADD MLOAD DUP3 SSTORE PUSH1 0x1 DUP3 ADD SWAP2 POP PUSH1 0x20 DUP6 ADD SWAP5 POP PUSH1 0x20 DUP2 ADD SWAP1 POP PUSH2 0x355 JUMP JUMPDEST DUP7 DUP4 LT ISZERO PUSH2 0x397 JUMPI DUP5 DUP10 ADD MLOAD PUSH2 0x393 PUSH1 0x1F DUP10 AND DUP3 PUSH2 0x2A6 JUMP JUMPDEST DUP4 SSTORE POP JUMPDEST PUSH1 0x1 PUSH1 0x2 DUP9 MUL ADD DUP9 SSTORE POP POP POP JUMPDEST POP POP POP POP POP POP JUMP JUMPDEST PUSH2 0x1448 DUP1 PUSH2 0x3B9 PUSH0 CODECOPY PUSH0 RETURN INVALID PUSH1 0x80 PUSH1 0x40 MSTORE CALLVALUE DUP1 ISZERO PUSH2 0xF JUMPI PUSH0 DUP1 REVERT JUMPDEST POP PUSH1 0x4 CALLDATASIZE LT PUSH2 0xB2 JUMPI PUSH0 CALLDATALOAD PUSH1 0xE0 SHR DUP1 PUSH4 0x467BC5C0 GT PUSH2 0x6F JUMPI DUP1 PUSH4 0x467BC5C0 EQ PUSH2 0x1A0 JUMPI DUP1 PUSH4 0x70A08231 EQ PUSH2 0x1AA JUMPI DUP1 PUSH4 0x95D89B41 EQ PUSH2 0x1DA JUMPI DUP1 PUSH4 0xA457C2D7 EQ PUSH2 0x1F8 JUMPI DUP1 PUSH4 0xA9059CBB EQ PUSH2 0x228 JUMPI DUP1 PUSH4 0xDD62ED3E EQ PUSH2 0x258 JUMPI PUSH2 0xB2 JUMP JUMPDEST DUP1 PUSH4 0x6FDDE03 EQ PUSH2 0xB6 JUMPI DUP1 PUSH4 0x95EA7B3 EQ PUSH2 0xD4 JUMPI DUP1 PUSH4 0x18160DDD EQ PUSH2 0x104 JUMPI DUP1 PUSH4 0x23B872DD EQ PUSH2 0x122 JUMPI DUP1 PUSH4 0x313CE567 EQ PUSH2 0x152 JUMPI DUP1 PUSH4 0x39509351 EQ PUSH2 0x170 JUMPI JUMPDEST PUSH0 DUP1 REVERT JUMPDEST PUSH2 0xBE PUSH2 0x288 JUMP JUMPDEST PUSH1 0x40 MLOAD PUSH2 0xCB SWAP2 SWAP1 PUSH2 0xCFA JUMP JUMPDEST PUSH1 0x40 MLOAD DUP1 SWAP2 SUB SWAP1 RETURN JUMPDEST PUSH2 0xEE PUSH1 0x4 DUP1 CALLDATASIZE SUB DUP2 ADD SWAP1 PUSH2 0xE9 SWAP2 SWAP1 PUSH2 0xDAB JUMP JUMPDEST PUSH2 0x318 JUMP JUMPDEST PUSH1 0x40 MLOAD PUSH2 0xFB SWAP2 SWAP1 PUSH2 0xE03 JUMP JUMPDEST PUSH1 0x40 MLOAD DUP1 SWAP2 SUB SWAP1 RETURN JUMPDEST PUSH2 0x10C PUSH2 0x333 JUMP JUMPDEST PUSH1 0x40 MLOAD PUSH2 0x119 SWAP2 SWAP1 PUSH2 0xE2B JUMP JUMPDEST PUSH1 0x40 MLOAD DUP1 SWAP2 SUB SWAP1 RETURN JUMPDEST PUSH2 0x13C PUSH1 0x4 DUP1 CALLDATASIZE SUB DUP2 ADD SWAP1 PUSH2 0x137 SWAP2 SWAP1 PUSH2 0xE44 JUMP JUMPDEST PUSH2 0x33C JUMP JUMPDEST PUSH1 0x40 MLOAD PUSH2 0x149 SWAP2 SWAP1 PUSH2 0xE03 JUMP JUMPDEST PUSH1 0x40 MLOAD DUP1 SWAP2 SUB SWAP1 RETURN JUMPDEST PUSH2 0x15A PUSH2 0x363 JUMP JUMPDEST PUSH1 0x40 MLOAD PUSH2 0x167 SWAP2 SWAP1 PUSH2 0xEAF JUMP JUMPDEST PUSH1 0x40 MLOAD DUP1 SWAP2 SUB SWAP1 RETURN JUMPDEST PUSH2 0x18A PUSH1 0x4 DUP1 CALLDATASIZE SUB DUP2 ADD SWAP1 PUSH2 0x185 SWAP2 SWAP1 PUSH2 0xDAB JUMP JUMPDEST PUSH2 0x36B JUMP JUMPDEST PUSH1 0x40 MLOAD PUSH2 0x197 SWAP2 SWAP1 PUSH2 0xE03 JUMP JUMPDEST PUSH1 0x40 MLOAD DUP1 SWAP2 SUB SWAP1 RETURN JUMPDEST PUSH2 0x1A8 PUSH2 0x409 JUMP JUMPDEST STOP JUMPDEST PUSH2 0x1C4 PUSH1 0x4 DUP1 CALLDATASIZE SUB DUP2 ADD SWAP1 PUSH2 0x1BF SWAP2 SWAP1 PUSH2 0xEC8 JUMP JUMPDEST PUSH2 0x417 JUMP JUMPDEST PUSH1 0x40 MLOAD PUSH2 0x1D1 SWAP2 SWAP1 PUSH2 0xE2B JUMP JUMPDEST PUSH1 0x40 MLOAD DUP1 SWAP2 SUB SWAP1 RETURN JUMPDEST PUSH2 0x1E2 PUSH2 0x45C JUMP JUMPDEST PUSH1 0x40 MLOAD PUSH2 0x1EF SWAP2 SWAP1 PUSH2 0xCFA JUMP JUMPDEST PUSH1 0x40 MLOAD DUP1 SWAP2 SUB SWAP1 RETURN JUMPDEST PUSH2 0x212 PUSH1 0x4 DUP1 CALLDATASIZE SUB DUP2 ADD SWAP1 PUSH2 0x20D SWAP2 SWAP1 PUSH2 0xDAB JUMP JUMPDEST PUSH2 0x4EC JUMP JUMPDEST PUSH1 0x40 MLOAD PUSH2 0x21F SWAP2 SWAP1 PUSH2 0xE03 JUMP JUMPDEST PUSH1 0x40 MLOAD DUP1 SWAP2 SUB SWAP1 RETURN JUMPDEST PUSH2 0x242 PUSH1 0x4 DUP1 CALLDATASIZE SUB DUP2 ADD SWAP1 PUSH2 0x23D SWAP2 SWAP1 PUSH2 0xDAB JUMP JUMPDEST PUSH2 0x5C9 JUMP JUMPDEST PUSH1 0x40 MLOAD PUSH2 0x24F SWAP2 SWAP1 PUSH2 0xE03 JUMP JUMPDEST PUSH1 0x40 MLOAD DUP1 SWAP2 SUB SWAP1 RETURN JUMPDEST PUSH2 0x272 PUSH1 0x4 DUP1 CALLDATASIZE SUB DUP2 ADD SWAP1 PUSH2 0x26D SWAP2 SWAP1 PUSH2 0xEF3 JUMP JUMPDEST PUSH2 0x5E4 JUMP JUMPDEST PUSH1 0x40 MLOAD PUSH2 0x27F SWAP2 SWAP1 PUSH2 0xE2B JUMP JUMPDEST PUSH1 0x40 MLOAD DUP1 SWAP2 SUB SWAP1 RETURN JUMPDEST PUSH1 0x60 PUSH1 0x3 DUP1 SLOAD PUSH2 0x297 SWAP1 PUSH2 0xF5E JUMP JUMPDEST DUP1 PUSH1 0x1F ADD PUSH1 0x20 DUP1 SWAP2 DIV MUL PUSH1 0x20 ADD PUSH1 0x40 MLOAD SWAP1 DUP2 ADD PUSH1 0x40 MSTORE DUP1 SWAP3 SWAP2 SWAP1 DUP2 DUP2 MSTORE PUSH1 0x20 ADD DUP3 DUP1 SLOAD PUSH2 0x2C3 SWAP1 PUSH2 0xF5E JUMP JUMPDEST DUP1 ISZERO PUSH2 0x30E JUMPI DUP1 PUSH1 0x1F LT PUSH2 0x2E5 JUMPI PUSH2 0x100 DUP1 DUP4 SLOAD DIV MUL DUP4 MSTORE SWAP2 PUSH1 0x20 ADD SWAP2 PUSH2 0x30E JUMP JUMPDEST DUP3 ADD SWAP2 SWAP1 PUSH0 MSTORE PUSH1 0x20 PUSH0 KECCAK256 SWAP1 JUMPDEST DUP2 SLOAD DUP2 MSTORE SWAP1 PUSH1 0x1 ADD SWAP1 PUSH1 0x20 ADD DUP1 DUP4 GT PUSH2 0x2F1 JUMPI DUP3 SWAP1 SUB PUSH1 0x1F AND DUP3 ADD SWAP2 JUMPDEST POP POP POP POP POP SWAP1 POP SWAP1 JUMP JUMPDEST PUSH0 DUP1 CALLER SWAP1 POP PUSH2 0x328 DUP2 DUP6 DUP6 PUSH2 0x666 JUMP JUMPDEST PUSH1 0x1 SWAP2 POP POP SWAP3 SWAP2 POP POP JUMP JUMPDEST PUSH0 PUSH1 0x2 SLOAD SWAP1 POP SWAP1 JUMP JUMPDEST PUSH0 DUP1 CALLER SWAP1 POP PUSH2 0x34C DUP6 DUP3 DUP6 PUSH2 0x829 JUMP JUMPDEST PUSH2 0x357 DUP6 DUP6 DUP6 PUSH2 0x8B4 JUMP JUMPDEST PUSH1 0x1 SWAP2 POP POP SWAP4 SWAP3 POP POP POP JUMP JUMPDEST PUSH0 PUSH1 0x12 SWAP1 POP SWAP1 JUMP JUMPDEST PUSH0 DUP1 CALLER SWAP1 POP PUSH2 0x3FE DUP2 DUP6 DUP6 PUSH1 0x1 PUSH0 DUP7 PUSH20 0xFFFFFFFFFFFFFFFFFFFFFFFFFFFFFFFFFFFFFFFF AND PUSH20 0xFFFFFFFFFFFFFFFFFFFFFFFFFFFFFFFFFFFFFFFF AND DUP2 MSTORE PUSH1 0x20 ADD SWAP1 DUP2 MSTORE PUSH1 0x20 ADD PUSH0 KECCAK256 PUSH0 DUP10 PUSH20 0xFFFFFFFFFFFFFFFFFFFFFFFFFFFFFFFFFFFFFFFF AND PUSH20 0xFFFFFFFFFFFFFFFFFFFFFFFFFFFFFFFFFFFFFFFF AND DUP2 MSTORE PUSH1 0x20 ADD SWAP1 DUP2 MSTORE PUSH1 0x20 ADD PUSH0 KECCAK256 SLOAD PUSH2 0x3F9 SWAP2 SWAP1 PUSH2 0xFBB JUMP JUMPDEST PUSH2 0x666 JUMP JUMPDEST PUSH1 0x1 SWAP2 POP POP SWAP3 SWAP2 POP POP JUMP JUMPDEST PUSH2 0x415 CALLER PUSH2 0x3E8 PUSH2 0xB29 JUMP JUMPDEST JUMP JUMPDEST PUSH0 DUP1 PUSH0 DUP4 PUSH20 0xFFFFFFFFFFFFFFFFFFFFFFFFFFFFFFFFFFFFFFFF AND PUSH20 0xFFFFFFFFFFFFFFFFFFFFFFFFFFFFFFFFFFFFFFFF AND DUP2 MSTORE PUSH1 0x20 ADD SWAP1 DUP2 MSTORE PUSH1 0x20 ADD PUSH0 KECCAK256 SLOAD SWAP1 POP SWAP2 SWAP1 POP JUMP JUMPDEST PUSH1 0x60 PUSH1 0x4 DUP1 SLOAD PUSH2 0x46B SWAP1 PUSH2 0xF5E JUMP JUMPDEST DUP1 PUSH1 0x1F ADD PUSH1 0x20 DUP1 SWAP2 DIV MUL PUSH1 0x20 ADD PUSH1 0x40 MLOAD SWAP1 DUP2 ADD PUSH1 0x40 MSTORE DUP1 SWAP3 SWAP2 SWAP1 DUP2 DUP2 MSTORE PUSH1 0x20 ADD DUP3 DUP1 SLOAD PUSH2 0x497 SWAP1 PUSH2 0xF5E JUMP JUMPDEST DUP1 ISZERO PUSH2 0x4E2 JUMPI DUP1 PUSH1 0x1F LT PUSH2 0x4B9 JUMPI PUSH2 0x100 DUP1 DUP4 SLOAD DIV MUL DUP4 MSTORE SWAP2 PUSH1 0x20 ADD SWAP2 PUSH2 0x4E2 JUMP JUMPDEST DUP3 ADD SWAP2 SWAP1 PUSH0 MSTORE PUSH1 0x20 PUSH0 KECCAK256 SWAP1 JUMPDEST DUP2 SLOAD DUP2 MSTORE SWAP1 PUSH1 0x1 ADD SWAP1 PUSH1 0x20 ADD DUP1 DUP4 GT PUSH2 0x4C5 JUMPI DUP3 SWAP1 SUB PUSH1 0x1F AND DUP3 ADD SWAP2 JUMPDEST POP POP POP POP POP SWAP1 POP SWAP1 JUMP JUMPDEST PUSH0 DUP1 CALLER SWAP1 POP PUSH0 PUSH1 0x1 PUSH0 DUP4 PUSH20 0xFFFFFFFFFFFFFFFFFFFFFFFFFFFFFFFFFFFFFFFF AND PUSH20 0xFFFFFFFFFFFFFFFFFFFFFFFFFFFFFFFFFFFFFFFF AND DUP2 MSTORE PUSH1 0x20 ADD SWAP1 DUP2 MSTORE PUSH1 0x20 ADD PUSH0 KECCAK256 PUSH0 DUP7 PUSH20 0xFFFFFFFFFFFFFFFFFFFFFFFFFFFFFFFFFFFFFFFF AND PUSH20 0xFFFFFFFFFFFFFFFFFFFFFFFFFFFFFFFFFFFFFFFF AND DUP2 MSTORE PUSH1 0x20 ADD SWAP1 DUP2 MSTORE PUSH1 0x20 ADD PUSH0 KECCAK256 SLOAD SWAP1 POP DUP4 DUP2 LT ISZERO PUSH2 0x5B0 JUMPI PUSH1 0x40 MLOAD PUSH32 0x8C379A000000000000000000000000000000000000000000000000000000000 DUP2 MSTORE PUSH1 0x4 ADD PUSH2 0x5A7 SWAP1 PUSH2 0x105E JUMP JUMPDEST PUSH1 0x40 MLOAD DUP1 SWAP2 SUB SWAP1 REVERT JUMPDEST PUSH2 0x5BD DUP3 DUP7 DUP7 DUP5 SUB PUSH2 0x666 JUMP JUMPDEST PUSH1 0x1 SWAP3 POP POP POP SWAP3 SWAP2 POP POP JUMP JUMPDEST PUSH0 DUP1 CALLER SWAP1 POP PUSH2 0x5D9 DUP2 DUP6 DUP6 PUSH2 0x8B4 JUMP JUMPDEST PUSH1 0x1 SWAP2 POP POP SWAP3 SWAP2 POP POP JUMP JUMPDEST PUSH0 PUSH1 0x1 PUSH0 DUP5 PUSH20 0xFFFFFFFFFFFFFFFFFFFFFFFFFFFFFFFFFFFFFFFF AND PUSH20 0xFFFFFFFFFFFFFFFFFFFFFFFFFFFFFFFFFFFFFFFF AND DUP2 MSTORE PUSH1 0x20 ADD SWAP1 DUP2 MSTORE PUSH1 0x20 ADD PUSH0 KECCAK256 PUSH0 DUP4 PUSH20 0xFFFFFFFFFFFFFFFFFFFFFFFFFFFFFFFFFFFFFFFF AND PUSH20 0xFFFFFFFFFFFFFFFFFFFFFFFFFFFFFFFFFFFFFFFF AND DUP2 MSTORE PUSH1 0x20 ADD SWAP1 DUP2 MSTORE PUSH1 0x20 ADD PUSH0 KECCAK256 SLOAD SWAP1 POP SWAP3 SWAP2 POP POP JUMP JUMPDEST PUSH0 PUSH20 0xFFFFFFFFFFFFFFFFFFFFFFFFFFFFFFFFFFFFFFFF AND DUP4 PUSH20 0xFFFFFFFFFFFFFFFFFFFFFFFFFFFFFFFFFFFFFFFF AND SUB PUSH2 0x6D4 JUMPI PUSH1 0x40 MLOAD PUSH32 0x8C379A000000000000000000000000000000000000000000000000000000000 DUP2 MSTORE PUSH1 0x4 ADD PUSH2 0x6CB SWAP1 PUSH2 0x10EC JUMP JUMPDEST PUSH1 0x40 MLOAD DUP1 SWAP2 SUB SWAP1 REVERT JUMPDEST PUSH0 PUSH20 0xFFFFFFFFFFFFFFFFFFFFFFFFFFFFFFFFFFFFFFFF AND DUP3 PUSH20 0xFFFFFFFFFFFFFFFFFFFFFFFFFFFFFFFFFFFFFFFF AND SUB PUSH2 0x742 JUMPI PUSH1 0x40 MLOAD PUSH32 0x8C379A000000000000000000000000000000000000000000000000000000000 DUP2 MSTORE PUSH1 0x4 ADD PUSH2 0x739 SWAP1 PUSH2 0x117A JUMP JUMPDEST PUSH1 0x40 MLOAD DUP1 SWAP2 SUB SWAP1 REVERT JUMPDEST DUP1 PUSH1 0x1 PUSH0 DUP6 PUSH20 0xFFFFFFFFFFFFFFFFFFFFFFFFFFFFFFFFFFFFFFFF AND PUSH20 0xFFFFFFFFFFFFFFFFFFFFFFFFFFFFFFFFFFFFFFFF AND DUP2 MSTORE PUSH1 0x20 ADD SWAP1 DUP2 MSTORE PUSH1 0x20 ADD PUSH0 KECCAK256 PUSH0 DUP5 PUSH20 0xFFFFFFFFFFFFFFFFFFFFFFFFFFFFFFFFFFFFFFFF AND PUSH20 0xFFFFFFFFFFFFFFFFFFFFFFFFFFFFFFFFFFFFFFFF AND DUP2 MSTORE PUSH1 0x20 ADD SWAP1 DUP2 MSTORE PUSH1 0x20 ADD PUSH0 KECCAK256 DUP2 SWAP1 SSTORE POP DUP2 PUSH20 0xFFFFFFFFFFFFFFFFFFFFFFFFFFFFFFFFFFFFFFFF AND DUP4 PUSH20 0xFFFFFFFFFFFFFFFFFFFFFFFFFFFFFFFFFFFFFFFF AND PUSH32 0x8C5BE1E5EBEC7D5BD14F71427D1E84F3DD0314C0F7B2291E5B200AC8C7C3B925 DUP4 PUSH1 0x40 MLOAD PUSH2 0x81C SWAP2 SWAP1 PUSH2 0xE2B JUMP JUMPDEST PUSH1 0x40 MLOAD DUP1 SWAP2 SUB SWAP1 LOG3 POP POP POP JUMP JUMPDEST PUSH0 PUSH2 0x834 DUP5 DUP5 PUSH2 0x5E4 JUMP JUMPDEST SWAP1 POP PUSH32 0xFFFFFFFFFFFFFFFFFFFFFFFFFFFFFFFFFFFFFFFFFFFFFFFFFFFFFFFFFFFFFFFF DUP2 EQ PUSH2 0x8AE JUMPI DUP2 DUP2 LT ISZERO PUSH2 0x8A0 JUMPI PUSH1 0x40 MLOAD PUSH32 0x8C379A000000000000000000000000000000000000000000000000000000000 DUP2 MSTORE PUSH1 0x4 ADD PUSH2 0x897 SWAP1 PUSH2 0x11E2 JUMP JUMPDEST PUSH1 0x40 MLOAD DUP1 SWAP2 SUB SWAP1 REVERT JUMPDEST PUSH2 0x8AD DUP5 DUP5 DUP5 DUP5 SUB PUSH2 0x666 JUMP JUMPDEST JUMPDEST POP POP POP POP JUMP JUMPDEST PUSH0 PUSH20 0xFFFFFFFFFFFFFFFFFFFFFFFFFFFFFFFFFFFFFFFF AND DUP4 PUSH20 0xFFFFFFFFFFFFFFFFFFFFFFFFFFFFFFFFFFFFFFFF AND SUB PUSH2 0x922 JUMPI PUSH1 0x40 MLOAD PUSH32 0x8C379A000000000000000000000000000000000000000000000000000000000 DUP2 MSTORE PUSH1 0x4 ADD PUSH2 0x919 SWAP1 PUSH2 0x1270 JUMP JUMPDEST PUSH1 0x40 MLOAD DUP1 SWAP2 SUB SWAP1 REVERT JUMPDEST PUSH0 PUSH20 0xFFFFFFFFFFFFFFFFFFFFFFFFFFFFFFFFFFFFFFFF AND DUP3 PUSH20 0xFFFFFFFFFFFFFFFFFFFFFFFFFFFFFFFFFFFFFFFF AND SUB PUSH2 0x990 JUMPI PUSH1 0x40 MLOAD PUSH32 0x8C379A000000000000000000000000000000000000000000000000000000000 DUP2 MSTORE PUSH1 0x4 ADD PUSH2 0x987 SWAP1 PUSH2 0x12FE JUMP JUMPDEST PUSH1 0x40 MLOAD DUP1 SWAP2 SUB SWAP1 REVERT JUMPDEST PUSH2 0x99B DUP4 DUP4 DUP4 PUSH2 0xC80 JUMP JUMPDEST PUSH0 DUP1 PUSH0 DUP6 PUSH20 0xFFFFFFFFFFFFFFFFFFFFFFFFFFFFFFFFFFFFFFFF AND PUSH20 0xFFFFFFFFFFFFFFFFFFFFFFFFFFFFFFFFFFFFFFFF AND DUP2 MSTORE PUSH1 0x20 ADD SWAP1 DUP2 MSTORE PUSH1 0x20 ADD PUSH0 KECCAK256 SLOAD SWAP1 POP DUP2 DUP2 LT ISZERO PUSH2 0xA1E JUMPI PUSH1 0x40 MLOAD PUSH32 0x8C379A000000000000000000000000000000000000000000000000000000000 DUP2 MSTORE PUSH1 0x4 ADD PUSH2 0xA15 SWAP1 PUSH2 0x138C JUMP JUMPDEST PUSH1 0x40 MLOAD DUP1 SWAP2 SUB SWAP1 REVERT JUMPDEST DUP2 DUP2 SUB PUSH0 DUP1 DUP7 PUSH20 0xFFFFFFFFFFFFFFFFFFFFFFFFFFFFFFFFFFFFFFFF AND PUSH20 0xFFFFFFFFFFFFFFFFFFFFFFFFFFFFFFFFFFFFFFFF AND DUP2 MSTORE PUSH1 0x20 ADD SWAP1 DUP2 MSTORE PUSH1 0x20 ADD PUSH0 KECCAK256 DUP2 SWAP1 SSTORE POP DUP2 PUSH0 DUP1 DUP6 PUSH20 0xFFFFFFFFFFFFFFFFFFFFFFFFFFFFFFFFFFFFFFFF AND PUSH20 0xFFFFFFFFFFFFFFFFFFFFFFFFFFFFFFFFFFFFFFFF AND DUP2 MSTORE PUSH1 0x20 ADD SWAP1 DUP2 MSTORE PUSH1 0x20 ADD PUSH0 KECCAK256 PUSH0 DUP3 DUP3 SLOAD PUSH2 0xAAC SWAP2 SWAP1 PUSH2 0xFBB JUMP JUMPDEST SWAP3 POP POP DUP2 SWAP1 SSTORE POP DUP3 PUSH20 0xFFFFFFFFFFFFFFFFFFFFFFFFFFFFFFFFFFFFFFFF AND DUP5 PUSH20 0xFFFFFFFFFFFFFFFFFFFFFFFFFFFFFFFFFFFFFFFF AND PUSH32 0xDDF252AD1BE2C89B69C2B068FC378DAA952BA7F163C4A11628F55A4DF523B3EF DUP5 PUSH1 0x40 MLOAD PUSH2 0xB10 SWAP2 SWAP1 PUSH2 0xE2B JUMP JUMPDEST PUSH1 0x40 MLOAD DUP1 SWAP2 SUB SWAP1 LOG3 PUSH2 0xB23 DUP5 DUP5 DUP5 PUSH2 0xC85 JUMP JUMPDEST POP POP POP POP JUMP JUMPDEST PUSH0 PUSH20 0xFFFFFFFFFFFFFFFFFFFFFFFFFFFFFFFFFFFFFFFF AND DUP3 PUSH20 0xFFFFFFFFFFFFFFFFFFFFFFFFFFFFFFFFFFFFFFFF AND SUB PUSH2 0xB97 JUMPI PUSH1 0x40 MLOAD PUSH32 0x8C379A000000000000000000000000000000000000000000000000000000000 DUP2 MSTORE PUSH1 0x4 ADD PUSH2 0xB8E SWAP1 PUSH2 0x13F4 JUMP JUMPDEST PUSH1 0x40 MLOAD DUP1 SWAP2 SUB SWAP1 REVERT JUMPDEST PUSH2 0xBA2 PUSH0 DUP4 DUP4 PUSH2 0xC80 JUMP JUMPDEST DUP1 PUSH1 0x2 PUSH0 DUP3 DUP3 SLOAD PUSH2 0xBB3 SWAP2 SWAP1 PUSH2 0xFBB JUMP JUMPDEST SWAP3 POP POP DUP2 SWAP1 SSTORE POP DUP1 PUSH0 DUP1 DUP5 PUSH20 0xFFFFFFFFFFFFFFFFFFFFFFFFFFFFFFFFFFFFFFFF AND PUSH20 0xFFFFFFFFFFFFFFFFFFFFFFFFFFFFFFFFFFFFFFFF AND DUP2 MSTORE PUSH1 0x20 ADD SWAP1 DUP2 MSTORE PUSH1 0x20 ADD PUSH0 KECCAK256 PUSH0 DUP3 DUP3 SLOAD PUSH2 0xC05 SWAP2 SWAP1 PUSH2 0xFBB JUMP JUMPDEST SWAP3 POP POP DUP2 SWAP1 SSTORE POP DUP2 PUSH20 0xFFFFFFFFFFFFFFFFFFFFFFFFFFFFFFFFFFFFFFFF AND PUSH0 PUSH20 0xFFFFFFFFFFFFFFFFFFFFFFFFFFFFFFFFFFFFFFFF AND PUSH32 0xDDF252AD1BE2C89B69C2B068FC378DAA952BA7F163C4A11628F55A4DF523B3EF DUP4 PUSH1 0x40 MLOAD PUSH2 0xC69 SWAP2 SWAP1 PUSH2 0xE2B JUMP JUMPDEST PUSH1 0x40 MLOAD DUP1 SWAP2 SUB SWAP1 LOG3 PUSH2 0xC7C PUSH0 DUP4 DUP4 PUSH2 0xC85 JUMP JUMPDEST POP POP JUMP JUMPDEST POP POP POP JUMP JUMPDEST POP POP POP JUMP JUMPDEST PUSH0 DUP2 MLOAD SWAP1 POP SWAP2 SWAP1 POP JUMP JUMPDEST PUSH0 DUP3 DUP3 MSTORE PUSH1 0x20 DUP3 ADD SWAP1 POP SWAP3 SWAP2 POP POP JUMP JUMPDEST DUP3 DUP2 DUP4 MCOPY PUSH0 DUP4 DUP4 ADD MSTORE POP POP POP JUMP JUMPDEST PUSH0 PUSH1 0x1F NOT PUSH1 0x1F DUP4 ADD AND SWAP1 POP SWAP2 SWAP1 POP JUMP JUMPDEST PUSH0 PUSH2 0xCCC DUP3 PUSH2 0xC8A JUMP JUMPDEST PUSH2 0xCD6 DUP2 DUP6 PUSH2 0xC94 JUMP JUMPDEST SWAP4 POP PUSH2 0xCE6 DUP2 DUP6 PUSH1 0x20 DUP7 ADD PUSH2 0xCA4 JUMP JUMPDEST PUSH2 0xCEF DUP2 PUSH2 0xCB2 JUMP JUMPDEST DUP5 ADD SWAP2 POP POP SWAP3 SWAP2 POP POP JUMP JUMPDEST PUSH0 PUSH1 0x20 DUP3 ADD SWAP1 POP DUP2 DUP2 SUB PUSH0 DUP4 ADD MSTORE PUSH2 0xD12 DUP2 DUP5 PUSH2 0xCC2 JUMP JUMPDEST SWAP1 POP SWAP3 SWAP2 POP POP JUMP JUMPDEST PUSH0 DUP1 REVERT JUMPDEST PUSH0 PUSH20 0xFFFFFFFFFFFFFFFFFFFFFFFFFFFFFFFFFFFFFFFF DUP3 AND SWAP1 POP SWAP2 SWAP1 POP JUMP JUMPDEST PUSH0 PUSH2 0xD47 DUP3 PUSH2 0xD1E JUMP JUMPDEST SWAP1 POP SWAP2 SWAP1 POP JUMP JUMPDEST PUSH2 0xD57 DUP2 PUSH2 0xD3D JUMP JUMPDEST DUP2 EQ PUSH2 0xD61 JUMPI PUSH0 DUP1 REVERT JUMPDEST POP JUMP JUMPDEST PUSH0 DUP2 CALLDATALOAD SWAP1 POP PUSH2 0xD72 DUP2 PUSH2 0xD4E JUMP JUMPDEST SWAP3 SWAP2 POP POP JUMP JUMPDEST PUSH0 DUP2 SWAP1 POP SWAP2 SWAP1 POP JUMP JUMPDEST PUSH2 0xD8A DUP2 PUSH2 0xD78 JUMP JUMPDEST DUP2 EQ PUSH2 0xD94 JUMPI PUSH0 DUP1 REVERT JUMPDEST POP JUMP JUMPDEST PUSH0 DUP2 CALLDATALOAD SWAP1 POP PUSH2 0xDA5 DUP2 PUSH2 0xD81 JUMP JUMPDEST SWAP3 SWAP2 POP POP JUMP JUMPDEST PUSH0 DUP1 PUSH1 0x40 DUP4 DUP6 SUB SLT ISZERO PUSH2 0xDC1 JUMPI PUSH2 0xDC0 PUSH2 0xD1A JUMP JUMPDEST JUMPDEST PUSH0 PUSH2 0xDCE DUP6 DUP3 DUP7 ADD PUSH2 0xD64 JUMP JUMPDEST SWAP3 POP POP PUSH1 0x20 PUSH2 0xDDF DUP6 DUP3 DUP7 ADD PUSH2 0xD97 JUMP JUMPDEST SWAP2 POP POP SWAP3 POP SWAP3 SWAP1 POP JUMP JUMPDEST PUSH0 DUP2 ISZERO ISZERO SWAP1 POP SWAP2 SWAP1 POP JUMP JUMPDEST PUSH2 0xDFD DUP2 PUSH2 0xDE9 JUMP JUMPDEST DUP3 MSTORE POP POP JUMP JUMPDEST PUSH0 PUSH1 0x20 DUP3 ADD SWAP1 POP PUSH2 0xE16 PUSH0 DUP4 ADD DUP5 PUSH2 0xDF4 JUMP JUMPDEST SWAP3 SWAP2 POP POP JUMP JUMPDEST PUSH2 0xE25 DUP2 PUSH2 0xD78 JUMP JUMPDEST DUP3 MSTORE POP POP JUMP JUMPDEST PUSH0 PUSH1 0x20 DUP3 ADD SWAP1 POP PUSH2 0xE3E PUSH0 DUP4 ADD DUP5 PUSH2 0xE1C JUMP JUMPDEST SWAP3 SWAP2 POP POP JUMP JUMPDEST PUSH0 DUP1 PUSH0 PUSH1 0x60 DUP5 DUP7 SUB SLT ISZERO PUSH2 0xE5B JUMPI PUSH2 0xE5A PUSH2 0xD1A JUMP JUMPDEST JUMPDEST PUSH0 PUSH2 0xE68 DUP7 DUP3 DUP8 ADD PUSH2 0xD64 JUMP JUMPDEST SWAP4 POP POP PUSH1 0x20 PUSH2 0xE79 DUP7 DUP3 DUP8 ADD PUSH2 0xD64 JUMP JUMPDEST SWAP3 POP POP PUSH1 0x40 PUSH2 0xE8A DUP7 DUP3 DUP8 ADD PUSH2 0xD97 JUMP JUMPDEST SWAP2 POP POP SWAP3 POP SWAP3 POP SWAP3 JUMP JUMPDEST PUSH0 PUSH1 0xFF DUP3 AND SWAP1 POP SWAP2 SWAP1 POP JUMP JUMPDEST PUSH2 0xEA9 DUP2 PUSH2 0xE94 JUMP JUMPDEST DUP3 MSTORE POP POP JUMP JUMPDEST PUSH0 PUSH1 0x20 DUP3 ADD SWAP1 POP PUSH2 0xEC2 PUSH0 DUP4 ADD DUP5 PUSH2 0xEA0 JUMP JUMPDEST SWAP3 SWAP2 POP POP JUMP JUMPDEST PUSH0 PUSH1 0x20 DUP3 DUP5 SUB SLT ISZERO PUSH2 0xEDD JUMPI PUSH2 0xEDC PUSH2 0xD1A JUMP JUMPDEST JUMPDEST PUSH0 PUSH2 0xEEA DUP5 DUP3 DUP6 ADD PUSH2 0xD64 JUMP JUMPDEST SWAP2 POP POP SWAP3 SWAP2 POP POP JUMP JUMPDEST PUSH0 DUP1 PUSH1 0x40 DUP4 DUP6 SUB SLT ISZERO PUSH2 0xF09 JUMPI PUSH2 0xF08 PUSH2 0xD1A JUMP JUMPDEST JUMPDEST PUSH0 PUSH2 0xF16 DUP6 DUP3 DUP7 ADD PUSH2 0xD64 JUMP JUMPDEST SWAP3 POP POP PUSH1 0x20 PUSH2 0xF27 DUP6 DUP3 DUP7 ADD PUSH2 0xD64 JUMP JUMPDEST SWAP2 POP POP SWAP3 POP SWAP3 SWAP1 POP JUMP JUMPDEST PUSH32 0x4E487B7100000000000000000000000000000000000000000000000000000000 PUSH0 MSTORE PUSH1 0x22 PUSH1 0x4 MSTORE PUSH1 0x24 PUSH0 REVERT JUMPDEST PUSH0 PUSH1 0x2 DUP3 DIV SWAP1 POP PUSH1 0x1 DUP3 AND DUP1 PUSH2 0xF75 JUMPI PUSH1 0x7F DUP3 AND SWAP2 POP JUMPDEST PUSH1 0x20 DUP3 LT DUP2 SUB PUSH2 0xF88 JUMPI PUSH2 0xF87 PUSH2 0xF31 JUMP JUMPDEST JUMPDEST POP SWAP2 SWAP1 POP JUMP JUMPDEST PUSH32 0x4E487B7100000000000000000000000000000000000000000000000000000000 PUSH0 MSTORE PUSH1 0x11 PUSH1 0x4 MSTORE PUSH1 0x24 PUSH0 REVERT JUMPDEST PUSH0 PUSH2 0xFC5 DUP3 PUSH2 0xD78 JUMP JUMPDEST SWAP2 POP PUSH2 0xFD0 DUP4 PUSH2 0xD78 JUMP JUMPDEST SWAP3 POP DUP3 DUP3 ADD SWAP1 POP DUP1 DUP3 GT ISZERO PUSH2 0xFE8 JUMPI PUSH2 0xFE7 PUSH2 0xF8E JUMP JUMPDEST JUMPDEST SWAP3 SWAP2 POP POP JUMP JUMPDEST PUSH32 0x45524332303A2064656372656173656420616C6C6F77616E63652062656C6F77 PUSH0 DUP3 ADD MSTORE PUSH32 0x207A65726F000000000000000000000000000000000000000000000000000000 PUSH1 0x20 DUP3 ADD MSTORE POP JUMP JUMPDEST PUSH0 PUSH2 0x1048 PUSH1 0x25 DUP4 PUSH2 0xC94 JUMP JUMPDEST SWAP2 POP PUSH2 0x1053 DUP3 PUSH2 0xFEE JUMP JUMPDEST PUSH1 0x40 DUP3 ADD SWAP1 POP SWAP2 SWAP1 POP JUMP JUMPDEST PUSH0 PUSH1 0x20 DUP3 ADD SWAP1 POP DUP2 DUP2 SUB PUSH0 DUP4 ADD MSTORE PUSH2 0x1075 DUP2 PUSH2 0x103C JUMP JUMPDEST SWAP1 POP SWAP2 SWAP1 POP JUMP JUMPDEST PUSH32 0x45524332303A20617070726F76652066726F6D20746865207A65726F20616464 PUSH0 DUP3 ADD MSTORE PUSH32 0x7265737300000000000000000000000000000000000000000000000000000000 PUSH1 0x20 DUP3 ADD MSTORE POP JUMP JUMPDEST PUSH0 PUSH2 0x10D6 PUSH1 0x24 DUP4 PUSH2 0xC94 JUMP JUMPDEST SWAP2 POP PUSH2 0x10E1 DUP3 PUSH2 0x107C JUMP JUMPDEST PUSH1 0x40 DUP3 ADD SWAP1 POP SWAP2 SWAP1 POP JUMP JUMPDEST PUSH0 PUSH1 0x20 DUP3 ADD SWAP1 POP DUP2 DUP2 SUB PUSH0 DUP4 ADD MSTORE PUSH2 0x1103 DUP2 PUSH2 0x10CA JUMP JUMPDEST SWAP1 POP SWAP2 SWAP1 POP JUMP JUMPDEST PUSH32 0x45524332303A20617070726F766520746F20746865207A65726F206164647265 PUSH0 DUP3 ADD MSTORE PUSH32 0x7373000000000000000000000000000000000000000000000000000000000000 PUSH1 0x20 DUP3 ADD MSTORE POP JUMP JUMPDEST PUSH0 PUSH2 0x1164 PUSH1 0x22 DUP4 PUSH2 0xC94 JUMP JUMPDEST SWAP2 POP PUSH2 0x116F DUP3 PUSH2 0x110A JUMP JUMPDEST PUSH1 0x40 DUP3 ADD SWAP1 POP SWAP2 SWAP1 POP JUMP JUMPDEST PUSH0 PUSH1 0x20 DUP3 ADD SWAP1 POP DUP2 DUP2 SUB PUSH0 DUP4 ADD MSTORE PUSH2 0x1191 DUP2 PUSH2 0x1158 JUMP JUMPDEST SWAP1 POP SWAP2 SWAP1 POP JUMP JUMPDEST PUSH32 0x45524332303A20696E73756666696369656E7420616C6C6F77616E6365000000 PUSH0 DUP3 ADD MSTORE POP JUMP JUMPDEST PUSH0 PUSH2 0x11CC PUSH1 0x1D DUP4 PUSH2 0xC94 JUMP JUMPDEST SWAP2 POP PUSH2 0x11D7 DUP3 PUSH2 0x1198 JUMP JUMPDEST PUSH1 0x20 DUP3 ADD SWAP1 POP SWAP2 SWAP1 POP JUMP JUMPDEST PUSH0 PUSH1 0x20 DUP3 ADD SWAP1 POP DUP2 DUP2 SUB PUSH0 DUP4 ADD MSTORE PUSH2 0x11F9 DUP2 PUSH2 0x11C0 JUMP JUMPDEST SWAP1 POP SWAP2 SWAP1 POP JUMP JUMPDEST PUSH32 0x45524332303A207472616E736665722066726F6D20746865207A65726F206164 PUSH0 DUP3 ADD MSTORE PUSH32 0x6472657373000000000000000000000000000000000000000000000000000000 PUSH1 0x20 DUP3 ADD MSTORE POP JUMP JUMPDEST PUSH0 PUSH2 0x125A PUSH1 0x25 DUP4 PUSH2 0xC94 JUMP JUMPDEST SWAP2 POP PUSH2 0x1265 DUP3 PUSH2 0x1200 JUMP JUMPDEST PUSH1 0x40 DUP3 ADD SWAP1 POP SWAP2 SWAP1 POP JUMP JUMPDEST PUSH0 PUSH1 0x20 DUP3 ADD SWAP1 POP DUP2 DUP2 SUB PUSH0 DUP4 ADD MSTORE PUSH2 0x1287 DUP2 PUSH2 0x124E JUMP JUMPDEST SWAP1 POP SWAP2 SWAP1 POP JUMP JUMPDEST PUSH32 0x45524332303A207472616E7366657220746F20746865207A65726F2061646472 PUSH0 DUP3 ADD MSTORE PUSH32 0x6573730000000000000000000000000000000000000000000000000000000000 PUSH1 0x20 DUP3 ADD MSTORE POP JUMP JUMPDEST PUSH0 PUSH2 0x12E8 PUSH1 0x23 DUP4 PUSH2 0xC94 JUMP JUMPDEST SWAP2 POP PUSH2 0x12F3 DUP3 PUSH2 0x128E JUMP JUMPDEST PUSH1 0x40 DUP3 ADD SWAP1 POP SWAP2 SWAP1 POP JUMP JUMPDEST PUSH0 PUSH1 0x20 DUP3 ADD SWAP1 POP DUP2 DUP2 SUB PUSH0 DUP4 ADD MSTORE PUSH2 0x1315 DUP2 PUSH2 0x12DC JUMP JUMPDEST SWAP1 POP SWAP2 SWAP1 POP JUMP JUMPDEST PUSH32 0x45524332303A207472616E7366657220616D6F756E7420657863656564732062 PUSH0 DUP3 ADD MSTORE PUSH32 0x616C616E63650000000000000000000000000000000000000000000000000000 PUSH1 0x20 DUP3 ADD MSTORE POP JUMP JUMPDEST PUSH0 PUSH2 0x1376 PUSH1 0x26 DUP4 PUSH2 0xC94 JUMP JUMPDEST SWAP2 POP PUSH2 0x1381 DUP3 PUSH2 0x131C JUMP JUMPDEST PUSH1 0x40 DUP3 ADD SWAP1 POP SWAP2 SWAP1 POP JUMP JUMPDEST PUSH0 PUSH1 0x20 DUP3 ADD SWAP1 POP DUP2 DUP2 SUB PUSH0 DUP4 ADD MSTORE PUSH2 0x13A3 DUP2 PUSH2 0x136A JUMP JUMPDEST SWAP1 POP SWAP2 SWAP1 POP JUMP JUMPDEST PUSH32 0x45524332303A206D696E7420746F20746865207A65726F206164647265737300 PUSH0 DUP3 ADD MSTORE POP JUMP JUMPDEST PUSH0 PUSH2 0x13DE PUSH1 0x1F DUP4 PUSH2 0xC94 JUMP JUMPDEST SWAP2 POP PUSH2 0x13E9 DUP3 PUSH2 0x13AA JUMP JUMPDEST PUSH1 0x20 DUP3 ADD SWAP1 POP SWAP2 SWAP1 POP JUMP JUMPDEST PUSH0 PUSH1 0x20 DUP3 ADD SWAP1 POP DUP2 DUP2 SUB PUSH0 DUP4 ADD MSTORE PUSH2 0x140B DUP2 PUSH2 0x13D2 JUMP JUMPDEST SWAP1 POP SWAP2 SWAP1 POP JUMP INVALID LOG2 PUSH5 0x6970667358 0x22 SLT KECCAK256 OR GASPRICE PREVRANDAO SMOD MCOPY DUP4 0x4E CALLCODE 0x28 0xA7 PUSH18 0x25852F26AA61E34CC603D660F5DCF561E33B 0xBF SWAP5 PREVRANDAO PUSH5 0x736F6C6343 STOP ADDMOD BYTE STOP CALLER "
				},
				"gasEstimates": {
					"creation": {
						"codeDepositCost": "1038400",
						"executionCost": "infinite",
						"totalCost": "infinite"
					},
					"external": {
						"allowance(address,address)": "infinite",
						"approve(address,uint256)": "infinite",
						"balanceOf(address)": "2851",
						"crearTokens()": "infinite",
						"decimals()": "427",
						"decreaseAllowance(address,uint256)": "infinite",
						"increaseAllowance(address,uint256)": "infinite",
						"name()": "infinite",
						"symbol()": "infinite",
						"totalSupply()": "2477",
						"transfer(address,uint256)": "infinite",
						"transferFrom(address,address,uint256)": "infinite"
					}
				},
				"methodIdentifiers": {
					"allowance(address,address)": "dd62ed3e",
					"approve(address,uint256)": "095ea7b3",
					"balanceOf(address)": "70a08231",
					"crearTokens()": "467bc5c0",
					"decimals()": "313ce567",
					"decreaseAllowance(address,uint256)": "a457c2d7",
					"increaseAllowance(address,uint256)": "39509351",
					"name()": "06fdde03",
					"symbol()": "95d89b41",
					"totalSupply()": "18160ddd",
					"transfer(address,uint256)": "a9059cbb",
					"transferFrom(address,address,uint256)": "23b872dd"
				}
			},
			"storageLayout": {
				"storage": [
					{
						"astId": 74,
						"contract": "contracts/12-tokens-ERC20/ERC20/customERC20.sol:customERC20",
						"label": "_balances",
						"offset": 0,
						"slot": "0",
						"type": "t_mapping(t_address,t_uint256)"
					},
					{
						"astId": 80,
						"contract": "contracts/12-tokens-ERC20/ERC20/customERC20.sol:customERC20",
						"label": "_allowances",
						"offset": 0,
						"slot": "1",
						"type": "t_mapping(t_address,t_mapping(t_address,t_uint256))"
					},
					{
						"astId": 82,
						"contract": "contracts/12-tokens-ERC20/ERC20/customERC20.sol:customERC20",
						"label": "_totalSupply",
						"offset": 0,
						"slot": "2",
						"type": "t_uint256"
					},
					{
						"astId": 84,
						"contract": "contracts/12-tokens-ERC20/ERC20/customERC20.sol:customERC20",
						"label": "_name",
						"offset": 0,
						"slot": "3",
						"type": "t_string_storage"
					},
					{
						"astId": 86,
						"contract": "contracts/12-tokens-ERC20/ERC20/customERC20.sol:customERC20",
						"label": "_symbol",
						"offset": 0,
						"slot": "4",
						"type": "t_string_storage"
					}
				],
				"types": {
					"t_address": {
						"encoding": "inplace",
						"label": "address",
						"numberOfBytes": "20"
					},
					"t_mapping(t_address,t_mapping(t_address,t_uint256))": {
						"encoding": "mapping",
						"key": "t_address",
						"label": "mapping(address => mapping(address => uint256))",
						"numberOfBytes": "32",
						"value": "t_mapping(t_address,t_uint256)"
					},
					"t_mapping(t_address,t_uint256)": {
						"encoding": "mapping",
						"key": "t_address",
						"label": "mapping(address => uint256)",
						"numberOfBytes": "32",
						"value": "t_uint256"
					},
					"t_string_storage": {
						"encoding": "bytes",
						"label": "string",
						"numberOfBytes": "32"
					},
					"t_uint256": {
						"encoding": "inplace",
						"label": "uint256",
						"numberOfBytes": "32"
					}
				}
			},
			"userdoc": {
				"kind": "user",
				"methods": {},
				"version": 1
			}
		}
	}
}