{
	"contracts/7_maths.sol": {
		"maths": {
			"abi": [
				{
					"inputs": [
						{
							"internalType": "uint256",
							"name": "x",
							"type": "uint256"
						},
						{
							"internalType": "uint256",
							"name": "y",
							"type": "uint256"
						},
						{
							"internalType": "uint256",
							"name": "k",
							"type": "uint256"
						}
					],
					"name": "_addmod",
					"outputs": [
						{
							"internalType": "uint256",
							"name": "",
							"type": "uint256"
						},
						{
							"internalType": "uint256",
							"name": "",
							"type": "uint256"
						}
					],
					"stateMutability": "pure",
					"type": "function"
				},
				{
					"inputs": [
						{
							"internalType": "uint256",
							"name": "x",
							"type": "uint256"
						},
						{
							"internalType": "uint256",
							"name": "y",
							"type": "uint256"
						},
						{
							"internalType": "uint256",
							"name": "k",
							"type": "uint256"
						}
					],
					"name": "_mulmod",
					"outputs": [
						{
							"internalType": "uint256",
							"name": "",
							"type": "uint256"
						},
						{
							"internalType": "uint256",
							"name": "",
							"type": "uint256"
						}
					],
					"stateMutability": "pure",
					"type": "function"
				},
				{
					"inputs": [
						{
							"internalType": "uint256",
							"name": "a",
							"type": "uint256"
						},
						{
							"internalType": "uint256",
							"name": "b",
							"type": "uint256"
						}
					],
					"name": "div",
					"outputs": [
						{
							"internalType": "uint256",
							"name": "",
							"type": "uint256"
						}
					],
					"stateMutability": "pure",
					"type": "function"
				},
				{
					"inputs": [
						{
							"internalType": "uint256",
							"name": "a",
							"type": "uint256"
						},
						{
							"internalType": "uint256",
							"name": "b",
							"type": "uint256"
						}
					],
					"name": "expon",
					"outputs": [
						{
							"internalType": "uint256",
							"name": "",
							"type": "uint256"
						}
					],
					"stateMutability": "pure",
					"type": "function"
				},
				{
					"inputs": [
						{
							"internalType": "uint256",
							"name": "a",
							"type": "uint256"
						},
						{
							"internalType": "uint256",
							"name": "b",
							"type": "uint256"
						}
					],
					"name": "mod",
					"outputs": [
						{
							"internalType": "uint256",
							"name": "",
							"type": "uint256"
						}
					],
					"stateMutability": "pure",
					"type": "function"
				},
				{
					"inputs": [
						{
							"internalType": "uint256",
							"name": "a",
							"type": "uint256"
						},
						{
							"internalType": "uint256",
							"name": "b",
							"type": "uint256"
						}
					],
					"name": "prod",
					"outputs": [
						{
							"internalType": "uint256",
							"name": "",
							"type": "uint256"
						}
					],
					"stateMutability": "pure",
					"type": "function"
				},
				{
					"inputs": [
						{
							"internalType": "int256",
							"name": "a",
							"type": "int256"
						},
						{
							"internalType": "int256",
							"name": "b",
							"type": "int256"
						}
					],
					"name": "resta",
					"outputs": [
						{
							"internalType": "int256",
							"name": "",
							"type": "int256"
						}
					],
					"stateMutability": "pure",
					"type": "function"
				},
				{
					"inputs": [
						{
							"internalType": "uint256",
							"name": "a",
							"type": "uint256"
						},
						{
							"internalType": "uint256",
							"name": "b",
							"type": "uint256"
						}
					],
					"name": "suma",
					"outputs": [
						{
							"internalType": "uint256",
							"name": "",
							"type": "uint256"
						}
					],
					"stateMutability": "pure",
					"type": "function"
				}
			],
			"devdoc": {
				"kind": "dev",
				"methods": {},
				"version": 1
			},
			"evm": {
				"assembly": "    /* \"contracts/7_maths.sol\":69:904  contract maths {... */\n  mstore(0x40, 0x80)\n  callvalue\n  dup1\n  iszero\n  tag_1\n  jumpi\n  0x00\n  dup1\n  revert\ntag_1:\n  pop\n  dataSize(sub_0)\n  dup1\n  dataOffset(sub_0)\n  0x00\n  codecopy\n  0x00\n  return\nstop\n\nsub_0: assembly {\n        /* \"contracts/7_maths.sol\":69:904  contract maths {... */\n      mstore(0x40, 0x80)\n      callvalue\n      dup1\n      iszero\n      tag_1\n      jumpi\n      0x00\n      dup1\n      revert\n    tag_1:\n      pop\n      jumpi(tag_2, lt(calldatasize, 0x04))\n      shr(0xe0, calldataload(0x00))\n      dup1\n      0xb1b45b1b\n      gt\n      tag_11\n      jumpi\n      dup1\n      0xb1b45b1b\n      eq\n      tag_7\n      jumpi\n      dup1\n      0xdd125e37\n      eq\n      tag_8\n      jumpi\n      dup1\n      0xe989d9cc\n      eq\n      tag_9\n      jumpi\n      dup1\n      0xf43f523a\n      eq\n      tag_10\n      jumpi\n      jump(tag_2)\n    tag_11:\n      dup1\n      0x424bd620\n      eq\n      tag_3\n      jumpi\n      dup1\n      0x4c627bad\n      eq\n      tag_4\n      jumpi\n      dup1\n      0x871f9af4\n      eq\n      tag_5\n      jumpi\n      dup1\n      0xa391c15b\n      eq\n      tag_6\n      jumpi\n    tag_2:\n      0x00\n      dup1\n      revert\n        /* \"contracts/7_maths.sol\":267:350  function prod(uint a, uint b) public pure returns (uint){... */\n    tag_3:\n      tag_12\n      0x04\n      dup1\n      calldatasize\n      sub\n      dup2\n      add\n      swap1\n      tag_13\n      swap2\n      swap1\n      tag_14\n      jump\t// in\n    tag_13:\n      tag_15\n      jump\t// in\n    tag_12:\n      mload(0x40)\n      tag_16\n      swap2\n      swap1\n      tag_17\n      jump\t// in\n    tag_16:\n      mload(0x40)\n      dup1\n      swap2\n      sub\n      swap1\n      return\n        /* \"contracts/7_maths.sol\":180:261  function resta(int a, int b) public pure returns (int){... */\n    tag_4:\n      tag_18\n      0x04\n      dup1\n      calldatasize\n      sub\n      dup2\n      add\n      swap1\n      tag_19\n      swap2\n      swap1\n      tag_20\n      jump\t// in\n    tag_19:\n      tag_21\n      jump\t// in\n    tag_18:\n      mload(0x40)\n      tag_22\n      swap2\n      swap1\n      tag_23\n      jump\t// in\n    tag_22:\n      mload(0x40)\n      dup1\n      swap2\n      sub\n      swap1\n      return\n        /* \"contracts/7_maths.sol\":780:901  function _mulmod(uint x, uint y, uint k) public pure returns (uint, uint){... */\n    tag_5:\n      tag_24\n      0x04\n      dup1\n      calldatasize\n      sub\n      dup2\n      add\n      swap1\n      tag_25\n      swap2\n      swap1\n      tag_26\n      jump\t// in\n    tag_25:\n      tag_27\n      jump\t// in\n    tag_24:\n      mload(0x40)\n      tag_28\n      swap3\n      swap2\n      swap1\n      tag_29\n      jump\t// in\n    tag_28:\n      mload(0x40)\n      dup1\n      swap2\n      sub\n      swap1\n      return\n        /* \"contracts/7_maths.sol\":356:438  function div(uint a, uint b) public pure returns (uint){... */\n    tag_6:\n      tag_30\n      0x04\n      dup1\n      calldatasize\n      sub\n      dup2\n      add\n      swap1\n      tag_31\n      swap2\n      swap1\n      tag_14\n      jump\t// in\n    tag_31:\n      tag_32\n      jump\t// in\n    tag_30:\n      mload(0x40)\n      tag_33\n      swap2\n      swap1\n      tag_17\n      jump\t// in\n    tag_33:\n      mload(0x40)\n      dup1\n      swap2\n      sub\n      swap1\n      return\n        /* \"contracts/7_maths.sol\":91:174  function suma(uint a, uint b) public pure returns (uint){... */\n    tag_7:\n      tag_34\n      0x04\n      dup1\n      calldatasize\n      sub\n      dup2\n      add\n      swap1\n      tag_35\n      swap2\n      swap1\n      tag_14\n      jump\t// in\n    tag_35:\n      tag_36\n      jump\t// in\n    tag_34:\n      mload(0x40)\n      tag_37\n      swap2\n      swap1\n      tag_17\n      jump\t// in\n    tag_37:\n      mload(0x40)\n      dup1\n      swap2\n      sub\n      swap1\n      return\n        /* \"contracts/7_maths.sol\":638:759  function _addmod(uint x, uint y, uint k) public pure returns (uint, uint){... */\n    tag_8:\n      tag_38\n      0x04\n      dup1\n      calldatasize\n      sub\n      dup2\n      add\n      swap1\n      tag_39\n      swap2\n      swap1\n      tag_26\n      jump\t// in\n    tag_39:\n      tag_40\n      jump\t// in\n    tag_38:\n      mload(0x40)\n      tag_41\n      swap3\n      swap2\n      swap1\n      tag_29\n      jump\t// in\n    tag_41:\n      mload(0x40)\n      dup1\n      swap2\n      sub\n      swap1\n      return\n        /* \"contracts/7_maths.sol\":444:529  function expon(uint a, uint b) public pure returns (uint){... */\n    tag_9:\n      tag_42\n      0x04\n      dup1\n      calldatasize\n      sub\n      dup2\n      add\n      swap1\n      tag_43\n      swap2\n      swap1\n      tag_14\n      jump\t// in\n    tag_43:\n      tag_44\n      jump\t// in\n    tag_42:\n      mload(0x40)\n      tag_45\n      swap2\n      swap1\n      tag_17\n      jump\t// in\n    tag_45:\n      mload(0x40)\n      dup1\n      swap2\n      sub\n      swap1\n      return\n        /* \"contracts/7_maths.sol\":535:617  function mod(uint a, uint b) public pure returns (uint){... */\n    tag_10:\n      tag_46\n      0x04\n      dup1\n      calldatasize\n      sub\n      dup2\n      add\n      swap1\n      tag_47\n      swap2\n      swap1\n      tag_14\n      jump\t// in\n    tag_47:\n      tag_48\n      jump\t// in\n    tag_46:\n      mload(0x40)\n      tag_49\n      swap2\n      swap1\n      tag_17\n      jump\t// in\n    tag_49:\n      mload(0x40)\n      dup1\n      swap2\n      sub\n      swap1\n      return\n        /* \"contracts/7_maths.sol\":267:350  function prod(uint a, uint b) public pure returns (uint){... */\n    tag_15:\n        /* \"contracts/7_maths.sol\":318:322  uint */\n      0x00\n        /* \"contracts/7_maths.sol\":342:343  b */\n      dup2\n        /* \"contracts/7_maths.sol\":340:341  a */\n      dup4\n        /* \"contracts/7_maths.sol\":340:343  a*b */\n      tag_51\n      swap2\n      swap1\n      tag_52\n      jump\t// in\n    tag_51:\n        /* \"contracts/7_maths.sol\":333:343  return a*b */\n      swap1\n      pop\n        /* \"contracts/7_maths.sol\":267:350  function prod(uint a, uint b) public pure returns (uint){... */\n      swap3\n      swap2\n      pop\n      pop\n      jump\t// out\n        /* \"contracts/7_maths.sol\":180:261  function resta(int a, int b) public pure returns (int){... */\n    tag_21:\n        /* \"contracts/7_maths.sol\":230:233  int */\n      0x00\n        /* \"contracts/7_maths.sol\":253:254  b */\n      dup2\n        /* \"contracts/7_maths.sol\":251:252  a */\n      dup4\n        /* \"contracts/7_maths.sol\":251:254  a-b */\n      tag_54\n      swap2\n      swap1\n      tag_55\n      jump\t// in\n    tag_54:\n        /* \"contracts/7_maths.sol\":244:254  return a-b */\n      swap1\n      pop\n        /* \"contracts/7_maths.sol\":180:261  function resta(int a, int b) public pure returns (int){... */\n      swap3\n      swap2\n      pop\n      pop\n      jump\t// out\n        /* \"contracts/7_maths.sol\":780:901  function _mulmod(uint x, uint y, uint k) public pure returns (uint, uint){... */\n    tag_27:\n        /* \"contracts/7_maths.sol\":842:846  uint */\n      0x00\n        /* \"contracts/7_maths.sol\":848:852  uint */\n      dup1\n        /* \"contracts/7_maths.sol\":882:883  k */\n      dup3\n        /* \"contracts/7_maths.sol\":871:884  mulmod(x,y,k) */\n      dup1\n      tag_57\n      jumpi\n      tag_58\n      tag_59\n      jump\t// in\n    tag_58:\n    tag_57:\n        /* \"contracts/7_maths.sol\":880:881  y */\n      dup5\n        /* \"contracts/7_maths.sol\":878:879  x */\n      dup7\n        /* \"contracts/7_maths.sol\":871:884  mulmod(x,y,k) */\n      mulmod\n        /* \"contracts/7_maths.sol\":892:893  k */\n      dup4\n        /* \"contracts/7_maths.sol\":889:890  y */\n      dup6\n        /* \"contracts/7_maths.sol\":887:888  x */\n      dup8\n        /* \"contracts/7_maths.sol\":887:890  x*y */\n      tag_60\n      swap2\n      swap1\n      tag_52\n      jump\t// in\n    tag_60:\n        /* \"contracts/7_maths.sol\":886:893  (x*y)%k */\n      tag_61\n      swap2\n      swap1\n      tag_62\n      jump\t// in\n    tag_61:\n        /* \"contracts/7_maths.sol\":863:894  return (mulmod(x,y,k), (x*y)%k) */\n      swap2\n      pop\n      swap2\n      pop\n        /* \"contracts/7_maths.sol\":780:901  function _mulmod(uint x, uint y, uint k) public pure returns (uint, uint){... */\n      swap4\n      pop\n      swap4\n      swap2\n      pop\n      pop\n      jump\t// out\n        /* \"contracts/7_maths.sol\":356:438  function div(uint a, uint b) public pure returns (uint){... */\n    tag_32:\n        /* \"contracts/7_maths.sol\":406:410  uint */\n      0x00\n        /* \"contracts/7_maths.sol\":430:431  b */\n      dup2\n        /* \"contracts/7_maths.sol\":428:429  a */\n      dup4\n        /* \"contracts/7_maths.sol\":428:431  a/b */\n      tag_64\n      swap2\n      swap1\n      tag_65\n      jump\t// in\n    tag_64:\n        /* \"contracts/7_maths.sol\":421:431  return a/b */\n      swap1\n      pop\n        /* \"contracts/7_maths.sol\":356:438  function div(uint a, uint b) public pure returns (uint){... */\n      swap3\n      swap2\n      pop\n      pop\n      jump\t// out\n        /* \"contracts/7_maths.sol\":91:174  function suma(uint a, uint b) public pure returns (uint){... */\n    tag_36:\n        /* \"contracts/7_maths.sol\":142:146  uint */\n      0x00\n        /* \"contracts/7_maths.sol\":166:167  b */\n      dup2\n        /* \"contracts/7_maths.sol\":164:165  a */\n      dup4\n        /* \"contracts/7_maths.sol\":164:167  a+b */\n      tag_67\n      swap2\n      swap1\n      tag_68\n      jump\t// in\n    tag_67:\n        /* \"contracts/7_maths.sol\":157:167  return a+b */\n      swap1\n      pop\n        /* \"contracts/7_maths.sol\":91:174  function suma(uint a, uint b) public pure returns (uint){... */\n      swap3\n      swap2\n      pop\n      pop\n      jump\t// out\n        /* \"contracts/7_maths.sol\":638:759  function _addmod(uint x, uint y, uint k) public pure returns (uint, uint){... */\n    tag_40:\n        /* \"contracts/7_maths.sol\":700:704  uint */\n      0x00\n        /* \"contracts/7_maths.sol\":706:710  uint */\n      dup1\n        /* \"contracts/7_maths.sol\":740:741  k */\n      dup3\n        /* \"contracts/7_maths.sol\":729:742  addmod(x,y,k) */\n      dup1\n      tag_70\n      jumpi\n      tag_71\n      tag_59\n      jump\t// in\n    tag_71:\n    tag_70:\n        /* \"contracts/7_maths.sol\":738:739  y */\n      dup5\n        /* \"contracts/7_maths.sol\":736:737  x */\n      dup7\n        /* \"contracts/7_maths.sol\":729:742  addmod(x,y,k) */\n      addmod\n        /* \"contracts/7_maths.sol\":750:751  k */\n      dup4\n        /* \"contracts/7_maths.sol\":747:748  y */\n      dup6\n        /* \"contracts/7_maths.sol\":745:746  x */\n      dup8\n        /* \"contracts/7_maths.sol\":745:748  x+y */\n      tag_72\n      swap2\n      swap1\n      tag_68\n      jump\t// in\n    tag_72:\n        /* \"contracts/7_maths.sol\":744:751  (x+y)%k */\n      tag_73\n      swap2\n      swap1\n      tag_62\n      jump\t// in\n    tag_73:\n        /* \"contracts/7_maths.sol\":721:752  return (addmod(x,y,k), (x+y)%k) */\n      swap2\n      pop\n      swap2\n      pop\n        /* \"contracts/7_maths.sol\":638:759  function _addmod(uint x, uint y, uint k) public pure returns (uint, uint){... */\n      swap4\n      pop\n      swap4\n      swap2\n      pop\n      pop\n      jump\t// out\n        /* \"contracts/7_maths.sol\":444:529  function expon(uint a, uint b) public pure returns (uint){... */\n    tag_44:\n        /* \"contracts/7_maths.sol\":496:500  uint */\n      0x00\n        /* \"contracts/7_maths.sol\":521:522  b */\n      dup2\n        /* \"contracts/7_maths.sol\":518:519  a */\n      dup4\n        /* \"contracts/7_maths.sol\":518:522  a**b */\n      tag_75\n      swap2\n      swap1\n      tag_76\n      jump\t// in\n    tag_75:\n        /* \"contracts/7_maths.sol\":511:522  return a**b */\n      swap1\n      pop\n        /* \"contracts/7_maths.sol\":444:529  function expon(uint a, uint b) public pure returns (uint){... */\n      swap3\n      swap2\n      pop\n      pop\n      jump\t// out\n        /* \"contracts/7_maths.sol\":535:617  function mod(uint a, uint b) public pure returns (uint){... */\n    tag_48:\n        /* \"contracts/7_maths.sol\":585:589  uint */\n      0x00\n        /* \"contracts/7_maths.sol\":609:610  b */\n      dup2\n        /* \"contracts/7_maths.sol\":607:608  a */\n      dup4\n        /* \"contracts/7_maths.sol\":607:610  a%b */\n      tag_78\n      swap2\n      swap1\n      tag_62\n      jump\t// in\n    tag_78:\n        /* \"contracts/7_maths.sol\":600:610  return a%b */\n      swap1\n      pop\n        /* \"contracts/7_maths.sol\":535:617  function mod(uint a, uint b) public pure returns (uint){... */\n      swap3\n      swap2\n      pop\n      pop\n      jump\t// out\n        /* \"#utility.yul\":88:205   */\n    tag_80:\n        /* \"#utility.yul\":197:198   */\n      0x00\n        /* \"#utility.yul\":194:195   */\n      dup1\n        /* \"#utility.yul\":187:199   */\n      revert\n        /* \"#utility.yul\":334:411   */\n    tag_82:\n        /* \"#utility.yul\":371:378   */\n      0x00\n        /* \"#utility.yul\":400:405   */\n      dup2\n        /* \"#utility.yul\":389:405   */\n      swap1\n      pop\n        /* \"#utility.yul\":334:411   */\n      swap2\n      swap1\n      pop\n      jump\t// out\n        /* \"#utility.yul\":417:539   */\n    tag_83:\n        /* \"#utility.yul\":490:514   */\n      tag_100\n        /* \"#utility.yul\":508:513   */\n      dup2\n        /* \"#utility.yul\":490:514   */\n      tag_82\n      jump\t// in\n    tag_100:\n        /* \"#utility.yul\":483:488   */\n      dup2\n        /* \"#utility.yul\":480:515   */\n      eq\n        /* \"#utility.yul\":470:533   */\n      tag_101\n      jumpi\n        /* \"#utility.yul\":529:530   */\n      0x00\n        /* \"#utility.yul\":526:527   */\n      dup1\n        /* \"#utility.yul\":519:531   */\n      revert\n        /* \"#utility.yul\":470:533   */\n    tag_101:\n        /* \"#utility.yul\":417:539   */\n      pop\n      jump\t// out\n        /* \"#utility.yul\":545:684   */\n    tag_84:\n        /* \"#utility.yul\":591:596   */\n      0x00\n        /* \"#utility.yul\":629:635   */\n      dup2\n        /* \"#utility.yul\":616:636   */\n      calldataload\n        /* \"#utility.yul\":607:636   */\n      swap1\n      pop\n        /* \"#utility.yul\":645:678   */\n      tag_103\n        /* \"#utility.yul\":672:677   */\n      dup2\n        /* \"#utility.yul\":645:678   */\n      tag_83\n      jump\t// in\n    tag_103:\n        /* \"#utility.yul\":545:684   */\n      swap3\n      swap2\n      pop\n      pop\n      jump\t// out\n        /* \"#utility.yul\":690:1164   */\n    tag_14:\n        /* \"#utility.yul\":758:764   */\n      0x00\n        /* \"#utility.yul\":766:772   */\n      dup1\n        /* \"#utility.yul\":815:817   */\n      0x40\n        /* \"#utility.yul\":803:812   */\n      dup4\n        /* \"#utility.yul\":794:801   */\n      dup6\n        /* \"#utility.yul\":790:813   */\n      sub\n        /* \"#utility.yul\":786:818   */\n      slt\n        /* \"#utility.yul\":783:902   */\n      iszero\n      tag_105\n      jumpi\n        /* \"#utility.yul\":821:900   */\n      tag_106\n      tag_80\n      jump\t// in\n    tag_106:\n        /* \"#utility.yul\":783:902   */\n    tag_105:\n        /* \"#utility.yul\":941:942   */\n      0x00\n        /* \"#utility.yul\":966:1019   */\n      tag_107\n        /* \"#utility.yul\":1011:1018   */\n      dup6\n        /* \"#utility.yul\":1002:1008   */\n      dup3\n        /* \"#utility.yul\":991:1000   */\n      dup7\n        /* \"#utility.yul\":987:1009   */\n      add\n        /* \"#utility.yul\":966:1019   */\n      tag_84\n      jump\t// in\n    tag_107:\n        /* \"#utility.yul\":956:1019   */\n      swap3\n      pop\n        /* \"#utility.yul\":912:1029   */\n      pop\n        /* \"#utility.yul\":1068:1070   */\n      0x20\n        /* \"#utility.yul\":1094:1147   */\n      tag_108\n        /* \"#utility.yul\":1139:1146   */\n      dup6\n        /* \"#utility.yul\":1130:1136   */\n      dup3\n        /* \"#utility.yul\":1119:1128   */\n      dup7\n        /* \"#utility.yul\":1115:1137   */\n      add\n        /* \"#utility.yul\":1094:1147   */\n      tag_84\n      jump\t// in\n    tag_108:\n        /* \"#utility.yul\":1084:1147   */\n      swap2\n      pop\n        /* \"#utility.yul\":1039:1157   */\n      pop\n        /* \"#utility.yul\":690:1164   */\n      swap3\n      pop\n      swap3\n      swap1\n      pop\n      jump\t// out\n        /* \"#utility.yul\":1170:1288   */\n    tag_85:\n        /* \"#utility.yul\":1257:1281   */\n      tag_110\n        /* \"#utility.yul\":1275:1280   */\n      dup2\n        /* \"#utility.yul\":1257:1281   */\n      tag_82\n      jump\t// in\n    tag_110:\n        /* \"#utility.yul\":1252:1255   */\n      dup3\n        /* \"#utility.yul\":1245:1282   */\n      mstore\n        /* \"#utility.yul\":1170:1288   */\n      pop\n      pop\n      jump\t// out\n        /* \"#utility.yul\":1294:1516   */\n    tag_17:\n        /* \"#utility.yul\":1387:1391   */\n      0x00\n        /* \"#utility.yul\":1425:1427   */\n      0x20\n        /* \"#utility.yul\":1414:1423   */\n      dup3\n        /* \"#utility.yul\":1410:1428   */\n      add\n        /* \"#utility.yul\":1402:1428   */\n      swap1\n      pop\n        /* \"#utility.yul\":1438:1509   */\n      tag_112\n        /* \"#utility.yul\":1506:1507   */\n      0x00\n        /* \"#utility.yul\":1495:1504   */\n      dup4\n        /* \"#utility.yul\":1491:1508   */\n      add\n        /* \"#utility.yul\":1482:1488   */\n      dup5\n        /* \"#utility.yul\":1438:1509   */\n      tag_85\n      jump\t// in\n    tag_112:\n        /* \"#utility.yul\":1294:1516   */\n      swap3\n      swap2\n      pop\n      pop\n      jump\t// out\n        /* \"#utility.yul\":1522:1598   */\n    tag_86:\n        /* \"#utility.yul\":1558:1565   */\n      0x00\n        /* \"#utility.yul\":1587:1592   */\n      dup2\n        /* \"#utility.yul\":1576:1592   */\n      swap1\n      pop\n        /* \"#utility.yul\":1522:1598   */\n      swap2\n      swap1\n      pop\n      jump\t// out\n        /* \"#utility.yul\":1604:1724   */\n    tag_87:\n        /* \"#utility.yul\":1676:1699   */\n      tag_115\n        /* \"#utility.yul\":1693:1698   */\n      dup2\n        /* \"#utility.yul\":1676:1699   */\n      tag_86\n      jump\t// in\n    tag_115:\n        /* \"#utility.yul\":1669:1674   */\n      dup2\n        /* \"#utility.yul\":1666:1700   */\n      eq\n        /* \"#utility.yul\":1656:1718   */\n      tag_116\n      jumpi\n        /* \"#utility.yul\":1714:1715   */\n      0x00\n        /* \"#utility.yul\":1711:1712   */\n      dup1\n        /* \"#utility.yul\":1704:1716   */\n      revert\n        /* \"#utility.yul\":1656:1718   */\n    tag_116:\n        /* \"#utility.yul\":1604:1724   */\n      pop\n      jump\t// out\n        /* \"#utility.yul\":1730:1867   */\n    tag_88:\n        /* \"#utility.yul\":1775:1780   */\n      0x00\n        /* \"#utility.yul\":1813:1819   */\n      dup2\n        /* \"#utility.yul\":1800:1820   */\n      calldataload\n        /* \"#utility.yul\":1791:1820   */\n      swap1\n      pop\n        /* \"#utility.yul\":1829:1861   */\n      tag_118\n        /* \"#utility.yul\":1855:1860   */\n      dup2\n        /* \"#utility.yul\":1829:1861   */\n      tag_87\n      jump\t// in\n    tag_118:\n        /* \"#utility.yul\":1730:1867   */\n      swap3\n      swap2\n      pop\n      pop\n      jump\t// out\n        /* \"#utility.yul\":1873:2343   */\n    tag_20:\n        /* \"#utility.yul\":1939:1945   */\n      0x00\n        /* \"#utility.yul\":1947:1953   */\n      dup1\n        /* \"#utility.yul\":1996:1998   */\n      0x40\n        /* \"#utility.yul\":1984:1993   */\n      dup4\n        /* \"#utility.yul\":1975:1982   */\n      dup6\n        /* \"#utility.yul\":1971:1994   */\n      sub\n        /* \"#utility.yul\":1967:1999   */\n      slt\n        /* \"#utility.yul\":1964:2083   */\n      iszero\n      tag_120\n      jumpi\n        /* \"#utility.yul\":2002:2081   */\n      tag_121\n      tag_80\n      jump\t// in\n    tag_121:\n        /* \"#utility.yul\":1964:2083   */\n    tag_120:\n        /* \"#utility.yul\":2122:2123   */\n      0x00\n        /* \"#utility.yul\":2147:2199   */\n      tag_122\n        /* \"#utility.yul\":2191:2198   */\n      dup6\n        /* \"#utility.yul\":2182:2188   */\n      dup3\n        /* \"#utility.yul\":2171:2180   */\n      dup7\n        /* \"#utility.yul\":2167:2189   */\n      add\n        /* \"#utility.yul\":2147:2199   */\n      tag_88\n      jump\t// in\n    tag_122:\n        /* \"#utility.yul\":2137:2199   */\n      swap3\n      pop\n        /* \"#utility.yul\":2093:2209   */\n      pop\n        /* \"#utility.yul\":2248:2250   */\n      0x20\n        /* \"#utility.yul\":2274:2326   */\n      tag_123\n        /* \"#utility.yul\":2318:2325   */\n      dup6\n        /* \"#utility.yul\":2309:2315   */\n      dup3\n        /* \"#utility.yul\":2298:2307   */\n      dup7\n        /* \"#utility.yul\":2294:2316   */\n      add\n        /* \"#utility.yul\":2274:2326   */\n      tag_88\n      jump\t// in\n    tag_123:\n        /* \"#utility.yul\":2264:2326   */\n      swap2\n      pop\n        /* \"#utility.yul\":2219:2336   */\n      pop\n        /* \"#utility.yul\":1873:2343   */\n      swap3\n      pop\n      swap3\n      swap1\n      pop\n      jump\t// out\n        /* \"#utility.yul\":2349:2464   */\n    tag_89:\n        /* \"#utility.yul\":2434:2457   */\n      tag_125\n        /* \"#utility.yul\":2451:2456   */\n      dup2\n        /* \"#utility.yul\":2434:2457   */\n      tag_86\n      jump\t// in\n    tag_125:\n        /* \"#utility.yul\":2429:2432   */\n      dup3\n        /* \"#utility.yul\":2422:2458   */\n      mstore\n        /* \"#utility.yul\":2349:2464   */\n      pop\n      pop\n      jump\t// out\n        /* \"#utility.yul\":2470:2688   */\n    tag_23:\n        /* \"#utility.yul\":2561:2565   */\n      0x00\n        /* \"#utility.yul\":2599:2601   */\n      0x20\n        /* \"#utility.yul\":2588:2597   */\n      dup3\n        /* \"#utility.yul\":2584:2602   */\n      add\n        /* \"#utility.yul\":2576:2602   */\n      swap1\n      pop\n        /* \"#utility.yul\":2612:2681   */\n      tag_127\n        /* \"#utility.yul\":2678:2679   */\n      0x00\n        /* \"#utility.yul\":2667:2676   */\n      dup4\n        /* \"#utility.yul\":2663:2680   */\n      add\n        /* \"#utility.yul\":2654:2660   */\n      dup5\n        /* \"#utility.yul\":2612:2681   */\n      tag_89\n      jump\t// in\n    tag_127:\n        /* \"#utility.yul\":2470:2688   */\n      swap3\n      swap2\n      pop\n      pop\n      jump\t// out\n        /* \"#utility.yul\":2694:3313   */\n    tag_26:\n        /* \"#utility.yul\":2771:2777   */\n      0x00\n        /* \"#utility.yul\":2779:2785   */\n      dup1\n        /* \"#utility.yul\":2787:2793   */\n      0x00\n        /* \"#utility.yul\":2836:2838   */\n      0x60\n        /* \"#utility.yul\":2824:2833   */\n      dup5\n        /* \"#utility.yul\":2815:2822   */\n      dup7\n        /* \"#utility.yul\":2811:2834   */\n      sub\n        /* \"#utility.yul\":2807:2839   */\n      slt\n        /* \"#utility.yul\":2804:2923   */\n      iszero\n      tag_129\n      jumpi\n        /* \"#utility.yul\":2842:2921   */\n      tag_130\n      tag_80\n      jump\t// in\n    tag_130:\n        /* \"#utility.yul\":2804:2923   */\n    tag_129:\n        /* \"#utility.yul\":2962:2963   */\n      0x00\n        /* \"#utility.yul\":2987:3040   */\n      tag_131\n        /* \"#utility.yul\":3032:3039   */\n      dup7\n        /* \"#utility.yul\":3023:3029   */\n      dup3\n        /* \"#utility.yul\":3012:3021   */\n      dup8\n        /* \"#utility.yul\":3008:3030   */\n      add\n        /* \"#utility.yul\":2987:3040   */\n      tag_84\n      jump\t// in\n    tag_131:\n        /* \"#utility.yul\":2977:3040   */\n      swap4\n      pop\n        /* \"#utility.yul\":2933:3050   */\n      pop\n        /* \"#utility.yul\":3089:3091   */\n      0x20\n        /* \"#utility.yul\":3115:3168   */\n      tag_132\n        /* \"#utility.yul\":3160:3167   */\n      dup7\n        /* \"#utility.yul\":3151:3157   */\n      dup3\n        /* \"#utility.yul\":3140:3149   */\n      dup8\n        /* \"#utility.yul\":3136:3158   */\n      add\n        /* \"#utility.yul\":3115:3168   */\n      tag_84\n      jump\t// in\n    tag_132:\n        /* \"#utility.yul\":3105:3168   */\n      swap3\n      pop\n        /* \"#utility.yul\":3060:3178   */\n      pop\n        /* \"#utility.yul\":3217:3219   */\n      0x40\n        /* \"#utility.yul\":3243:3296   */\n      tag_133\n        /* \"#utility.yul\":3288:3295   */\n      dup7\n        /* \"#utility.yul\":3279:3285   */\n      dup3\n        /* \"#utility.yul\":3268:3277   */\n      dup8\n        /* \"#utility.yul\":3264:3286   */\n      add\n        /* \"#utility.yul\":3243:3296   */\n      tag_84\n      jump\t// in\n    tag_133:\n        /* \"#utility.yul\":3233:3296   */\n      swap2\n      pop\n        /* \"#utility.yul\":3188:3306   */\n      pop\n        /* \"#utility.yul\":2694:3313   */\n      swap3\n      pop\n      swap3\n      pop\n      swap3\n      jump\t// out\n        /* \"#utility.yul\":3319:3651   */\n    tag_29:\n        /* \"#utility.yul\":3440:3444   */\n      0x00\n        /* \"#utility.yul\":3478:3480   */\n      0x40\n        /* \"#utility.yul\":3467:3476   */\n      dup3\n        /* \"#utility.yul\":3463:3481   */\n      add\n        /* \"#utility.yul\":3455:3481   */\n      swap1\n      pop\n        /* \"#utility.yul\":3491:3562   */\n      tag_135\n        /* \"#utility.yul\":3559:3560   */\n      0x00\n        /* \"#utility.yul\":3548:3557   */\n      dup4\n        /* \"#utility.yul\":3544:3561   */\n      add\n        /* \"#utility.yul\":3535:3541   */\n      dup6\n        /* \"#utility.yul\":3491:3562   */\n      tag_85\n      jump\t// in\n    tag_135:\n        /* \"#utility.yul\":3572:3644   */\n      tag_136\n        /* \"#utility.yul\":3640:3642   */\n      0x20\n        /* \"#utility.yul\":3629:3638   */\n      dup4\n        /* \"#utility.yul\":3625:3643   */\n      add\n        /* \"#utility.yul\":3616:3622   */\n      dup5\n        /* \"#utility.yul\":3572:3644   */\n      tag_85\n      jump\t// in\n    tag_136:\n        /* \"#utility.yul\":3319:3651   */\n      swap4\n      swap3\n      pop\n      pop\n      pop\n      jump\t// out\n        /* \"#utility.yul\":3657:3837   */\n    tag_90:\n        /* \"#utility.yul\":3705:3782   */\n      0x4e487b7100000000000000000000000000000000000000000000000000000000\n        /* \"#utility.yul\":3702:3703   */\n      0x00\n        /* \"#utility.yul\":3695:3783   */\n      mstore\n        /* \"#utility.yul\":3802:3806   */\n      0x11\n        /* \"#utility.yul\":3799:3800   */\n      0x04\n        /* \"#utility.yul\":3792:3807   */\n      mstore\n        /* \"#utility.yul\":3826:3830   */\n      0x24\n        /* \"#utility.yul\":3823:3824   */\n      0x00\n        /* \"#utility.yul\":3816:3831   */\n      revert\n        /* \"#utility.yul\":3843:4253   */\n    tag_52:\n        /* \"#utility.yul\":3883:3890   */\n      0x00\n        /* \"#utility.yul\":3906:3926   */\n      tag_139\n        /* \"#utility.yul\":3924:3925   */\n      dup3\n        /* \"#utility.yul\":3906:3926   */\n      tag_82\n      jump\t// in\n    tag_139:\n        /* \"#utility.yul\":3901:3926   */\n      swap2\n      pop\n        /* \"#utility.yul\":3940:3960   */\n      tag_140\n        /* \"#utility.yul\":3958:3959   */\n      dup4\n        /* \"#utility.yul\":3940:3960   */\n      tag_82\n      jump\t// in\n    tag_140:\n        /* \"#utility.yul\":3935:3960   */\n      swap3\n      pop\n        /* \"#utility.yul\":3995:3996   */\n      dup3\n        /* \"#utility.yul\":3992:3993   */\n      dup3\n        /* \"#utility.yul\":3988:3997   */\n      mul\n        /* \"#utility.yul\":4017:4047   */\n      tag_141\n        /* \"#utility.yul\":4035:4046   */\n      dup2\n        /* \"#utility.yul\":4017:4047   */\n      tag_82\n      jump\t// in\n    tag_141:\n        /* \"#utility.yul\":4006:4047   */\n      swap2\n      pop\n        /* \"#utility.yul\":4196:4197   */\n      dup3\n        /* \"#utility.yul\":4187:4194   */\n      dup3\n        /* \"#utility.yul\":4183:4198   */\n      div\n        /* \"#utility.yul\":4180:4181   */\n      dup5\n        /* \"#utility.yul\":4177:4199   */\n      eq\n        /* \"#utility.yul\":4157:4158   */\n      dup4\n        /* \"#utility.yul\":4150:4159   */\n      iszero\n        /* \"#utility.yul\":4130:4213   */\n      or\n        /* \"#utility.yul\":4107:4246   */\n      tag_142\n      jumpi\n        /* \"#utility.yul\":4226:4244   */\n      tag_143\n      tag_90\n      jump\t// in\n    tag_143:\n        /* \"#utility.yul\":4107:4246   */\n    tag_142:\n        /* \"#utility.yul\":3891:4253   */\n      pop\n        /* \"#utility.yul\":3843:4253   */\n      swap3\n      swap2\n      pop\n      pop\n      jump\t// out\n        /* \"#utility.yul\":4259:4631   */\n    tag_55:\n        /* \"#utility.yul\":4298:4302   */\n      0x00\n        /* \"#utility.yul\":4318:4337   */\n      tag_145\n        /* \"#utility.yul\":4335:4336   */\n      dup3\n        /* \"#utility.yul\":4318:4337   */\n      tag_86\n      jump\t// in\n    tag_145:\n        /* \"#utility.yul\":4313:4337   */\n      swap2\n      pop\n        /* \"#utility.yul\":4351:4370   */\n      tag_146\n        /* \"#utility.yul\":4368:4369   */\n      dup4\n        /* \"#utility.yul\":4351:4370   */\n      tag_86\n      jump\t// in\n    tag_146:\n        /* \"#utility.yul\":4346:4370   */\n      swap3\n      pop\n        /* \"#utility.yul\":4394:4395   */\n      dup3\n        /* \"#utility.yul\":4391:4392   */\n      dup3\n        /* \"#utility.yul\":4387:4396   */\n      sub\n        /* \"#utility.yul\":4379:4396   */\n      swap1\n      pop\n        /* \"#utility.yul\":4588:4589   */\n      dup2\n        /* \"#utility.yul\":4582:4586   */\n      dup2\n        /* \"#utility.yul\":4578:4590   */\n      slt\n        /* \"#utility.yul\":4574:4575   */\n      0x00\n        /* \"#utility.yul\":4571:4572   */\n      dup5\n        /* \"#utility.yul\":4567:4576   */\n      slt\n        /* \"#utility.yul\":4563:4591   */\n      and\n        /* \"#utility.yul\":4546:4547   */\n      dup3\n        /* \"#utility.yul\":4540:4544   */\n      dup3\n        /* \"#utility.yul\":4536:4548   */\n      sgt\n        /* \"#utility.yul\":4531:4532   */\n      0x00\n        /* \"#utility.yul\":4528:4529   */\n      dup6\n        /* \"#utility.yul\":4524:4533   */\n      slt\n        /* \"#utility.yul\":4517:4534   */\n      iszero\n        /* \"#utility.yul\":4513:4549   */\n      and\n        /* \"#utility.yul\":4497:4601   */\n      or\n        /* \"#utility.yul\":4494:4624   */\n      iszero\n      tag_147\n      jumpi\n        /* \"#utility.yul\":4604:4622   */\n      tag_148\n      tag_90\n      jump\t// in\n    tag_148:\n        /* \"#utility.yul\":4494:4624   */\n    tag_147:\n        /* \"#utility.yul\":4259:4631   */\n      swap3\n      swap2\n      pop\n      pop\n      jump\t// out\n        /* \"#utility.yul\":4637:4817   */\n    tag_59:\n        /* \"#utility.yul\":4685:4762   */\n      0x4e487b7100000000000000000000000000000000000000000000000000000000\n        /* \"#utility.yul\":4682:4683   */\n      0x00\n        /* \"#utility.yul\":4675:4763   */\n      mstore\n        /* \"#utility.yul\":4782:4786   */\n      0x12\n        /* \"#utility.yul\":4779:4780   */\n      0x04\n        /* \"#utility.yul\":4772:4787   */\n      mstore\n        /* \"#utility.yul\":4806:4810   */\n      0x24\n        /* \"#utility.yul\":4803:4804   */\n      0x00\n        /* \"#utility.yul\":4796:4811   */\n      revert\n        /* \"#utility.yul\":4823:4999   */\n    tag_62:\n        /* \"#utility.yul\":4855:4856   */\n      0x00\n        /* \"#utility.yul\":4872:4892   */\n      tag_151\n        /* \"#utility.yul\":4890:4891   */\n      dup3\n        /* \"#utility.yul\":4872:4892   */\n      tag_82\n      jump\t// in\n    tag_151:\n        /* \"#utility.yul\":4867:4892   */\n      swap2\n      pop\n        /* \"#utility.yul\":4906:4926   */\n      tag_152\n        /* \"#utility.yul\":4924:4925   */\n      dup4\n        /* \"#utility.yul\":4906:4926   */\n      tag_82\n      jump\t// in\n    tag_152:\n        /* \"#utility.yul\":4901:4926   */\n      swap3\n      pop\n        /* \"#utility.yul\":4945:4946   */\n      dup3\n        /* \"#utility.yul\":4935:4970   */\n      tag_153\n      jumpi\n        /* \"#utility.yul\":4950:4968   */\n      tag_154\n      tag_59\n      jump\t// in\n    tag_154:\n        /* \"#utility.yul\":4935:4970   */\n    tag_153:\n        /* \"#utility.yul\":4991:4992   */\n      dup3\n        /* \"#utility.yul\":4988:4989   */\n      dup3\n        /* \"#utility.yul\":4984:4993   */\n      mod\n        /* \"#utility.yul\":4979:4993   */\n      swap1\n      pop\n        /* \"#utility.yul\":4823:4999   */\n      swap3\n      swap2\n      pop\n      pop\n      jump\t// out\n        /* \"#utility.yul\":5005:5190   */\n    tag_65:\n        /* \"#utility.yul\":5045:5046   */\n      0x00\n        /* \"#utility.yul\":5062:5082   */\n      tag_156\n        /* \"#utility.yul\":5080:5081   */\n      dup3\n        /* \"#utility.yul\":5062:5082   */\n      tag_82\n      jump\t// in\n    tag_156:\n        /* \"#utility.yul\":5057:5082   */\n      swap2\n      pop\n        /* \"#utility.yul\":5096:5116   */\n      tag_157\n        /* \"#utility.yul\":5114:5115   */\n      dup4\n        /* \"#utility.yul\":5096:5116   */\n      tag_82\n      jump\t// in\n    tag_157:\n        /* \"#utility.yul\":5091:5116   */\n      swap3\n      pop\n        /* \"#utility.yul\":5135:5136   */\n      dup3\n        /* \"#utility.yul\":5125:5160   */\n      tag_158\n      jumpi\n        /* \"#utility.yul\":5140:5158   */\n      tag_159\n      tag_59\n      jump\t// in\n    tag_159:\n        /* \"#utility.yul\":5125:5160   */\n    tag_158:\n        /* \"#utility.yul\":5182:5183   */\n      dup3\n        /* \"#utility.yul\":5179:5180   */\n      dup3\n        /* \"#utility.yul\":5175:5184   */\n      div\n        /* \"#utility.yul\":5170:5184   */\n      swap1\n      pop\n        /* \"#utility.yul\":5005:5190   */\n      swap3\n      swap2\n      pop\n      pop\n      jump\t// out\n        /* \"#utility.yul\":5196:5387   */\n    tag_68:\n        /* \"#utility.yul\":5236:5239   */\n      0x00\n        /* \"#utility.yul\":5255:5275   */\n      tag_161\n        /* \"#utility.yul\":5273:5274   */\n      dup3\n        /* \"#utility.yul\":5255:5275   */\n      tag_82\n      jump\t// in\n    tag_161:\n        /* \"#utility.yul\":5250:5275   */\n      swap2\n      pop\n        /* \"#utility.yul\":5289:5309   */\n      tag_162\n        /* \"#utility.yul\":5307:5308   */\n      dup4\n        /* \"#utility.yul\":5289:5309   */\n      tag_82\n      jump\t// in\n    tag_162:\n        /* \"#utility.yul\":5284:5309   */\n      swap3\n      pop\n        /* \"#utility.yul\":5332:5333   */\n      dup3\n        /* \"#utility.yul\":5329:5330   */\n      dup3\n        /* \"#utility.yul\":5325:5334   */\n      add\n        /* \"#utility.yul\":5318:5334   */\n      swap1\n      pop\n        /* \"#utility.yul\":5353:5356   */\n      dup1\n        /* \"#utility.yul\":5350:5351   */\n      dup3\n        /* \"#utility.yul\":5347:5357   */\n      gt\n        /* \"#utility.yul\":5344:5380   */\n      iszero\n      tag_163\n      jumpi\n        /* \"#utility.yul\":5360:5378   */\n      tag_164\n      tag_90\n      jump\t// in\n    tag_164:\n        /* \"#utility.yul\":5344:5380   */\n    tag_163:\n        /* \"#utility.yul\":5196:5387   */\n      swap3\n      swap2\n      pop\n      pop\n      jump\t// out\n        /* \"#utility.yul\":5393:5495   */\n    tag_91:\n        /* \"#utility.yul\":5435:5443   */\n      0x00\n        /* \"#utility.yul\":5482:5487   */\n      dup2\n        /* \"#utility.yul\":5479:5480   */\n      0x01\n        /* \"#utility.yul\":5475:5488   */\n      shr\n        /* \"#utility.yul\":5454:5488   */\n      swap1\n      pop\n        /* \"#utility.yul\":5393:5495   */\n      swap2\n      swap1\n      pop\n      jump\t// out\n        /* \"#utility.yul\":5501:6349   */\n    tag_92:\n        /* \"#utility.yul\":5562:5567   */\n      0x00\n        /* \"#utility.yul\":5569:5573   */\n      dup1\n        /* \"#utility.yul\":5593:5599   */\n      dup3\n        /* \"#utility.yul\":5584:5599   */\n      swap2\n      pop\n        /* \"#utility.yul\":5617:5622   */\n      dup4\n        /* \"#utility.yul\":5608:5622   */\n      swap1\n      pop\n        /* \"#utility.yul\":5631:6343   */\n    tag_167:\n        /* \"#utility.yul\":5652:5653   */\n      0x01\n        /* \"#utility.yul\":5642:5650   */\n      dup6\n        /* \"#utility.yul\":5639:5654   */\n      gt\n        /* \"#utility.yul\":5631:6343   */\n      iszero\n      tag_169\n      jumpi\n        /* \"#utility.yul\":5747:5751   */\n      dup1\n        /* \"#utility.yul\":5742:5745   */\n      dup7\n        /* \"#utility.yul\":5738:5752   */\n      div\n        /* \"#utility.yul\":5732:5736   */\n      dup2\n        /* \"#utility.yul\":5729:5753   */\n      gt\n        /* \"#utility.yul\":5726:5776   */\n      iszero\n      tag_170\n      jumpi\n        /* \"#utility.yul\":5756:5774   */\n      tag_171\n      tag_90\n      jump\t// in\n    tag_171:\n        /* \"#utility.yul\":5726:5776   */\n    tag_170:\n        /* \"#utility.yul\":5806:5807   */\n      0x01\n        /* \"#utility.yul\":5796:5804   */\n      dup6\n        /* \"#utility.yul\":5792:5808   */\n      and\n        /* \"#utility.yul\":5789:6240   */\n      iszero\n      tag_172\n      jumpi\n        /* \"#utility.yul\":6221:6225   */\n      dup1\n        /* \"#utility.yul\":6214:6219   */\n      dup3\n        /* \"#utility.yul\":6210:6226   */\n      mul\n        /* \"#utility.yul\":6201:6226   */\n      swap2\n      pop\n        /* \"#utility.yul\":5789:6240   */\n    tag_172:\n        /* \"#utility.yul\":6271:6275   */\n      dup1\n        /* \"#utility.yul\":6265:6269   */\n      dup2\n        /* \"#utility.yul\":6261:6276   */\n      mul\n        /* \"#utility.yul\":6253:6276   */\n      swap1\n      pop\n        /* \"#utility.yul\":6301:6333   */\n      tag_173\n        /* \"#utility.yul\":6324:6332   */\n      dup6\n        /* \"#utility.yul\":6301:6333   */\n      tag_91\n      jump\t// in\n    tag_173:\n        /* \"#utility.yul\":6289:6333   */\n      swap5\n      pop\n        /* \"#utility.yul\":5631:6343   */\n      jump(tag_167)\n    tag_169:\n        /* \"#utility.yul\":5501:6349   */\n      swap5\n      pop\n      swap5\n      swap3\n      pop\n      pop\n      pop\n      jump\t// out\n        /* \"#utility.yul\":6355:7428   */\n    tag_93:\n        /* \"#utility.yul\":6409:6414   */\n      0x00\n        /* \"#utility.yul\":6600:6608   */\n      dup3\n        /* \"#utility.yul\":6590:6630   */\n      tag_175\n      jumpi\n        /* \"#utility.yul\":6621:6622   */\n      0x01\n        /* \"#utility.yul\":6612:6622   */\n      swap1\n      pop\n        /* \"#utility.yul\":6623:6628   */\n      jump(tag_174)\n        /* \"#utility.yul\":6590:6630   */\n    tag_175:\n        /* \"#utility.yul\":6649:6653   */\n      dup2\n        /* \"#utility.yul\":6639:6675   */\n      tag_176\n      jumpi\n        /* \"#utility.yul\":6666:6667   */\n      0x00\n        /* \"#utility.yul\":6657:6667   */\n      swap1\n      pop\n        /* \"#utility.yul\":6668:6673   */\n      jump(tag_174)\n        /* \"#utility.yul\":6639:6675   */\n    tag_176:\n        /* \"#utility.yul\":6735:6739   */\n      dup2\n        /* \"#utility.yul\":6783:6784   */\n      0x01\n        /* \"#utility.yul\":6778:6805   */\n      dup2\n      eq\n      tag_178\n      jumpi\n        /* \"#utility.yul\":6819:6820   */\n      0x02\n        /* \"#utility.yul\":6814:7005   */\n      dup2\n      eq\n      tag_179\n      jumpi\n        /* \"#utility.yul\":6728:7005   */\n      jump(tag_177)\n        /* \"#utility.yul\":6778:6805   */\n    tag_178:\n        /* \"#utility.yul\":6796:6797   */\n      0x01\n        /* \"#utility.yul\":6787:6797   */\n      swap2\n      pop\n        /* \"#utility.yul\":6798:6803   */\n      pop\n      jump(tag_174)\n        /* \"#utility.yul\":6814:7005   */\n    tag_179:\n        /* \"#utility.yul\":6859:6862   */\n      0xff\n        /* \"#utility.yul\":6849:6857   */\n      dup5\n        /* \"#utility.yul\":6846:6863   */\n      gt\n        /* \"#utility.yul\":6843:6886   */\n      iszero\n      tag_180\n      jumpi\n        /* \"#utility.yul\":6866:6884   */\n      tag_181\n      tag_90\n      jump\t// in\n    tag_181:\n        /* \"#utility.yul\":6843:6886   */\n    tag_180:\n        /* \"#utility.yul\":6915:6923   */\n      dup4\n        /* \"#utility.yul\":6912:6913   */\n      0x02\n        /* \"#utility.yul\":6908:6924   */\n      exp\n        /* \"#utility.yul\":6899:6924   */\n      swap2\n      pop\n        /* \"#utility.yul\":6950:6953   */\n      dup5\n        /* \"#utility.yul\":6943:6948   */\n      dup3\n        /* \"#utility.yul\":6940:6954   */\n      gt\n        /* \"#utility.yul\":6937:6977   */\n      iszero\n      tag_182\n      jumpi\n        /* \"#utility.yul\":6957:6975   */\n      tag_183\n      tag_90\n      jump\t// in\n    tag_183:\n        /* \"#utility.yul\":6937:6977   */\n    tag_182:\n        /* \"#utility.yul\":6990:6995   */\n      pop\n      jump(tag_174)\n        /* \"#utility.yul\":6728:7005   */\n    tag_177:\n      pop\n        /* \"#utility.yul\":7114:7116   */\n      0x20\n        /* \"#utility.yul\":7104:7112   */\n      dup4\n        /* \"#utility.yul\":7101:7117   */\n      lt\n        /* \"#utility.yul\":7095:7098   */\n      0x0133\n        /* \"#utility.yul\":7089:7093   */\n      dup4\n        /* \"#utility.yul\":7086:7099   */\n      lt\n        /* \"#utility.yul\":7082:7118   */\n      and\n        /* \"#utility.yul\":7064:7066   */\n      0x4e\n        /* \"#utility.yul\":7054:7062   */\n      dup5\n        /* \"#utility.yul\":7051:7067   */\n      lt\n        /* \"#utility.yul\":7046:7048   */\n      0x0b\n        /* \"#utility.yul\":7040:7044   */\n      dup5\n        /* \"#utility.yul\":7037:7049   */\n      lt\n        /* \"#utility.yul\":7033:7068   */\n      and\n        /* \"#utility.yul\":7017:7128   */\n      or\n        /* \"#utility.yul\":7014:7260   */\n      iszero\n      tag_184\n      jumpi\n        /* \"#utility.yul\":7170:7178   */\n      dup3\n        /* \"#utility.yul\":7164:7168   */\n      dup3\n        /* \"#utility.yul\":7160:7179   */\n      exp\n        /* \"#utility.yul\":7151:7179   */\n      swap1\n      pop\n        /* \"#utility.yul\":7205:7208   */\n      dup4\n        /* \"#utility.yul\":7198:7203   */\n      dup2\n        /* \"#utility.yul\":7195:7209   */\n      gt\n        /* \"#utility.yul\":7192:7232   */\n      iszero\n      tag_185\n      jumpi\n        /* \"#utility.yul\":7212:7230   */\n      tag_186\n      tag_90\n      jump\t// in\n    tag_186:\n        /* \"#utility.yul\":7192:7232   */\n    tag_185:\n        /* \"#utility.yul\":7245:7250   */\n      jump(tag_174)\n        /* \"#utility.yul\":7014:7260   */\n    tag_184:\n        /* \"#utility.yul\":7285:7327   */\n      tag_187\n        /* \"#utility.yul\":7323:7326   */\n      dup5\n        /* \"#utility.yul\":7313:7321   */\n      dup5\n        /* \"#utility.yul\":7307:7311   */\n      dup5\n        /* \"#utility.yul\":7304:7305   */\n      0x01\n        /* \"#utility.yul\":7285:7327   */\n      tag_92\n      jump\t// in\n    tag_187:\n        /* \"#utility.yul\":7270:7327   */\n      swap3\n      pop\n      swap1\n      pop\n        /* \"#utility.yul\":7359:7363   */\n      dup2\n        /* \"#utility.yul\":7354:7357   */\n      dup5\n        /* \"#utility.yul\":7350:7364   */\n      div\n        /* \"#utility.yul\":7343:7348   */\n      dup2\n        /* \"#utility.yul\":7340:7365   */\n      gt\n        /* \"#utility.yul\":7337:7388   */\n      iszero\n      tag_188\n      jumpi\n        /* \"#utility.yul\":7368:7386   */\n      tag_189\n      tag_90\n      jump\t// in\n    tag_189:\n        /* \"#utility.yul\":7337:7388   */\n    tag_188:\n        /* \"#utility.yul\":7417:7421   */\n      dup2\n        /* \"#utility.yul\":7410:7415   */\n      dup2\n        /* \"#utility.yul\":7406:7422   */\n      mul\n        /* \"#utility.yul\":7397:7422   */\n      swap1\n      pop\n        /* \"#utility.yul\":6355:7428   */\n    tag_174:\n      swap4\n      swap3\n      pop\n      pop\n      pop\n      jump\t// out\n        /* \"#utility.yul\":7434:7719   */\n    tag_76:\n        /* \"#utility.yul\":7494:7499   */\n      0x00\n        /* \"#utility.yul\":7518:7541   */\n      tag_191\n        /* \"#utility.yul\":7536:7540   */\n      dup3\n        /* \"#utility.yul\":7518:7541   */\n      tag_82\n      jump\t// in\n    tag_191:\n        /* \"#utility.yul\":7510:7541   */\n      swap2\n      pop\n        /* \"#utility.yul\":7562:7589   */\n      tag_192\n        /* \"#utility.yul\":7580:7588   */\n      dup4\n        /* \"#utility.yul\":7562:7589   */\n      tag_82\n      jump\t// in\n    tag_192:\n        /* \"#utility.yul\":7550:7589   */\n      swap3\n      pop\n        /* \"#utility.yul\":7608:7712   */\n      tag_193\n        /* \"#utility.yul\":7645:7711   */\n      0xffffffffffffffffffffffffffffffffffffffffffffffffffffffffffffffff\n        /* \"#utility.yul\":7635:7643   */\n      dup5\n        /* \"#utility.yul\":7629:7633   */\n      dup5\n        /* \"#utility.yul\":7608:7712   */\n      tag_93\n      jump\t// in\n    tag_193:\n        /* \"#utility.yul\":7599:7712   */\n      swap1\n      pop\n        /* \"#utility.yul\":7434:7719   */\n      swap3\n      swap2\n      pop\n      pop\n      jump\t// out\n\n    auxdata: 0xa264697066735822122045ee0efa0e11a51bc1a20a6aa2cc841e873e3e192de968e21502f99c4980dded64736f6c634300081a0033\n}\n",
				"bytecode": {
					"linkReferences": {},
					"object": "6080604052348015600e575f80fd5b506107c28061001c5f395ff3fe608060405234801561000f575f80fd5b5060043610610086575f3560e01c8063b1b45b1b11610059578063b1b45b1b1461014b578063dd125e371461017b578063e989d9cc146101ac578063f43f523a146101dc57610086565b8063424bd6201461008a5780634c627bad146100ba578063871f9af4146100ea578063a391c15b1461011b575b5f80fd5b6100a4600480360381019061009f919061032f565b61020c565b6040516100b1919061037c565b60405180910390f35b6100d460048036038101906100cf91906103c8565b610221565b6040516100e19190610415565b60405180910390f35b61010460048036038101906100ff919061042e565b610236565b60405161011292919061047e565b60405180910390f35b6101356004803603810190610130919061032f565b61026d565b604051610142919061037c565b60405180910390f35b6101656004803603810190610160919061032f565b610282565b604051610172919061037c565b60405180910390f35b6101956004803603810190610190919061042e565b610297565b6040516101a392919061047e565b60405180910390f35b6101c660048036038101906101c1919061032f565b6102ce565b6040516101d3919061037c565b60405180910390f35b6101f660048036038101906101f1919061032f565b6102e3565b604051610203919061037c565b60405180910390f35b5f818361021991906104d2565b905092915050565b5f818361022e9190610513565b905092915050565b5f80828061024757610246610553565b5b84860983858761025791906104d2565b6102619190610580565b91509150935093915050565b5f818361027a91906105b0565b905092915050565b5f818361028f91906105e0565b905092915050565b5f8082806102a8576102a7610553565b5b8486088385876102b891906105e0565b6102c29190610580565b91509150935093915050565b5f81836102db9190610742565b905092915050565b5f81836102f09190610580565b905092915050565b5f80fd5b5f819050919050565b61030e816102fc565b8114610318575f80fd5b50565b5f8135905061032981610305565b92915050565b5f8060408385031215610345576103446102f8565b5b5f6103528582860161031b565b92505060206103638582860161031b565b9150509250929050565b610376816102fc565b82525050565b5f60208201905061038f5f83018461036d565b92915050565b5f819050919050565b6103a781610395565b81146103b1575f80fd5b50565b5f813590506103c28161039e565b92915050565b5f80604083850312156103de576103dd6102f8565b5b5f6103eb858286016103b4565b92505060206103fc858286016103b4565b9150509250929050565b61040f81610395565b82525050565b5f6020820190506104285f830184610406565b92915050565b5f805f60608486031215610445576104446102f8565b5b5f6104528682870161031b565b93505060206104638682870161031b565b92505060406104748682870161031b565b9150509250925092565b5f6040820190506104915f83018561036d565b61049e602083018461036d565b9392505050565b7f4e487b71000000000000000000000000000000000000000000000000000000005f52601160045260245ffd5b5f6104dc826102fc565b91506104e7836102fc565b92508282026104f5816102fc565b9150828204841483151761050c5761050b6104a5565b5b5092915050565b5f61051d82610395565b915061052883610395565b925082820390508181125f8412168282135f85121516171561054d5761054c6104a5565b5b92915050565b7f4e487b71000000000000000000000000000000000000000000000000000000005f52601260045260245ffd5b5f61058a826102fc565b9150610595836102fc565b9250826105a5576105a4610553565b5b828206905092915050565b5f6105ba826102fc565b91506105c5836102fc565b9250826105d5576105d4610553565b5b828204905092915050565b5f6105ea826102fc565b91506105f5836102fc565b925082820190508082111561060d5761060c6104a5565b5b92915050565b5f8160011c9050919050565b5f808291508390505b600185111561066857808604811115610644576106436104a5565b5b60018516156106535780820291505b808102905061066185610613565b9450610628565b94509492505050565b5f82610680576001905061073b565b8161068d575f905061073b565b81600181146106a357600281146106ad576106dc565b600191505061073b565b60ff8411156106bf576106be6104a5565b5b8360020a9150848211156106d6576106d56104a5565b5b5061073b565b5060208310610133831016604e8410600b84101617156107115782820a90508381111561070c5761070b6104a5565b5b61073b565b61071e848484600161061f565b92509050818404811115610735576107346104a5565b5b81810290505b9392505050565b5f61074c826102fc565b9150610757836102fc565b92506107847fffffffffffffffffffffffffffffffffffffffffffffffffffffffffffffffff8484610671565b90509291505056fea264697066735822122045ee0efa0e11a51bc1a20a6aa2cc841e873e3e192de968e21502f99c4980dded64736f6c634300081a0033",
					"opcodes": "PUSH1 0x80 PUSH1 0x40 MSTORE CALLVALUE DUP1 ISZERO PUSH1 0xE JUMPI PUSH0 DUP1 REVERT JUMPDEST POP PUSH2 0x7C2 DUP1 PUSH2 0x1C PUSH0 CODECOPY PUSH0 RETURN INVALID PUSH1 0x80 PUSH1 0x40 MSTORE CALLVALUE DUP1 ISZERO PUSH2 0xF JUMPI PUSH0 DUP1 REVERT JUMPDEST POP PUSH1 0x4 CALLDATASIZE LT PUSH2 0x86 JUMPI PUSH0 CALLDATALOAD PUSH1 0xE0 SHR DUP1 PUSH4 0xB1B45B1B GT PUSH2 0x59 JUMPI DUP1 PUSH4 0xB1B45B1B EQ PUSH2 0x14B JUMPI DUP1 PUSH4 0xDD125E37 EQ PUSH2 0x17B JUMPI DUP1 PUSH4 0xE989D9CC EQ PUSH2 0x1AC JUMPI DUP1 PUSH4 0xF43F523A EQ PUSH2 0x1DC JUMPI PUSH2 0x86 JUMP JUMPDEST DUP1 PUSH4 0x424BD620 EQ PUSH2 0x8A JUMPI DUP1 PUSH4 0x4C627BAD EQ PUSH2 0xBA JUMPI DUP1 PUSH4 0x871F9AF4 EQ PUSH2 0xEA JUMPI DUP1 PUSH4 0xA391C15B EQ PUSH2 0x11B JUMPI JUMPDEST PUSH0 DUP1 REVERT JUMPDEST PUSH2 0xA4 PUSH1 0x4 DUP1 CALLDATASIZE SUB DUP2 ADD SWAP1 PUSH2 0x9F SWAP2 SWAP1 PUSH2 0x32F JUMP JUMPDEST PUSH2 0x20C JUMP JUMPDEST PUSH1 0x40 MLOAD PUSH2 0xB1 SWAP2 SWAP1 PUSH2 0x37C JUMP JUMPDEST PUSH1 0x40 MLOAD DUP1 SWAP2 SUB SWAP1 RETURN JUMPDEST PUSH2 0xD4 PUSH1 0x4 DUP1 CALLDATASIZE SUB DUP2 ADD SWAP1 PUSH2 0xCF SWAP2 SWAP1 PUSH2 0x3C8 JUMP JUMPDEST PUSH2 0x221 JUMP JUMPDEST PUSH1 0x40 MLOAD PUSH2 0xE1 SWAP2 SWAP1 PUSH2 0x415 JUMP JUMPDEST PUSH1 0x40 MLOAD DUP1 SWAP2 SUB SWAP1 RETURN JUMPDEST PUSH2 0x104 PUSH1 0x4 DUP1 CALLDATASIZE SUB DUP2 ADD SWAP1 PUSH2 0xFF SWAP2 SWAP1 PUSH2 0x42E JUMP JUMPDEST PUSH2 0x236 JUMP JUMPDEST PUSH1 0x40 MLOAD PUSH2 0x112 SWAP3 SWAP2 SWAP1 PUSH2 0x47E JUMP JUMPDEST PUSH1 0x40 MLOAD DUP1 SWAP2 SUB SWAP1 RETURN JUMPDEST PUSH2 0x135 PUSH1 0x4 DUP1 CALLDATASIZE SUB DUP2 ADD SWAP1 PUSH2 0x130 SWAP2 SWAP1 PUSH2 0x32F JUMP JUMPDEST PUSH2 0x26D JUMP JUMPDEST PUSH1 0x40 MLOAD PUSH2 0x142 SWAP2 SWAP1 PUSH2 0x37C JUMP JUMPDEST PUSH1 0x40 MLOAD DUP1 SWAP2 SUB SWAP1 RETURN JUMPDEST PUSH2 0x165 PUSH1 0x4 DUP1 CALLDATASIZE SUB DUP2 ADD SWAP1 PUSH2 0x160 SWAP2 SWAP1 PUSH2 0x32F JUMP JUMPDEST PUSH2 0x282 JUMP JUMPDEST PUSH1 0x40 MLOAD PUSH2 0x172 SWAP2 SWAP1 PUSH2 0x37C JUMP JUMPDEST PUSH1 0x40 MLOAD DUP1 SWAP2 SUB SWAP1 RETURN JUMPDEST PUSH2 0x195 PUSH1 0x4 DUP1 CALLDATASIZE SUB DUP2 ADD SWAP1 PUSH2 0x190 SWAP2 SWAP1 PUSH2 0x42E JUMP JUMPDEST PUSH2 0x297 JUMP JUMPDEST PUSH1 0x40 MLOAD PUSH2 0x1A3 SWAP3 SWAP2 SWAP1 PUSH2 0x47E JUMP JUMPDEST PUSH1 0x40 MLOAD DUP1 SWAP2 SUB SWAP1 RETURN JUMPDEST PUSH2 0x1C6 PUSH1 0x4 DUP1 CALLDATASIZE SUB DUP2 ADD SWAP1 PUSH2 0x1C1 SWAP2 SWAP1 PUSH2 0x32F JUMP JUMPDEST PUSH2 0x2CE JUMP JUMPDEST PUSH1 0x40 MLOAD PUSH2 0x1D3 SWAP2 SWAP1 PUSH2 0x37C JUMP JUMPDEST PUSH1 0x40 MLOAD DUP1 SWAP2 SUB SWAP1 RETURN JUMPDEST PUSH2 0x1F6 PUSH1 0x4 DUP1 CALLDATASIZE SUB DUP2 ADD SWAP1 PUSH2 0x1F1 SWAP2 SWAP1 PUSH2 0x32F JUMP JUMPDEST PUSH2 0x2E3 JUMP JUMPDEST PUSH1 0x40 MLOAD PUSH2 0x203 SWAP2 SWAP1 PUSH2 0x37C JUMP JUMPDEST PUSH1 0x40 MLOAD DUP1 SWAP2 SUB SWAP1 RETURN JUMPDEST PUSH0 DUP2 DUP4 PUSH2 0x219 SWAP2 SWAP1 PUSH2 0x4D2 JUMP JUMPDEST SWAP1 POP SWAP3 SWAP2 POP POP JUMP JUMPDEST PUSH0 DUP2 DUP4 PUSH2 0x22E SWAP2 SWAP1 PUSH2 0x513 JUMP JUMPDEST SWAP1 POP SWAP3 SWAP2 POP POP JUMP JUMPDEST PUSH0 DUP1 DUP3 DUP1 PUSH2 0x247 JUMPI PUSH2 0x246 PUSH2 0x553 JUMP JUMPDEST JUMPDEST DUP5 DUP7 MULMOD DUP4 DUP6 DUP8 PUSH2 0x257 SWAP2 SWAP1 PUSH2 0x4D2 JUMP JUMPDEST PUSH2 0x261 SWAP2 SWAP1 PUSH2 0x580 JUMP JUMPDEST SWAP2 POP SWAP2 POP SWAP4 POP SWAP4 SWAP2 POP POP JUMP JUMPDEST PUSH0 DUP2 DUP4 PUSH2 0x27A SWAP2 SWAP1 PUSH2 0x5B0 JUMP JUMPDEST SWAP1 POP SWAP3 SWAP2 POP POP JUMP JUMPDEST PUSH0 DUP2 DUP4 PUSH2 0x28F SWAP2 SWAP1 PUSH2 0x5E0 JUMP JUMPDEST SWAP1 POP SWAP3 SWAP2 POP POP JUMP JUMPDEST PUSH0 DUP1 DUP3 DUP1 PUSH2 0x2A8 JUMPI PUSH2 0x2A7 PUSH2 0x553 JUMP JUMPDEST JUMPDEST DUP5 DUP7 ADDMOD DUP4 DUP6 DUP8 PUSH2 0x2B8 SWAP2 SWAP1 PUSH2 0x5E0 JUMP JUMPDEST PUSH2 0x2C2 SWAP2 SWAP1 PUSH2 0x580 JUMP JUMPDEST SWAP2 POP SWAP2 POP SWAP4 POP SWAP4 SWAP2 POP POP JUMP JUMPDEST PUSH0 DUP2 DUP4 PUSH2 0x2DB SWAP2 SWAP1 PUSH2 0x742 JUMP JUMPDEST SWAP1 POP SWAP3 SWAP2 POP POP JUMP JUMPDEST PUSH0 DUP2 DUP4 PUSH2 0x2F0 SWAP2 SWAP1 PUSH2 0x580 JUMP JUMPDEST SWAP1 POP SWAP3 SWAP2 POP POP JUMP JUMPDEST PUSH0 DUP1 REVERT JUMPDEST PUSH0 DUP2 SWAP1 POP SWAP2 SWAP1 POP JUMP JUMPDEST PUSH2 0x30E DUP2 PUSH2 0x2FC JUMP JUMPDEST DUP2 EQ PUSH2 0x318 JUMPI PUSH0 DUP1 REVERT JUMPDEST POP JUMP JUMPDEST PUSH0 DUP2 CALLDATALOAD SWAP1 POP PUSH2 0x329 DUP2 PUSH2 0x305 JUMP JUMPDEST SWAP3 SWAP2 POP POP JUMP JUMPDEST PUSH0 DUP1 PUSH1 0x40 DUP4 DUP6 SUB SLT ISZERO PUSH2 0x345 JUMPI PUSH2 0x344 PUSH2 0x2F8 JUMP JUMPDEST JUMPDEST PUSH0 PUSH2 0x352 DUP6 DUP3 DUP7 ADD PUSH2 0x31B JUMP JUMPDEST SWAP3 POP POP PUSH1 0x20 PUSH2 0x363 DUP6 DUP3 DUP7 ADD PUSH2 0x31B JUMP JUMPDEST SWAP2 POP POP SWAP3 POP SWAP3 SWAP1 POP JUMP JUMPDEST PUSH2 0x376 DUP2 PUSH2 0x2FC JUMP JUMPDEST DUP3 MSTORE POP POP JUMP JUMPDEST PUSH0 PUSH1 0x20 DUP3 ADD SWAP1 POP PUSH2 0x38F PUSH0 DUP4 ADD DUP5 PUSH2 0x36D JUMP JUMPDEST SWAP3 SWAP2 POP POP JUMP JUMPDEST PUSH0 DUP2 SWAP1 POP SWAP2 SWAP1 POP JUMP JUMPDEST PUSH2 0x3A7 DUP2 PUSH2 0x395 JUMP JUMPDEST DUP2 EQ PUSH2 0x3B1 JUMPI PUSH0 DUP1 REVERT JUMPDEST POP JUMP JUMPDEST PUSH0 DUP2 CALLDATALOAD SWAP1 POP PUSH2 0x3C2 DUP2 PUSH2 0x39E JUMP JUMPDEST SWAP3 SWAP2 POP POP JUMP JUMPDEST PUSH0 DUP1 PUSH1 0x40 DUP4 DUP6 SUB SLT ISZERO PUSH2 0x3DE JUMPI PUSH2 0x3DD PUSH2 0x2F8 JUMP JUMPDEST JUMPDEST PUSH0 PUSH2 0x3EB DUP6 DUP3 DUP7 ADD PUSH2 0x3B4 JUMP JUMPDEST SWAP3 POP POP PUSH1 0x20 PUSH2 0x3FC DUP6 DUP3 DUP7 ADD PUSH2 0x3B4 JUMP JUMPDEST SWAP2 POP POP SWAP3 POP SWAP3 SWAP1 POP JUMP JUMPDEST PUSH2 0x40F DUP2 PUSH2 0x395 JUMP JUMPDEST DUP3 MSTORE POP POP JUMP JUMPDEST PUSH0 PUSH1 0x20 DUP3 ADD SWAP1 POP PUSH2 0x428 PUSH0 DUP4 ADD DUP5 PUSH2 0x406 JUMP JUMPDEST SWAP3 SWAP2 POP POP JUMP JUMPDEST PUSH0 DUP1 PUSH0 PUSH1 0x60 DUP5 DUP7 SUB SLT ISZERO PUSH2 0x445 JUMPI PUSH2 0x444 PUSH2 0x2F8 JUMP JUMPDEST JUMPDEST PUSH0 PUSH2 0x452 DUP7 DUP3 DUP8 ADD PUSH2 0x31B JUMP JUMPDEST SWAP4 POP POP PUSH1 0x20 PUSH2 0x463 DUP7 DUP3 DUP8 ADD PUSH2 0x31B JUMP JUMPDEST SWAP3 POP POP PUSH1 0x40 PUSH2 0x474 DUP7 DUP3 DUP8 ADD PUSH2 0x31B JUMP JUMPDEST SWAP2 POP POP SWAP3 POP SWAP3 POP SWAP3 JUMP JUMPDEST PUSH0 PUSH1 0x40 DUP3 ADD SWAP1 POP PUSH2 0x491 PUSH0 DUP4 ADD DUP6 PUSH2 0x36D JUMP JUMPDEST PUSH2 0x49E PUSH1 0x20 DUP4 ADD DUP5 PUSH2 0x36D JUMP JUMPDEST SWAP4 SWAP3 POP POP POP JUMP JUMPDEST PUSH32 0x4E487B7100000000000000000000000000000000000000000000000000000000 PUSH0 MSTORE PUSH1 0x11 PUSH1 0x4 MSTORE PUSH1 0x24 PUSH0 REVERT JUMPDEST PUSH0 PUSH2 0x4DC DUP3 PUSH2 0x2FC JUMP JUMPDEST SWAP2 POP PUSH2 0x4E7 DUP4 PUSH2 0x2FC JUMP JUMPDEST SWAP3 POP DUP3 DUP3 MUL PUSH2 0x4F5 DUP2 PUSH2 0x2FC JUMP JUMPDEST SWAP2 POP DUP3 DUP3 DIV DUP5 EQ DUP4 ISZERO OR PUSH2 0x50C JUMPI PUSH2 0x50B PUSH2 0x4A5 JUMP JUMPDEST JUMPDEST POP SWAP3 SWAP2 POP POP JUMP JUMPDEST PUSH0 PUSH2 0x51D DUP3 PUSH2 0x395 JUMP JUMPDEST SWAP2 POP PUSH2 0x528 DUP4 PUSH2 0x395 JUMP JUMPDEST SWAP3 POP DUP3 DUP3 SUB SWAP1 POP DUP2 DUP2 SLT PUSH0 DUP5 SLT AND DUP3 DUP3 SGT PUSH0 DUP6 SLT ISZERO AND OR ISZERO PUSH2 0x54D JUMPI PUSH2 0x54C PUSH2 0x4A5 JUMP JUMPDEST JUMPDEST SWAP3 SWAP2 POP POP JUMP JUMPDEST PUSH32 0x4E487B7100000000000000000000000000000000000000000000000000000000 PUSH0 MSTORE PUSH1 0x12 PUSH1 0x4 MSTORE PUSH1 0x24 PUSH0 REVERT JUMPDEST PUSH0 PUSH2 0x58A DUP3 PUSH2 0x2FC JUMP JUMPDEST SWAP2 POP PUSH2 0x595 DUP4 PUSH2 0x2FC JUMP JUMPDEST SWAP3 POP DUP3 PUSH2 0x5A5 JUMPI PUSH2 0x5A4 PUSH2 0x553 JUMP JUMPDEST JUMPDEST DUP3 DUP3 MOD SWAP1 POP SWAP3 SWAP2 POP POP JUMP JUMPDEST PUSH0 PUSH2 0x5BA DUP3 PUSH2 0x2FC JUMP JUMPDEST SWAP2 POP PUSH2 0x5C5 DUP4 PUSH2 0x2FC JUMP JUMPDEST SWAP3 POP DUP3 PUSH2 0x5D5 JUMPI PUSH2 0x5D4 PUSH2 0x553 JUMP JUMPDEST JUMPDEST DUP3 DUP3 DIV SWAP1 POP SWAP3 SWAP2 POP POP JUMP JUMPDEST PUSH0 PUSH2 0x5EA DUP3 PUSH2 0x2FC JUMP JUMPDEST SWAP2 POP PUSH2 0x5F5 DUP4 PUSH2 0x2FC JUMP JUMPDEST SWAP3 POP DUP3 DUP3 ADD SWAP1 POP DUP1 DUP3 GT ISZERO PUSH2 0x60D JUMPI PUSH2 0x60C PUSH2 0x4A5 JUMP JUMPDEST JUMPDEST SWAP3 SWAP2 POP POP JUMP JUMPDEST PUSH0 DUP2 PUSH1 0x1 SHR SWAP1 POP SWAP2 SWAP1 POP JUMP JUMPDEST PUSH0 DUP1 DUP3 SWAP2 POP DUP4 SWAP1 POP JUMPDEST PUSH1 0x1 DUP6 GT ISZERO PUSH2 0x668 JUMPI DUP1 DUP7 DIV DUP2 GT ISZERO PUSH2 0x644 JUMPI PUSH2 0x643 PUSH2 0x4A5 JUMP JUMPDEST JUMPDEST PUSH1 0x1 DUP6 AND ISZERO PUSH2 0x653 JUMPI DUP1 DUP3 MUL SWAP2 POP JUMPDEST DUP1 DUP2 MUL SWAP1 POP PUSH2 0x661 DUP6 PUSH2 0x613 JUMP JUMPDEST SWAP5 POP PUSH2 0x628 JUMP JUMPDEST SWAP5 POP SWAP5 SWAP3 POP POP POP JUMP JUMPDEST PUSH0 DUP3 PUSH2 0x680 JUMPI PUSH1 0x1 SWAP1 POP PUSH2 0x73B JUMP JUMPDEST DUP2 PUSH2 0x68D JUMPI PUSH0 SWAP1 POP PUSH2 0x73B JUMP JUMPDEST DUP2 PUSH1 0x1 DUP2 EQ PUSH2 0x6A3 JUMPI PUSH1 0x2 DUP2 EQ PUSH2 0x6AD JUMPI PUSH2 0x6DC JUMP JUMPDEST PUSH1 0x1 SWAP2 POP POP PUSH2 0x73B JUMP JUMPDEST PUSH1 0xFF DUP5 GT ISZERO PUSH2 0x6BF JUMPI PUSH2 0x6BE PUSH2 0x4A5 JUMP JUMPDEST JUMPDEST DUP4 PUSH1 0x2 EXP SWAP2 POP DUP5 DUP3 GT ISZERO PUSH2 0x6D6 JUMPI PUSH2 0x6D5 PUSH2 0x4A5 JUMP JUMPDEST JUMPDEST POP PUSH2 0x73B JUMP JUMPDEST POP PUSH1 0x20 DUP4 LT PUSH2 0x133 DUP4 LT AND PUSH1 0x4E DUP5 LT PUSH1 0xB DUP5 LT AND OR ISZERO PUSH2 0x711 JUMPI DUP3 DUP3 EXP SWAP1 POP DUP4 DUP2 GT ISZERO PUSH2 0x70C JUMPI PUSH2 0x70B PUSH2 0x4A5 JUMP JUMPDEST JUMPDEST PUSH2 0x73B JUMP JUMPDEST PUSH2 0x71E DUP5 DUP5 DUP5 PUSH1 0x1 PUSH2 0x61F JUMP JUMPDEST SWAP3 POP SWAP1 POP DUP2 DUP5 DIV DUP2 GT ISZERO PUSH2 0x735 JUMPI PUSH2 0x734 PUSH2 0x4A5 JUMP JUMPDEST JUMPDEST DUP2 DUP2 MUL SWAP1 POP JUMPDEST SWAP4 SWAP3 POP POP POP JUMP JUMPDEST PUSH0 PUSH2 0x74C DUP3 PUSH2 0x2FC JUMP JUMPDEST SWAP2 POP PUSH2 0x757 DUP4 PUSH2 0x2FC JUMP JUMPDEST SWAP3 POP PUSH2 0x784 PUSH32 0xFFFFFFFFFFFFFFFFFFFFFFFFFFFFFFFFFFFFFFFFFFFFFFFFFFFFFFFFFFFFFFFF DUP5 DUP5 PUSH2 0x671 JUMP JUMPDEST SWAP1 POP SWAP3 SWAP2 POP POP JUMP INVALID LOG2 PUSH5 0x6970667358 0x22 SLT KECCAK256 GASLIMIT 0xEE 0xE STATICCALL 0xE GT 0xA5 SHL 0xC1 LOG2 EXP PUSH11 0xA2CC841E873E3E192DE968 0xE2 ISZERO MUL 0xF9 SWAP13 BLOBHASH DUP1 0xDD 0xED PUSH5 0x736F6C6343 STOP ADDMOD BYTE STOP CALLER "
				},
				"gasEstimates": {
					"creation": {
						"codeDepositCost": "397200",
						"executionCost": "434",
						"totalCost": "397634"
					},
					"external": {
						"_addmod(uint256,uint256,uint256)": "infinite",
						"_mulmod(uint256,uint256,uint256)": "infinite",
						"div(uint256,uint256)": "infinite",
						"expon(uint256,uint256)": "infinite",
						"mod(uint256,uint256)": "infinite",
						"prod(uint256,uint256)": "infinite",
						"resta(int256,int256)": "infinite",
						"suma(uint256,uint256)": "infinite"
					}
				},
				"methodIdentifiers": {
					"_addmod(uint256,uint256,uint256)": "dd125e37",
					"_mulmod(uint256,uint256,uint256)": "871f9af4",
					"div(uint256,uint256)": "a391c15b",
					"expon(uint256,uint256)": "e989d9cc",
					"mod(uint256,uint256)": "f43f523a",
					"prod(uint256,uint256)": "424bd620",
					"resta(int256,int256)": "4c627bad",
					"suma(uint256,uint256)": "b1b45b1b"
				}
			},
			"storageLayout": {
				"storage": [],
				"types": null
			},
			"userdoc": {
				"kind": "user",
				"methods": {},
				"version": 1
			}
		}
	}
}